{
  "_format": "hh-sol-artifact-1",
  "contractName": "AirdropHouses",
  "sourceName": "contracts/AirdropHouses.sol",
  "abi": [
    {
      "inputs": [],
      "stateMutability": "nonpayable",
      "type": "constructor"
    },
    {
      "anonymous": false,
      "inputs": [
        {
          "indexed": true,
          "internalType": "address",
          "name": "owner",
          "type": "address"
        },
        {
          "indexed": true,
          "internalType": "address",
          "name": "approved",
          "type": "address"
        },
        {
          "indexed": true,
          "internalType": "uint256",
          "name": "tokenId",
          "type": "uint256"
        }
      ],
      "name": "Approval",
      "type": "event"
    },
    {
      "anonymous": false,
      "inputs": [
        {
          "indexed": true,
          "internalType": "address",
          "name": "owner",
          "type": "address"
        },
        {
          "indexed": true,
          "internalType": "address",
          "name": "operator",
          "type": "address"
        },
        {
          "indexed": false,
          "internalType": "bool",
          "name": "approved",
          "type": "bool"
        }
      ],
      "name": "ApprovalForAll",
      "type": "event"
    },
    {
      "anonymous": false,
      "inputs": [
        {
          "indexed": false,
          "internalType": "uint256",
          "name": "_batchDuratioin",
          "type": "uint256"
        }
      ],
      "name": "BatchDurationChanged",
      "type": "event"
    },
    {
      "anonymous": false,
      "inputs": [
        {
          "indexed": false,
          "internalType": "uint256",
          "name": "_groupNum",
          "type": "uint256"
        },
        {
          "indexed": false,
          "internalType": "bytes32",
          "name": "_merkleRoot",
          "type": "bytes32"
        }
      ],
      "name": "MerkelRootChanged",
      "type": "event"
    },
    {
      "anonymous": false,
      "inputs": [
        {
          "indexed": true,
          "internalType": "address",
          "name": "_to",
          "type": "address"
        },
        {
          "indexed": false,
          "internalType": "uint256",
          "name": "_number",
          "type": "uint256"
        }
      ],
      "name": "MintNFT",
      "type": "event"
    },
    {
      "anonymous": false,
      "inputs": [
        {
          "indexed": true,
          "internalType": "address",
          "name": "previousOwner",
          "type": "address"
        },
        {
          "indexed": true,
          "internalType": "address",
          "name": "newOwner",
          "type": "address"
        }
      ],
      "name": "OwnershipTransferred",
      "type": "event"
    },
    {
      "anonymous": false,
      "inputs": [
        {
          "indexed": false,
          "internalType": "uint256",
          "name": "_risingPrice",
          "type": "uint256"
        }
      ],
      "name": "RisingPriceChanged",
      "type": "event"
    },
    {
      "anonymous": false,
      "inputs": [
        {
          "indexed": false,
          "internalType": "uint256",
          "name": "_saleMode",
          "type": "uint256"
        }
      ],
      "name": "SaleModeChanged",
      "type": "event"
    },
    {
      "anonymous": false,
      "inputs": [
        {
          "indexed": false,
          "internalType": "uint256",
          "name": "_sheetsPerBatch",
          "type": "uint256"
        }
      ],
      "name": "SheetsPerBatchChanged",
      "type": "event"
    },
    {
      "anonymous": false,
      "inputs": [
        {
          "indexed": false,
          "internalType": "uint256",
          "name": "startDate",
          "type": "uint256"
        }
      ],
      "name": "StartDateChanged",
      "type": "event"
    },
    {
      "anonymous": false,
      "inputs": [
        {
          "indexed": true,
          "internalType": "address",
          "name": "from",
          "type": "address"
        },
        {
          "indexed": true,
          "internalType": "address",
          "name": "to",
          "type": "address"
        },
        {
          "indexed": true,
          "internalType": "uint256",
          "name": "tokenId",
          "type": "uint256"
        }
      ],
      "name": "Transfer",
      "type": "event"
    },
    {
      "anonymous": false,
      "inputs": [
        {
          "indexed": false,
          "internalType": "uint256",
          "name": "_publicMintLimit",
          "type": "uint256"
        }
      ],
      "name": "publicMintLimitChanged",
      "type": "event"
    },
    {
      "inputs": [
        {
          "internalType": "address",
          "name": "to",
          "type": "address"
        },
        {
          "internalType": "uint256",
          "name": "tokenId",
          "type": "uint256"
        }
      ],
      "name": "approve",
      "outputs": [],
      "stateMutability": "nonpayable",
      "type": "function"
    },
    {
      "inputs": [
        {
          "internalType": "address",
          "name": "owner",
          "type": "address"
        }
      ],
      "name": "balanceOf",
      "outputs": [
        {
          "internalType": "uint256",
          "name": "",
          "type": "uint256"
        }
      ],
      "stateMutability": "view",
      "type": "function"
    },
    {
      "inputs": [],
      "name": "count",
      "outputs": [
        {
          "internalType": "uint256",
          "name": "",
          "type": "uint256"
        }
      ],
      "stateMutability": "view",
      "type": "function"
    },
    {
      "inputs": [
        {
          "internalType": "uint256",
          "name": "tokenId",
          "type": "uint256"
        }
      ],
      "name": "getApproved",
      "outputs": [
        {
          "internalType": "address",
          "name": "",
          "type": "address"
        }
      ],
      "stateMutability": "view",
      "type": "function"
    },
    {
      "inputs": [],
      "name": "getCurrentTimestamp",
      "outputs": [
        {
          "internalType": "uint256",
          "name": "",
          "type": "uint256"
        }
      ],
      "stateMutability": "view",
      "type": "function"
    },
    {
      "inputs": [],
      "name": "getLeftPresale",
      "outputs": [
        {
          "internalType": "uint256",
          "name": "",
          "type": "uint256"
        }
      ],
      "stateMutability": "view",
      "type": "function"
    },
    {
      "inputs": [],
      "name": "getTimePast",
      "outputs": [
        {
          "internalType": "uint256",
          "name": "",
          "type": "uint256"
        }
      ],
      "stateMutability": "view",
      "type": "function"
    },
    {
      "inputs": [
        {
          "internalType": "address",
          "name": "owner",
          "type": "address"
        },
        {
          "internalType": "address",
          "name": "operator",
          "type": "address"
        }
      ],
      "name": "isApprovedForAll",
      "outputs": [
        {
          "internalType": "bool",
          "name": "",
          "type": "bool"
        }
      ],
      "stateMutability": "view",
      "type": "function"
    },
    {
      "inputs": [],
      "name": "name",
      "outputs": [
        {
          "internalType": "string",
          "name": "",
          "type": "string"
        }
      ],
      "stateMutability": "view",
      "type": "function"
    },
    {
      "inputs": [],
      "name": "owner",
      "outputs": [
        {
          "internalType": "address",
          "name": "",
          "type": "address"
        }
      ],
      "stateMutability": "view",
      "type": "function"
    },
    {
      "inputs": [
        {
          "internalType": "uint256",
          "name": "tokenId",
          "type": "uint256"
        }
      ],
      "name": "ownerOf",
      "outputs": [
        {
          "internalType": "address",
          "name": "",
          "type": "address"
        }
      ],
      "stateMutability": "view",
      "type": "function"
    },
    {
      "inputs": [
        {
          "internalType": "address",
          "name": "recipiant",
          "type": "address"
        },
        {
          "internalType": "uint256",
          "name": "number",
          "type": "uint256"
        }
      ],
      "name": "payToMint",
      "outputs": [],
      "stateMutability": "payable",
      "type": "function"
    },
    {
      "inputs": [
        {
          "internalType": "address",
          "name": "recipiant",
          "type": "address"
        },
        {
          "internalType": "uint256",
          "name": "limit",
          "type": "uint256"
        },
        {
          "internalType": "bytes32[]",
          "name": "proof",
          "type": "bytes32[]"
        },
        {
          "internalType": "uint256",
          "name": "number",
          "type": "uint256"
        }
      ],
      "name": "payToWhiteMint",
      "outputs": [],
      "stateMutability": "payable",
      "type": "function"
    },
    {
      "inputs": [],
      "name": "price",
      "outputs": [
        {
          "internalType": "uint256",
          "name": "",
          "type": "uint256"
        }
      ],
      "stateMutability": "view",
      "type": "function"
    },
    {
      "inputs": [],
      "name": "renounceOwnership",
      "outputs": [],
      "stateMutability": "nonpayable",
      "type": "function"
    },
    {
      "inputs": [
        {
          "internalType": "address",
          "name": "to",
          "type": "address"
        },
        {
          "internalType": "uint256",
          "name": "number",
          "type": "uint256"
        }
      ],
      "name": "safeMint",
      "outputs": [],
      "stateMutability": "nonpayable",
      "type": "function"
    },
    {
      "inputs": [
        {
          "internalType": "address",
          "name": "from",
          "type": "address"
        },
        {
          "internalType": "address",
          "name": "to",
          "type": "address"
        },
        {
          "internalType": "uint256",
          "name": "tokenId",
          "type": "uint256"
        }
      ],
      "name": "safeTransferFrom",
      "outputs": [],
      "stateMutability": "nonpayable",
      "type": "function"
    },
    {
      "inputs": [
        {
          "internalType": "address",
          "name": "from",
          "type": "address"
        },
        {
          "internalType": "address",
          "name": "to",
          "type": "address"
        },
        {
          "internalType": "uint256",
          "name": "tokenId",
          "type": "uint256"
        },
        {
          "internalType": "bytes",
          "name": "_data",
          "type": "bytes"
        }
      ],
      "name": "safeTransferFrom",
      "outputs": [],
      "stateMutability": "nonpayable",
      "type": "function"
    },
    {
      "inputs": [],
      "name": "saleMode",
      "outputs": [
        {
          "internalType": "uint256",
          "name": "",
          "type": "uint256"
        }
      ],
      "stateMutability": "view",
      "type": "function"
    },
    {
      "inputs": [
        {
          "internalType": "address",
          "name": "operator",
          "type": "address"
        },
        {
          "internalType": "bool",
          "name": "approved",
          "type": "bool"
        }
      ],
      "name": "setApprovalForAll",
      "outputs": [],
      "stateMutability": "nonpayable",
      "type": "function"
    },
    {
      "inputs": [
        {
          "internalType": "uint256",
          "name": "groupNum",
          "type": "uint256"
        },
        {
          "internalType": "bytes32",
          "name": "merkleRoot",
          "type": "bytes32"
        }
      ],
      "name": "setMerkleRoot",
      "outputs": [],
      "stateMutability": "nonpayable",
      "type": "function"
    },
    {
      "inputs": [
        {
          "internalType": "uint256",
          "name": "publicMintLimit",
          "type": "uint256"
        }
      ],
      "name": "setPublicMintLimit",
      "outputs": [],
      "stateMutability": "nonpayable",
      "type": "function"
    },
    {
      "inputs": [
        {
          "internalType": "uint256",
          "name": "risingPrice",
          "type": "uint256"
        }
      ],
      "name": "setRisingPrice",
      "outputs": [],
      "stateMutability": "nonpayable",
      "type": "function"
    },
    {
      "inputs": [
        {
          "internalType": "uint256",
          "name": "mode",
          "type": "uint256"
        }
      ],
      "name": "setSaleMode",
      "outputs": [],
      "stateMutability": "nonpayable",
      "type": "function"
    },
    {
      "inputs": [
        {
          "internalType": "uint256",
          "name": "sheetsPerBatch",
          "type": "uint256"
        }
      ],
      "name": "setSheetsPerBatch",
      "outputs": [],
      "stateMutability": "nonpayable",
      "type": "function"
    },
    {
      "inputs": [
        {
          "internalType": "uint256",
          "name": "batchDuration",
          "type": "uint256"
        }
      ],
      "name": "setTimePerBatch",
      "outputs": [],
      "stateMutability": "nonpayable",
      "type": "function"
    },
    {
      "inputs": [
        {
          "internalType": "bytes4",
          "name": "interfaceId",
          "type": "bytes4"
        }
      ],
      "name": "supportsInterface",
      "outputs": [
        {
          "internalType": "bool",
          "name": "",
          "type": "bool"
        }
      ],
      "stateMutability": "view",
      "type": "function"
    },
    {
      "inputs": [],
      "name": "symbol",
      "outputs": [
        {
          "internalType": "string",
          "name": "",
          "type": "string"
        }
      ],
      "stateMutability": "view",
      "type": "function"
    },
    {
      "inputs": [
        {
          "internalType": "uint256",
          "name": "tokenId",
          "type": "uint256"
        }
      ],
      "name": "tokenURI",
      "outputs": [
        {
          "internalType": "string",
          "name": "",
          "type": "string"
        }
      ],
      "stateMutability": "view",
      "type": "function"
    },
    {
      "inputs": [],
      "name": "totalCount",
      "outputs": [
        {
          "internalType": "uint256",
          "name": "",
          "type": "uint256"
        }
      ],
      "stateMutability": "pure",
      "type": "function"
    },
    {
      "inputs": [
        {
          "internalType": "address",
          "name": "from",
          "type": "address"
        },
        {
          "internalType": "address",
          "name": "to",
          "type": "address"
        },
        {
          "internalType": "uint256",
          "name": "tokenId",
          "type": "uint256"
        }
      ],
      "name": "transferFrom",
      "outputs": [],
      "stateMutability": "nonpayable",
      "type": "function"
    },
    {
      "inputs": [
        {
          "internalType": "address",
          "name": "newOwner",
          "type": "address"
        }
      ],
      "name": "transferOwnership",
      "outputs": [],
      "stateMutability": "nonpayable",
      "type": "function"
    },
    {
      "inputs": [
        {
          "internalType": "bytes32",
          "name": "leaf",
          "type": "bytes32"
        },
        {
          "internalType": "uint256",
          "name": "limit",
          "type": "uint256"
        },
        {
          "internalType": "bytes32[]",
          "name": "proof",
          "type": "bytes32[]"
        }
      ],
      "name": "verifyWhitelist",
      "outputs": [
        {
          "internalType": "bool",
          "name": "",
          "type": "bool"
        }
      ],
      "stateMutability": "view",
      "type": "function"
    },
    {
      "inputs": [],
      "name": "withdraw",
      "outputs": [],
      "stateMutability": "nonpayable",
      "type": "function"
    }
  ],
  "bytecode": "0x60806040526001600855600f600a55601e600b556005600c55600a600d55610258600e556005600f55636283c08d6010553480156200003d57600080fd5b506040518060400160405280600d81526020017f41697244726f70486f75736573000000000000000000000000000000000000008152506040518060400160405280600381526020017f50534c00000000000000000000000000000000000000000000000000000000008152508160009080519060200190620000c292919062000388565b508060019080519060200190620000db92919062000388565b505050620000fe620000f2620002ba60201b60201c565b620002c260201b60201c565b7f9a78adef6c65eeb1b9ded4558a0fb0e838a8abdf5aeebf46bac4a36b0fe2f41260001b60096000600a8152602001908152602001600020819055507ffadbd3c7f79fa2bdc4f24857709cd4a4e870623dc9e9abcdfd6e448033e3521260001b6009600060088152602001908152602001600020819055507ffadbd3c7f79fa2bdc4f24857709cd4a4e870623dc9e9abcdfd6e448033e3521260001b6009600060068152602001908152602001600020819055507ffadbd3c7f79fa2bdc4f24857709cd4a4e870623dc9e9abcdfd6e448033e3521260001b6009600060048152602001908152602001600020819055507ffadbd3c7f79fa2bdc4f24857709cd4a4e870623dc9e9abcdfd6e448033e3521260001b6009600060028152602001908152602001600020819055507fa054ca3dbe92f7daa371b0f2160f780f35b344fada2081a57fb4ab01a783773360001b6009600060018152602001908152602001600020819055506040518060400160405280600881526020017f68747470733a2f2f00000000000000000000000000000000000000000000000081525060119080519060200190620002b392919062000388565b506200049d565b600033905090565b6000600660009054906101000a900473ffffffffffffffffffffffffffffffffffffffff16905081600660006101000a81548173ffffffffffffffffffffffffffffffffffffffff021916908373ffffffffffffffffffffffffffffffffffffffff1602179055508173ffffffffffffffffffffffffffffffffffffffff168173ffffffffffffffffffffffffffffffffffffffff167f8be0079c531659141344cd1fd0a4f28419497f9722a3daafe3b4186f6b6457e060405160405180910390a35050565b828054620003969062000438565b90600052602060002090601f016020900481019282620003ba576000855562000406565b82601f10620003d557805160ff191683800117855562000406565b8280016001018555821562000406579182015b8281111562000405578251825591602001919060010190620003e8565b5b50905062000415919062000419565b5090565b5b80821115620004345760008160009055506001016200041a565b5090565b600060028204905060018216806200045157607f821691505b602082108114156200046857620004676200046e565b5b50919050565b7f4e487b7100000000000000000000000000000000000000000000000000000000600052602260045260246000fd5b61477580620004ad6000396000f3fe6080604052600436106101f95760003560e01c806359942d331161010d57806395d89b41116100a0578063b88d4fde1161006f578063b88d4fde146106dd578063c87b56dd14610706578063e985e9c514610743578063ef3e067c14610780578063f2fde38b146107a9576101f9565b806395d89b4114610635578063a035b1fe14610660578063a14481941461068b578063a22cb465146106b4576101f9565b806370a08231116100dc57806370a082311461058d578063715018a6146105ca578063757415a4146105e15780638da5cb5b1461060a576101f9565b806359942d33146104cc5780635d0e2206146105095780636352211e146105255780636c9230db14610562576101f9565b806318712c211161019057806334eafb111161015f57806334eafb111461040d57806339b516aa146104385780633b31526a146104615780633ccfd60b1461048c57806342842e0e146104a3576101f9565b806318712c21146103745780631aa6fa0b1461039d5780631c82e523146103b957806323b872dd146103e4576101f9565b8063081812fc116101cc578063081812fc146102ba578063095ea7b3146102f75780630deed6a61461032057806313bc12181461034b576101f9565b806301ffc9a7146101fe57806306661abd1461023b57806306fdde03146102665780630745e9ac14610291575b600080fd5b34801561020a57600080fd5b50610225600480360381019061022091906131c3565b6107d2565b60405161023291906137f2565b60405180910390f35b34801561024757600080fd5b506102506108b4565b60405161025d9190613b7f565b60405180910390f35b34801561027257600080fd5b5061027b6108c5565b604051610288919061380d565b60405180910390f35b34801561029d57600080fd5b506102b860048036038101906102b39190613215565b610957565b005b3480156102c657600080fd5b506102e160048036038101906102dc9190613215565b610a1d565b6040516102ee919061378b565b60405180910390f35b34801561030357600080fd5b5061031e600480360381019061031991906130a5565b610aa2565b005b34801561032c57600080fd5b50610335610bba565b6040516103429190613b7f565b60405180910390f35b34801561035757600080fd5b50610372600480360381019061036d9190613215565b610bc4565b005b34801561038057600080fd5b5061039b6004803603810190610396919061323e565b610c81565b005b6103b760048036038101906103b291906130a5565b610d52565b005b3480156103c557600080fd5b506103ce610f34565b6040516103db9190613b7f565b60405180910390f35b3480156103f057600080fd5b5061040b60048036038101906104069190612f9f565b610f49565b005b34801561041957600080fd5b50610422610fa9565b60405161042f9190613b7f565b60405180910390f35b34801561044457600080fd5b5061045f600480360381019061045a9190613215565b610fb3565b005b34801561046d57600080fd5b50610476611070565b6040516104839190613b7f565b60405180910390f35b34801561049857600080fd5b506104a1611181565b005b3480156104af57600080fd5b506104ca60048036038101906104c59190612f9f565b6111ca565b005b3480156104d857600080fd5b506104f360048036038101906104ee919061315c565b6111ea565b60405161050091906137f2565b60405180910390f35b610523600480360381019061051e91906130e1565b6112da565b005b34801561053157600080fd5b5061054c60048036038101906105479190613215565b611559565b604051610559919061378b565b60405180910390f35b34801561056e57600080fd5b5061057761160b565b6040516105849190613b7f565b60405180910390f35b34801561059957600080fd5b506105b460048036038101906105af9190612f3a565b611613565b6040516105c19190613b7f565b60405180910390f35b3480156105d657600080fd5b506105df6116cb565b005b3480156105ed57600080fd5b5061060860048036038101906106039190613215565b611753565b005b34801561061657600080fd5b5061061f611810565b60405161062c919061378b565b60405180910390f35b34801561064157600080fd5b5061064a61183a565b604051610657919061380d565b60405180910390f35b34801561066c57600080fd5b506106756118cc565b6040516106829190613b7f565b60405180910390f35b34801561069757600080fd5b506106b260048036038101906106ad91906130a5565b611a2b565b005b3480156106c057600080fd5b506106db60048036038101906106d69190613069565b611b3b565b005b3480156106e957600080fd5b5061070460048036038101906106ff9190612fee565b611b51565b005b34801561071257600080fd5b5061072d60048036038101906107289190613215565b611bb3565b60405161073a919061380d565b60405180910390f35b34801561074f57600080fd5b5061076a60048036038101906107659190612f63565b611c5a565b60405161077791906137f2565b60405180910390f35b34801561078c57600080fd5b506107a760048036038101906107a29190613215565b611cee565b005b3480156107b557600080fd5b506107d060048036038101906107cb9190612f3a565b611dab565b005b60007f80ac58cd000000000000000000000000000000000000000000000000000000007bffffffffffffffffffffffffffffffffffffffffffffffffffffffff1916827bffffffffffffffffffffffffffffffffffffffffffffffffffffffff1916148061089d57507f5b5e139f000000000000000000000000000000000000000000000000000000007bffffffffffffffffffffffffffffffffffffffffffffffffffffffff1916827bffffffffffffffffffffffffffffffffffffffffffffffffffffffff1916145b806108ad57506108ac82611ea3565b5b9050919050565b60006108c06007611f0d565b905090565b6060600080546108d490613e5d565b80601f016020809104026020016040519081016040528092919081815260200182805461090090613e5d565b801561094d5780601f106109225761010080835404028352916020019161094d565b820191906000526020600020905b81548152906001019060200180831161093057829003601f168201915b5050505050905090565b61095f611f1b565b73ffffffffffffffffffffffffffffffffffffffff1661097d611810565b73ffffffffffffffffffffffffffffffffffffffff16146109d3576040517f08c379a00000000000000000000000000000000000000000000000000000000081526004016109ca90613a9f565b60405180910390fd5b806008819055506109e342611f23565b7fcab9c58670efd675f37069fb32cc379dbb18f1376b4f1d1a2d01404c55bf748281604051610a129190613b7f565b60405180910390a150565b6000610a2882611f64565b610a67576040517f08c379a0000000000000000000000000000000000000000000000000000000008152600401610a5e90613a5f565b60405180910390fd5b6004600083815260200190815260200160002060009054906101000a900473ffffffffffffffffffffffffffffffffffffffff169050919050565b6000610aad82611559565b90508073ffffffffffffffffffffffffffffffffffffffff168373ffffffffffffffffffffffffffffffffffffffff161415610b1e576040517f08c379a0000000000000000000000000000000000000000000000000000000008152600401610b1590613aff565b60405180910390fd5b8073ffffffffffffffffffffffffffffffffffffffff16610b3d611f1b565b73ffffffffffffffffffffffffffffffffffffffff161480610b6c5750610b6b81610b66611f1b565b611c5a565b5b610bab576040517f08c379a0000000000000000000000000000000000000000000000000000000008152600401610ba2906139bf565b60405180910390fd5b610bb58383611fd0565b505050565b6000600854905090565b610bcc611f1b565b73ffffffffffffffffffffffffffffffffffffffff16610bea611810565b73ffffffffffffffffffffffffffffffffffffffff1614610c40576040517f08c379a0000000000000000000000000000000000000000000000000000000008152600401610c3790613a9f565b60405180910390fd5b80600d819055507f6cbb8ce85aa85f93664b890c0994186a4fc7e768ff8efaea8f8b482a40d9d79f81604051610c769190613b7f565b60405180910390a150565b610c89611f1b565b73ffffffffffffffffffffffffffffffffffffffff16610ca7611810565b73ffffffffffffffffffffffffffffffffffffffff1614610cfd576040517f08c379a0000000000000000000000000000000000000000000000000000000008152600401610cf490613a9f565b60405180910390fd5b8060096000848152602001908152602001600020819055507f326c4fb4b40f17ba7e065a70f4368691128199363ab7a9a7e9677f50b2b5b1308282604051610d46929190613b9a565b60405180910390a15050565b600260085414610d97576040517f08c379a0000000000000000000000000000000000000000000000000000000008152600401610d8e90613b1f565b60405180910390fd5b80610da06118cc565b610daa9190613d0f565b341015610dec576040517f08c379a0000000000000000000000000000000000000000000000000000000008152600401610de390613a7f565b60405180910390fd5b610df46108b4565b610dfc610fa9565b610e069190613d69565b811115610e48576040517f08c379a0000000000000000000000000000000000000000000000000000000008152600401610e3f9061391f565b60405180910390fd5b600f5481610e5584611613565b610e5f9190613c88565b1115610ea0576040517f08c379a0000000000000000000000000000000000000000000000000000000008152600401610e979061399f565b60405180910390fd5b60005b81811015610ee1576000610eb76007611f0d565b9050610ec36007612089565b610ecd848261209f565b508080610ed990613ec0565b915050610ea3565b508173ffffffffffffffffffffffffffffffffffffffff167f1f89f147a58d1673945cf416187db98efc8208408c011b91887acd59fd8523c382604051610f289190613b7f565b60405180910390a25050565b600060105442610f449190613d69565b905090565b610f5a610f54611f1b565b82612279565b610f99576040517f08c379a0000000000000000000000000000000000000000000000000000000008152600401610f9090613b3f565b60405180910390fd5b610fa4838383612357565b505050565b60006107d0905090565b610fbb611f1b565b73ffffffffffffffffffffffffffffffffffffffff16610fd9611810565b73ffffffffffffffffffffffffffffffffffffffff161461102f576040517f08c379a000000000000000000000000000000000000000000000000000000000815260040161102690613a9f565b60405180910390fd5b80600c819055507f8495ad6bb8245e65bb8dce76e79f1fdc7908dddbd23453171745fbd6ad48e186816040516110659190613b7f565b60405180910390a150565b600080600e5461107e610f34565b101561108e57600d5490506110f2565b600e54600261109d9190613d0f565b6110a5610f34565b10156110c157600d5460026110ba9190613d0f565b90506110f1565b600e5460036110d09190613d0f565b6110d8610f34565b10156110f057600d5460036110ed9190613d0f565b90505b5b5b600d546001600d546111046007611f0d565b61110e9190613cde565b6111189190613c88565b6111229190613d0f565b811015611165576111336007611f0d565b6001600d546111426007611f0d565b61114c9190613cde565b6111569190613c88565b6111609190613d69565b61117b565b61116f6007611f0d565b8161117a9190613d69565b5b91505090565b3373ffffffffffffffffffffffffffffffffffffffff166108fc479081150290604051600060405180830381858888f193505050501580156111c7573d6000803e3d6000fd5b50565b6111e583838360405180602001604052806000815250611b51565b505050565b60008084905060005b83518110156112b9576000848281518110611237577f4e487b7100000000000000000000000000000000000000000000000000000000600052603260045260246000fd5b602002602001015190508083101561127957828160405160200161125c929190613730565b6040516020818303038152906040528051906020012092506112a5565b808360405160200161128c929190613730565b6040516020818303038152906040528051906020012092505b5080806112b190613ec0565b9150506111f3565b50600960008581526020019081526020016000205481149150509392505050565b60016008541461131f576040517f08c379a000000000000000000000000000000000000000000000000000000000815260040161131690613b5f565b60405180910390fd5b600e54600361132e9190613d0f565b611336610f34565b10611376576040517f08c379a000000000000000000000000000000000000000000000000000000000815260040161136d9061385f565b60405180910390fd5b8061137f6118cc565b6113899190613d0f565b3410156113cb576040517f08c379a00000000000000000000000000000000000000000000000000000000081526004016113c290613a7f565b60405180910390fd5b82816113d686611613565b6113e09190613c88565b1115611421576040517f08c379a000000000000000000000000000000000000000000000000000000000815260040161141890613abf565b60405180910390fd5b8061142a611070565b101561146b576040517f08c379a00000000000000000000000000000000000000000000000000000000081526004016114629061389f565b60405180910390fd5b6000611480611479866125be565b85856111ea565b9050806114c2576040517f08c379a00000000000000000000000000000000000000000000000000000000081526004016114b9906139df565b60405180910390fd5b60005b828110156115035760006114d96007611f0d565b90506114e56007612089565b6114ef878261209f565b5080806114fb90613ec0565b9150506114c5565b508473ffffffffffffffffffffffffffffffffffffffff167f1f89f147a58d1673945cf416187db98efc8208408c011b91887acd59fd8523c38360405161154a9190613b7f565b60405180910390a25050505050565b6000806002600084815260200190815260200160002060009054906101000a900473ffffffffffffffffffffffffffffffffffffffff169050600073ffffffffffffffffffffffffffffffffffffffff168173ffffffffffffffffffffffffffffffffffffffff161415611602576040517f08c379a00000000000000000000000000000000000000000000000000000000081526004016115f990613a1f565b60405180910390fd5b80915050919050565b600042905090565b60008073ffffffffffffffffffffffffffffffffffffffff168273ffffffffffffffffffffffffffffffffffffffff161415611684576040517f08c379a000000000000000000000000000000000000000000000000000000000815260040161167b906139ff565b60405180910390fd5b600360008373ffffffffffffffffffffffffffffffffffffffff1673ffffffffffffffffffffffffffffffffffffffff168152602001908152602001600020549050919050565b6116d3611f1b565b73ffffffffffffffffffffffffffffffffffffffff166116f1611810565b73ffffffffffffffffffffffffffffffffffffffff1614611747576040517f08c379a000000000000000000000000000000000000000000000000000000000815260040161173e90613a9f565b60405180910390fd5b61175160006125ee565b565b61175b611f1b565b73ffffffffffffffffffffffffffffffffffffffff16611779611810565b73ffffffffffffffffffffffffffffffffffffffff16146117cf576040517f08c379a00000000000000000000000000000000000000000000000000000000081526004016117c690613a9f565b60405180910390fd5b80600e819055507fe7d683309f8964a9b4e2b4fb63bea677e04453be654e25ed55ec6a458348f040816040516118059190613b7f565b60405180910390a150565b6000600660009054906101000a900473ffffffffffffffffffffffffffffffffffffffff16905090565b60606001805461184990613e5d565b80601f016020809104026020016040519081016040528092919081815260200182805461187590613e5d565b80156118c25780601f10611897576101008083540402835291602001916118c2565b820191906000526020600020905b8154815290600101906020018083116118a557829003601f168201915b5050505050905090565b6000600260085414156118e357600b549050611a28565b600e546118ee610f34565b101561199b576119636040518060400160405280600a81526020017f6265666f726520323a2000000000000000000000000000000000000000000000815250600e5461193a6007611f0d565b6119449190613cde565b600c546119519190613d0f565b600a5461195e9190613c88565b6126b4565b600e546119706007611f0d565b61197a9190613cde565b600c546119879190613d0f565b600a546119949190613c88565b9050611a28565b600e5460026119aa9190613d0f565b6119b2610f34565b1015611a0957600e5460026119c76007611f0d565b6119d19190613cde565b6119db9190613cde565b600c546119e89190613d0f565b600c54600a546119f89190613c88565b611a029190613c88565b9050611a28565b600c546002611a189190613d0f565b600a54611a259190613c88565b90505b90565b611a33611f1b565b73ffffffffffffffffffffffffffffffffffffffff16611a51611810565b73ffffffffffffffffffffffffffffffffffffffff1614611aa7576040517f08c379a0000000000000000000000000000000000000000000000000000000008152600401611a9e90613a9f565b60405180910390fd5b60005b81811015611ae8576000611abe6007611f0d565b9050611aca6007612089565b611ad48482612750565b508080611ae090613ec0565b915050611aaa565b508173ffffffffffffffffffffffffffffffffffffffff167f1f89f147a58d1673945cf416187db98efc8208408c011b91887acd59fd8523c382604051611b2f9190613b7f565b60405180910390a25050565b611b4d611b46611f1b565b838361276e565b5050565b611b62611b5c611f1b565b83612279565b611ba1576040517f08c379a0000000000000000000000000000000000000000000000000000000008152600401611b9890613b3f565b60405180910390fd5b611bad848484846128db565b50505050565b6060611bbe82611f64565b611bfd576040517f08c379a0000000000000000000000000000000000000000000000000000000008152600401611bf490613adf565b60405180910390fd5b6000611c07612937565b90506000815111611c275760405180602001604052806000815250611c52565b80611c31846129c9565b604051602001611c4292919061375c565b6040516020818303038152906040525b915050919050565b6000600560008473ffffffffffffffffffffffffffffffffffffffff1673ffffffffffffffffffffffffffffffffffffffff16815260200190815260200160002060008373ffffffffffffffffffffffffffffffffffffffff1673ffffffffffffffffffffffffffffffffffffffff16815260200190815260200160002060009054906101000a900460ff16905092915050565b611cf6611f1b565b73ffffffffffffffffffffffffffffffffffffffff16611d14611810565b73ffffffffffffffffffffffffffffffffffffffff1614611d6a576040517f08c379a0000000000000000000000000000000000000000000000000000000008152600401611d6190613a9f565b60405180910390fd5b80600f819055507f925f0509f81489238c7d12ec8acec9e0cc410642391ee2a6ca38b3197637f89a81604051611da09190613b7f565b60405180910390a150565b611db3611f1b565b73ffffffffffffffffffffffffffffffffffffffff16611dd1611810565b73ffffffffffffffffffffffffffffffffffffffff1614611e27576040517f08c379a0000000000000000000000000000000000000000000000000000000008152600401611e1e90613a9f565b60405180910390fd5b600073ffffffffffffffffffffffffffffffffffffffff168173ffffffffffffffffffffffffffffffffffffffff161415611e97576040517f08c379a0000000000000000000000000000000000000000000000000000000008152600401611e8e906138bf565b60405180910390fd5b611ea0816125ee565b50565b60007f01ffc9a7000000000000000000000000000000000000000000000000000000007bffffffffffffffffffffffffffffffffffffffffffffffffffffffff1916827bffffffffffffffffffffffffffffffffffffffffffffffffffffffff1916149050919050565b600081600001549050919050565b600033905090565b806010819055507f340656eb96ec8f1ab4ba468e243fe2191f09ec5e2a832f96985750414221a7a581604051611f599190613b7f565b60405180910390a150565b60008073ffffffffffffffffffffffffffffffffffffffff166002600084815260200190815260200160002060009054906101000a900473ffffffffffffffffffffffffffffffffffffffff1673ffffffffffffffffffffffffffffffffffffffff1614159050919050565b816004600083815260200190815260200160002060006101000a81548173ffffffffffffffffffffffffffffffffffffffff021916908373ffffffffffffffffffffffffffffffffffffffff160217905550808273ffffffffffffffffffffffffffffffffffffffff1661204383611559565b73ffffffffffffffffffffffffffffffffffffffff167f8c5be1e5ebec7d5bd14f71427d1e84f3dd0314c0f7b2291e5b200ac8c7c3b92560405160405180910390a45050565b6001816000016000828254019250508190555050565b600073ffffffffffffffffffffffffffffffffffffffff168273ffffffffffffffffffffffffffffffffffffffff16141561210f576040517f08c379a000000000000000000000000000000000000000000000000000000000815260040161210690613a3f565b60405180910390fd5b61211881611f64565b15612158576040517f08c379a000000000000000000000000000000000000000000000000000000000815260040161214f906138ff565b60405180910390fd5b61216460008383612b76565b6001600360008473ffffffffffffffffffffffffffffffffffffffff1673ffffffffffffffffffffffffffffffffffffffff16815260200190815260200160002060008282546121b49190613c88565b92505081905550816002600083815260200190815260200160002060006101000a81548173ffffffffffffffffffffffffffffffffffffffff021916908373ffffffffffffffffffffffffffffffffffffffff160217905550808273ffffffffffffffffffffffffffffffffffffffff16600073ffffffffffffffffffffffffffffffffffffffff167fddf252ad1be2c89b69c2b068fc378daa952ba7f163c4a11628f55a4df523b3ef60405160405180910390a461227560008383612b7b565b5050565b600061228482611f64565b6122c3576040517f08c379a00000000000000000000000000000000000000000000000000000000081526004016122ba9061397f565b60405180910390fd5b60006122ce83611559565b90508073ffffffffffffffffffffffffffffffffffffffff168473ffffffffffffffffffffffffffffffffffffffff16148061233d57508373ffffffffffffffffffffffffffffffffffffffff1661232584610a1d565b73ffffffffffffffffffffffffffffffffffffffff16145b8061234e575061234d8185611c5a565b5b91505092915050565b8273ffffffffffffffffffffffffffffffffffffffff1661237782611559565b73ffffffffffffffffffffffffffffffffffffffff16146123cd576040517f08c379a00000000000000000000000000000000000000000000000000000000081526004016123c4906138df565b60405180910390fd5b600073ffffffffffffffffffffffffffffffffffffffff168273ffffffffffffffffffffffffffffffffffffffff16141561243d576040517f08c379a00000000000000000000000000000000000000000000000000000000081526004016124349061393f565b60405180910390fd5b612448838383612b76565b612453600082611fd0565b6001600360008573ffffffffffffffffffffffffffffffffffffffff1673ffffffffffffffffffffffffffffffffffffffff16815260200190815260200160002060008282546124a39190613d69565b925050819055506001600360008473ffffffffffffffffffffffffffffffffffffffff1673ffffffffffffffffffffffffffffffffffffffff16815260200190815260200160002060008282546124fa9190613c88565b92505081905550816002600083815260200190815260200160002060006101000a81548173ffffffffffffffffffffffffffffffffffffffff021916908373ffffffffffffffffffffffffffffffffffffffff160217905550808273ffffffffffffffffffffffffffffffffffffffff168473ffffffffffffffffffffffffffffffffffffffff167fddf252ad1be2c89b69c2b068fc378daa952ba7f163c4a11628f55a4df523b3ef60405160405180910390a46125b9838383612b7b565b505050565b6000816040516020016125d19190613715565b604051602081830303815290604052805190602001209050919050565b6000600660009054906101000a900473ffffffffffffffffffffffffffffffffffffffff16905081600660006101000a81548173ffffffffffffffffffffffffffffffffffffffff021916908373ffffffffffffffffffffffffffffffffffffffff1602179055508173ffffffffffffffffffffffffffffffffffffffff168173ffffffffffffffffffffffffffffffffffffffff167f8be0079c531659141344cd1fd0a4f28419497f9722a3daafe3b4186f6b6457e060405160405180910390a35050565b61274c82826040516024016126ca92919061382f565b6040516020818303038152906040527f9710a9d0000000000000000000000000000000000000000000000000000000007bffffffffffffffffffffffffffffffffffffffffffffffffffffffff19166020820180517bffffffffffffffffffffffffffffffffffffffffffffffffffffffff8381831617835250505050612b80565b5050565b61276a828260405180602001604052806000815250612ba9565b5050565b8173ffffffffffffffffffffffffffffffffffffffff168373ffffffffffffffffffffffffffffffffffffffff1614156127dd576040517f08c379a00000000000000000000000000000000000000000000000000000000081526004016127d49061395f565b60405180910390fd5b80600560008573ffffffffffffffffffffffffffffffffffffffff1673ffffffffffffffffffffffffffffffffffffffff16815260200190815260200160002060008473ffffffffffffffffffffffffffffffffffffffff1673ffffffffffffffffffffffffffffffffffffffff16815260200190815260200160002060006101000a81548160ff0219169083151502179055508173ffffffffffffffffffffffffffffffffffffffff168373ffffffffffffffffffffffffffffffffffffffff167f17307eab39ab6107e8899845ad3d59bd9653f200f220920489ca2b5937696c31836040516128ce91906137f2565b60405180910390a3505050565b6128e6848484612357565b6128f284848484612c04565b612931576040517f08c379a00000000000000000000000000000000000000000000000000000000081526004016129289061387f565b60405180910390fd5b50505050565b60606011805461294690613e5d565b80601f016020809104026020016040519081016040528092919081815260200182805461297290613e5d565b80156129bf5780601f10612994576101008083540402835291602001916129bf565b820191906000526020600020905b8154815290600101906020018083116129a257829003601f168201915b5050505050905090565b60606000821415612a11576040518060400160405280600181526020017f30000000000000000000000000000000000000000000000000000000000000008152509050612b71565b600082905060005b60008214612a43578080612a2c90613ec0565b915050600a82612a3c9190613cde565b9150612a19565b60008167ffffffffffffffff811115612a85577f4e487b7100000000000000000000000000000000000000000000000000000000600052604160045260246000fd5b6040519080825280601f01601f191660200182016040528015612ab75781602001600182028036833780820191505090505b5090505b60008514612b6a57600182612ad09190613d69565b9150600a85612adf9190613f37565b6030612aeb9190613c88565b60f81b818381518110612b27577f4e487b7100000000000000000000000000000000000000000000000000000000600052603260045260246000fd5b60200101907effffffffffffffffffffffffffffffffffffffffffffffffffffffffffffff1916908160001a905350600a85612b639190613cde565b9450612abb565b8093505050505b919050565b505050565b505050565b60008151905060006a636f6e736f6c652e6c6f679050602083016000808483855afa5050505050565b612bb3838361209f565b612bc06000848484612c04565b612bff576040517f08c379a0000000000000000000000000000000000000000000000000000000008152600401612bf69061387f565b60405180910390fd5b505050565b6000612c258473ffffffffffffffffffffffffffffffffffffffff16612d9b565b15612d8e578373ffffffffffffffffffffffffffffffffffffffff1663150b7a02612c4e611f1b565b8786866040518563ffffffff1660e01b8152600401612c7094939291906137a6565b602060405180830381600087803b158015612c8a57600080fd5b505af1925050508015612cbb57506040513d601f19601f82011682018060405250810190612cb891906131ec565b60015b612d3e573d8060008114612ceb576040519150601f19603f3d011682016040523d82523d6000602084013e612cf0565b606091505b50600081511415612d36576040517f08c379a0000000000000000000000000000000000000000000000000000000008152600401612d2d9061387f565b60405180910390fd5b805181602001fd5b63150b7a0260e01b7bffffffffffffffffffffffffffffffffffffffffffffffffffffffff1916817bffffffffffffffffffffffffffffffffffffffffffffffffffffffff191614915050612d93565b600190505b949350505050565b6000808273ffffffffffffffffffffffffffffffffffffffff163b119050919050565b6000612dd1612dcc84613be8565b613bc3565b90508083825260208201905082856020860282011115612df057600080fd5b60005b85811015612e205781612e068882612ebc565b845260208401935060208301925050600181019050612df3565b5050509392505050565b6000612e3d612e3884613c14565b613bc3565b905082815260208101848484011115612e5557600080fd5b612e60848285613e1b565b509392505050565b600081359050612e77816146cc565b92915050565b600082601f830112612e8e57600080fd5b8135612e9e848260208601612dbe565b91505092915050565b600081359050612eb6816146e3565b92915050565b600081359050612ecb816146fa565b92915050565b600081359050612ee081614711565b92915050565b600081519050612ef581614711565b92915050565b600082601f830112612f0c57600080fd5b8135612f1c848260208601612e2a565b91505092915050565b600081359050612f3481614728565b92915050565b600060208284031215612f4c57600080fd5b6000612f5a84828501612e68565b91505092915050565b60008060408385031215612f7657600080fd5b6000612f8485828601612e68565b9250506020612f9585828601612e68565b9150509250929050565b600080600060608486031215612fb457600080fd5b6000612fc286828701612e68565b9350506020612fd386828701612e68565b9250506040612fe486828701612f25565b9150509250925092565b6000806000806080858703121561300457600080fd5b600061301287828801612e68565b945050602061302387828801612e68565b935050604061303487828801612f25565b925050606085013567ffffffffffffffff81111561305157600080fd5b61305d87828801612efb565b91505092959194509250565b6000806040838503121561307c57600080fd5b600061308a85828601612e68565b925050602061309b85828601612ea7565b9150509250929050565b600080604083850312156130b857600080fd5b60006130c685828601612e68565b92505060206130d785828601612f25565b9150509250929050565b600080600080608085870312156130f757600080fd5b600061310587828801612e68565b945050602061311687828801612f25565b935050604085013567ffffffffffffffff81111561313357600080fd5b61313f87828801612e7d565b925050606061315087828801612f25565b91505092959194509250565b60008060006060848603121561317157600080fd5b600061317f86828701612ebc565b935050602061319086828701612f25565b925050604084013567ffffffffffffffff8111156131ad57600080fd5b6131b986828701612e7d565b9150509250925092565b6000602082840312156131d557600080fd5b60006131e384828501612ed1565b91505092915050565b6000602082840312156131fe57600080fd5b600061320c84828501612ee6565b91505092915050565b60006020828403121561322757600080fd5b600061323584828501612f25565b91505092915050565b6000806040838503121561325157600080fd5b600061325f85828601612f25565b925050602061327085828601612ebc565b9150509250929050565b61328381613d9d565b82525050565b61329a61329582613d9d565b613f09565b82525050565b6132a981613daf565b82525050565b6132b881613dbb565b82525050565b6132cf6132ca82613dbb565b613f1b565b82525050565b60006132e082613c45565b6132ea8185613c5b565b93506132fa818560208601613e2a565b61330381614024565b840191505092915050565b600061331982613c50565b6133238185613c6c565b9350613333818560208601613e2a565b61333c81614024565b840191505092915050565b600061335282613c50565b61335c8185613c7d565b935061336c818560208601613e2a565b80840191505092915050565b6000613385602583613c6c565b915061339082614042565b604082019050919050565b60006133a8603283613c6c565b91506133b382614091565b604082019050919050565b60006133cb602183613c6c565b91506133d6826140e0565b604082019050919050565b60006133ee602683613c6c565b91506133f98261412f565b604082019050919050565b6000613411602583613c6c565b915061341c8261417e565b604082019050919050565b6000613434601c83613c6c565b915061343f826141cd565b602082019050919050565b6000613457602983613c6c565b9150613462826141f6565b604082019050919050565b600061347a602483613c6c565b915061348582614245565b604082019050919050565b600061349d601983613c6c565b91506134a882614294565b602082019050919050565b60006134c0602c83613c6c565b91506134cb826142bd565b604082019050919050565b60006134e3603283613c6c565b91506134ee8261430c565b604082019050919050565b6000613506603883613c6c565b91506135118261435b565b604082019050919050565b6000613529600f83613c6c565b9150613534826143aa565b602082019050919050565b600061354c602a83613c6c565b9150613557826143d3565b604082019050919050565b600061356f602983613c6c565b915061357a82614422565b604082019050919050565b6000613592602083613c6c565b915061359d82614471565b602082019050919050565b60006135b5602c83613c6c565b91506135c08261449a565b604082019050919050565b60006135d8600583613c7d565b91506135e3826144e9565b600582019050919050565b60006135fb601483613c6c565b915061360682614512565b602082019050919050565b600061361e602083613c6c565b91506136298261453b565b602082019050919050565b6000613641601783613c6c565b915061364c82614564565b602082019050919050565b6000613664602f83613c6c565b915061366f8261458d565b604082019050919050565b6000613687602183613c6c565b9150613692826145dc565b604082019050919050565b60006136aa601f83613c6c565b91506136b58261462b565b602082019050919050565b60006136cd603183613c6c565b91506136d882614654565b604082019050919050565b60006136f0601883613c6c565b91506136fb826146a3565b602082019050919050565b61370f81613e11565b82525050565b60006137218284613289565b60148201915081905092915050565b600061373c82856132be565b60208201915061374c82846132be565b6020820191508190509392505050565b60006137688285613347565b91506137748284613347565b915061377f826135cb565b91508190509392505050565b60006020820190506137a0600083018461327a565b92915050565b60006080820190506137bb600083018761327a565b6137c8602083018661327a565b6137d56040830185613706565b81810360608301526137e781846132d5565b905095945050505050565b600060208201905061380760008301846132a0565b92915050565b60006020820190508181036000830152613827818461330e565b905092915050565b60006040820190508181036000830152613849818561330e565b90506138586020830184613706565b9392505050565b6000602082019050818103600083015261387881613378565b9050919050565b600060208201905081810360008301526138988161339b565b9050919050565b600060208201905081810360008301526138b8816133be565b9050919050565b600060208201905081810360008301526138d8816133e1565b9050919050565b600060208201905081810360008301526138f881613404565b9050919050565b6000602082019050818103600083015261391881613427565b9050919050565b600060208201905081810360008301526139388161344a565b9050919050565b600060208201905081810360008301526139588161346d565b9050919050565b6000602082019050818103600083015261397881613490565b9050919050565b60006020820190508181036000830152613998816134b3565b9050919050565b600060208201905081810360008301526139b8816134d6565b9050919050565b600060208201905081810360008301526139d8816134f9565b9050919050565b600060208201905081810360008301526139f88161351c565b9050919050565b60006020820190508181036000830152613a188161353f565b9050919050565b60006020820190508181036000830152613a3881613562565b9050919050565b60006020820190508181036000830152613a5881613585565b9050919050565b60006020820190508181036000830152613a78816135a8565b9050919050565b60006020820190508181036000830152613a98816135ee565b9050919050565b60006020820190508181036000830152613ab881613611565b9050919050565b60006020820190508181036000830152613ad881613634565b9050919050565b60006020820190508181036000830152613af881613657565b9050919050565b60006020820190508181036000830152613b188161367a565b9050919050565b60006020820190508181036000830152613b388161369d565b9050919050565b60006020820190508181036000830152613b58816136c0565b9050919050565b60006020820190508181036000830152613b78816136e3565b9050919050565b6000602082019050613b946000830184613706565b92915050565b6000604082019050613baf6000830185613706565b613bbc60208301846132af565b9392505050565b6000613bcd613bde565b9050613bd98282613e8f565b919050565b6000604051905090565b600067ffffffffffffffff821115613c0357613c02613ff5565b5b602082029050602081019050919050565b600067ffffffffffffffff821115613c2f57613c2e613ff5565b5b613c3882614024565b9050602081019050919050565b600081519050919050565b600081519050919050565b600082825260208201905092915050565b600082825260208201905092915050565b600081905092915050565b6000613c9382613e11565b9150613c9e83613e11565b9250827fffffffffffffffffffffffffffffffffffffffffffffffffffffffffffffffff03821115613cd357613cd2613f68565b5b828201905092915050565b6000613ce982613e11565b9150613cf483613e11565b925082613d0457613d03613f97565b5b828204905092915050565b6000613d1a82613e11565b9150613d2583613e11565b9250817fffffffffffffffffffffffffffffffffffffffffffffffffffffffffffffffff0483118215151615613d5e57613d5d613f68565b5b828202905092915050565b6000613d7482613e11565b9150613d7f83613e11565b925082821015613d9257613d91613f68565b5b828203905092915050565b6000613da882613df1565b9050919050565b60008115159050919050565b6000819050919050565b60007fffffffff0000000000000000000000000000000000000000000000000000000082169050919050565b600073ffffffffffffffffffffffffffffffffffffffff82169050919050565b6000819050919050565b82818337600083830152505050565b60005b83811015613e48578082015181840152602081019050613e2d565b83811115613e57576000848401525b50505050565b60006002820490506001821680613e7557607f821691505b60208210811415613e8957613e88613fc6565b5b50919050565b613e9882614024565b810181811067ffffffffffffffff82111715613eb757613eb6613ff5565b5b80604052505050565b6000613ecb82613e11565b91507fffffffffffffffffffffffffffffffffffffffffffffffffffffffffffffffff821415613efe57613efd613f68565b5b600182019050919050565b6000613f1482613f25565b9050919050565b6000819050919050565b6000613f3082614035565b9050919050565b6000613f4282613e11565b9150613f4d83613e11565b925082613f5d57613f5c613f97565b5b828206905092915050565b7f4e487b7100000000000000000000000000000000000000000000000000000000600052601160045260246000fd5b7f4e487b7100000000000000000000000000000000000000000000000000000000600052601260045260246000fd5b7f4e487b7100000000000000000000000000000000000000000000000000000000600052602260045260246000fd5b7f4e487b7100000000000000000000000000000000000000000000000000000000600052604160045260246000fd5b6000601f19601f8301169050919050565b60008160601b9050919050565b7f596f752061726520746f6f206c6174652c2070726573616c652069732066696e60008201527f6973686564000000000000000000000000000000000000000000000000000000602082015250565b7f4552433732313a207472616e7366657220746f206e6f6e20455243373231526560008201527f63656976657220696d706c656d656e7465720000000000000000000000000000602082015250565b7f5468657265206172656e277420656e6f756768206e66747320666f7220796f7560008201527f2100000000000000000000000000000000000000000000000000000000000000602082015250565b7f4f776e61626c653a206e6577206f776e657220697320746865207a65726f206160008201527f6464726573730000000000000000000000000000000000000000000000000000602082015250565b7f4552433732313a207472616e736665722066726f6d20696e636f72726563742060008201527f6f776e6572000000000000000000000000000000000000000000000000000000602082015250565b7f4552433732313a20746f6b656e20616c7265616479206d696e74656400000000600082015250565b7f546865726520617265206c65737320736865657473206c656674207468616e2060008201527f796f752077616e74210000000000000000000000000000000000000000000000602082015250565b7f4552433732313a207472616e7366657220746f20746865207a65726f2061646460008201527f7265737300000000000000000000000000000000000000000000000000000000602082015250565b7f4552433732313a20617070726f766520746f2063616c6c657200000000000000600082015250565b7f4552433732313a206f70657261746f7220717565727920666f72206e6f6e657860008201527f697374656e7420746f6b656e0000000000000000000000000000000000000000602082015250565b7f596f752063616e204e4f5420627579206d6f7265207468616e205f7075626c6960008201527f634d696e744c696d697420736865657473210000000000000000000000000000602082015250565b7f4552433732313a20617070726f76652063616c6c6572206973206e6f74206f7760008201527f6e6572206e6f7220617070726f76656420666f7220616c6c0000000000000000602082015250565b7f4e6f742077686974656c69737465640000000000000000000000000000000000600082015250565b7f4552433732313a2062616c616e636520717565727920666f7220746865207a6560008201527f726f206164647265737300000000000000000000000000000000000000000000602082015250565b7f4552433732313a206f776e657220717565727920666f72206e6f6e657869737460008201527f656e7420746f6b656e0000000000000000000000000000000000000000000000602082015250565b7f4552433732313a206d696e7420746f20746865207a65726f2061646472657373600082015250565b7f4552433732313a20617070726f76656420717565727920666f72206e6f6e657860008201527f697374656e7420746f6b656e0000000000000000000000000000000000000000602082015250565b7f2e6a736f6e000000000000000000000000000000000000000000000000000000600082015250565b7f4d6f6e6579206973206e6f7420656e6f75676821000000000000000000000000600082015250565b7f4f776e61626c653a2063616c6c6572206973206e6f7420746865206f776e6572600082015250565b7f4d696e7420616d6f756e74206c696d69746174696f6e21000000000000000000600082015250565b7f4552433732314d657461646174613a2055524920717565727920666f72206e6f60008201527f6e6578697374656e7420746f6b656e0000000000000000000000000000000000602082015250565b7f4552433732313a20617070726f76616c20746f2063757272656e74206f776e6560008201527f7200000000000000000000000000000000000000000000000000000000000000602082015250565b7f5075626c6963206d696e74206973206e6f742073746172746564207965742100600082015250565b7f4552433732313a207472616e736665722063616c6c6572206973206e6f74206f60008201527f776e6572206e6f7220617070726f766564000000000000000000000000000000602082015250565b7f50726573616c65206973206e6f7420737570706f746564210000000000000000600082015250565b6146d581613d9d565b81146146e057600080fd5b50565b6146ec81613daf565b81146146f757600080fd5b50565b61470381613dbb565b811461470e57600080fd5b50565b61471a81613dc5565b811461472557600080fd5b50565b61473181613e11565b811461473c57600080fd5b5056fea26469706673582212207637658b36a144e707d1b3d1aa89030b27fa44c716c5398b9cb20b3623feacac64736f6c63430008040033",
  "linkReferences": {},
  "deployedLinkReferences": {}
}