{
  "_format": "hh-sol-artifact-1",
  "contractName": "AirdropHouses",
  "sourceName": "contracts/AirdropHouses.sol",
  "abi": [
    {
      "inputs": [],
      "stateMutability": "nonpayable",
      "type": "constructor"
    },
    {
      "anonymous": false,
      "inputs": [
        {
          "indexed": true,
          "internalType": "address",
          "name": "owner",
          "type": "address"
        },
        {
          "indexed": true,
          "internalType": "address",
          "name": "approved",
          "type": "address"
        },
        {
          "indexed": true,
          "internalType": "uint256",
          "name": "tokenId",
          "type": "uint256"
        }
      ],
      "name": "Approval",
      "type": "event"
    },
    {
      "anonymous": false,
      "inputs": [
        {
          "indexed": true,
          "internalType": "address",
          "name": "owner",
          "type": "address"
        },
        {
          "indexed": true,
          "internalType": "address",
          "name": "operator",
          "type": "address"
        },
        {
          "indexed": false,
          "internalType": "bool",
          "name": "approved",
          "type": "bool"
        }
      ],
      "name": "ApprovalForAll",
      "type": "event"
    },
    {
      "anonymous": false,
      "inputs": [
        {
          "indexed": false,
          "internalType": "string",
          "name": "newURI",
          "type": "string"
        }
      ],
      "name": "BaseURIChanged",
      "type": "event"
    },
    {
      "anonymous": false,
      "inputs": [
        {
          "indexed": false,
          "internalType": "uint256",
          "name": "_batchDuration",
          "type": "uint256"
        }
      ],
      "name": "BatchDurationChanged",
      "type": "event"
    },
    {
      "anonymous": false,
      "inputs": [
        {
          "indexed": false,
          "internalType": "uint256",
          "name": "_groupNum",
          "type": "uint256"
        },
        {
          "indexed": false,
          "internalType": "bytes32",
          "name": "_merkleRoot",
          "type": "bytes32"
        }
      ],
      "name": "MerkelRootChanged",
      "type": "event"
    },
    {
      "anonymous": false,
      "inputs": [
        {
          "indexed": true,
          "internalType": "address",
          "name": "_to",
          "type": "address"
        },
        {
          "indexed": false,
          "internalType": "uint256",
          "name": "_number",
          "type": "uint256"
        }
      ],
      "name": "MintNFT",
      "type": "event"
    },
    {
      "anonymous": false,
      "inputs": [
        {
          "indexed": true,
          "internalType": "address",
          "name": "previousOwner",
          "type": "address"
        },
        {
          "indexed": true,
          "internalType": "address",
          "name": "newOwner",
          "type": "address"
        }
      ],
      "name": "OwnershipTransferred",
      "type": "event"
    },
    {
      "anonymous": false,
      "inputs": [
        {
          "indexed": false,
          "internalType": "bool",
          "name": "reveal",
          "type": "bool"
        }
      ],
      "name": "Reveal",
      "type": "event"
    },
    {
      "anonymous": false,
      "inputs": [
        {
          "indexed": false,
          "internalType": "uint256",
          "name": "_risingPrice",
          "type": "uint256"
        }
      ],
      "name": "RisingPriceChanged",
      "type": "event"
    },
    {
      "anonymous": false,
      "inputs": [
        {
          "indexed": false,
          "internalType": "uint256",
          "name": "_saleMode",
          "type": "uint256"
        }
      ],
      "name": "SaleModeChanged",
      "type": "event"
    },
    {
      "anonymous": false,
      "inputs": [
        {
          "indexed": false,
          "internalType": "uint256",
          "name": "_sheetsPerPrice",
          "type": "uint256"
        }
      ],
      "name": "SheetsPerPriceChanged",
      "type": "event"
    },
    {
      "anonymous": false,
      "inputs": [
        {
          "indexed": false,
          "internalType": "uint256",
          "name": "startDate",
          "type": "uint256"
        }
      ],
      "name": "StartDateChanged",
      "type": "event"
    },
    {
      "anonymous": false,
      "inputs": [
        {
          "indexed": true,
          "internalType": "address",
          "name": "from",
          "type": "address"
        },
        {
          "indexed": true,
          "internalType": "address",
          "name": "to",
          "type": "address"
        },
        {
          "indexed": true,
          "internalType": "uint256",
          "name": "tokenId",
          "type": "uint256"
        }
      ],
      "name": "Transfer",
      "type": "event"
    },
    {
      "anonymous": false,
      "inputs": [
        {
          "indexed": false,
          "internalType": "uint256",
          "name": "_publicMintLimit",
          "type": "uint256"
        }
      ],
      "name": "publicMintLimitChanged",
      "type": "event"
    },
    {
      "inputs": [
        {
          "internalType": "address",
          "name": "to",
          "type": "address"
        },
        {
          "internalType": "uint256",
          "name": "tokenId",
          "type": "uint256"
        }
      ],
      "name": "approve",
      "outputs": [],
      "stateMutability": "nonpayable",
      "type": "function"
    },
    {
      "inputs": [
        {
          "internalType": "address",
          "name": "owner",
          "type": "address"
        }
      ],
      "name": "balanceOf",
      "outputs": [
        {
          "internalType": "uint256",
          "name": "",
          "type": "uint256"
        }
      ],
      "stateMutability": "view",
      "type": "function"
    },
    {
      "inputs": [],
      "name": "batchDuration",
      "outputs": [
        {
          "internalType": "uint256",
          "name": "",
          "type": "uint256"
        }
      ],
      "stateMutability": "view",
      "type": "function"
    },
    {
      "inputs": [],
      "name": "count",
      "outputs": [
        {
          "internalType": "uint256",
          "name": "",
          "type": "uint256"
        }
      ],
      "stateMutability": "view",
      "type": "function"
    },
    {
      "inputs": [],
      "name": "fromLastPriceTimeToNow",
      "outputs": [
        {
          "internalType": "uint256",
          "name": "",
          "type": "uint256"
        }
      ],
      "stateMutability": "view",
      "type": "function"
    },
    {
      "inputs": [
        {
          "internalType": "uint256",
          "name": "tokenId",
          "type": "uint256"
        }
      ],
      "name": "getApproved",
      "outputs": [
        {
          "internalType": "address",
          "name": "",
          "type": "address"
        }
      ],
      "stateMutability": "view",
      "type": "function"
    },
    {
      "inputs": [],
      "name": "getBatchNum",
      "outputs": [
        {
          "internalType": "uint256",
          "name": "",
          "type": "uint256"
        }
      ],
      "stateMutability": "view",
      "type": "function"
    },
    {
      "inputs": [],
      "name": "getCurrentTimestamp",
      "outputs": [
        {
          "internalType": "uint256",
          "name": "",
          "type": "uint256"
        }
      ],
      "stateMutability": "view",
      "type": "function"
    },
    {
      "inputs": [],
      "name": "getLeftPresale",
      "outputs": [
        {
          "internalType": "uint256",
          "name": "",
          "type": "uint256"
        }
      ],
      "stateMutability": "view",
      "type": "function"
    },
    {
      "inputs": [],
      "name": "getTimePast",
      "outputs": [
        {
          "internalType": "uint256",
          "name": "",
          "type": "uint256"
        }
      ],
      "stateMutability": "view",
      "type": "function"
    },
    {
      "inputs": [
        {
          "internalType": "address",
          "name": "owner",
          "type": "address"
        },
        {
          "internalType": "address",
          "name": "operator",
          "type": "address"
        }
      ],
      "name": "isApprovedForAll",
      "outputs": [
        {
          "internalType": "bool",
          "name": "",
          "type": "bool"
        }
      ],
      "stateMutability": "view",
      "type": "function"
    },
    {
      "inputs": [],
      "name": "name",
      "outputs": [
        {
          "internalType": "string",
          "name": "",
          "type": "string"
        }
      ],
      "stateMutability": "view",
      "type": "function"
    },
    {
      "inputs": [],
      "name": "owner",
      "outputs": [
        {
          "internalType": "address",
          "name": "",
          "type": "address"
        }
      ],
      "stateMutability": "view",
      "type": "function"
    },
    {
      "inputs": [
        {
          "internalType": "uint256",
          "name": "tokenId",
          "type": "uint256"
        }
      ],
      "name": "ownerOf",
      "outputs": [
        {
          "internalType": "address",
          "name": "",
          "type": "address"
        }
      ],
      "stateMutability": "view",
      "type": "function"
    },
    {
      "inputs": [
        {
          "internalType": "address",
          "name": "recipiant",
          "type": "address"
        },
        {
          "internalType": "uint256",
          "name": "number",
          "type": "uint256"
        }
      ],
      "name": "payToMint",
      "outputs": [],
      "stateMutability": "payable",
      "type": "function"
    },
    {
      "inputs": [
        {
          "internalType": "address",
          "name": "recipiant",
          "type": "address"
        },
        {
          "internalType": "uint256",
          "name": "limit",
          "type": "uint256"
        },
        {
          "internalType": "bytes32[]",
          "name": "proof",
          "type": "bytes32[]"
        },
        {
          "internalType": "uint256",
          "name": "number",
          "type": "uint256"
        }
      ],
      "name": "payToWhiteMint",
      "outputs": [],
      "stateMutability": "payable",
      "type": "function"
    },
    {
      "inputs": [],
      "name": "price",
      "outputs": [
        {
          "internalType": "uint256",
          "name": "",
          "type": "uint256"
        }
      ],
      "stateMutability": "view",
      "type": "function"
    },
    {
      "inputs": [],
      "name": "renounceOwnership",
      "outputs": [],
      "stateMutability": "nonpayable",
      "type": "function"
    },
    {
      "inputs": [
        {
          "internalType": "address",
          "name": "to",
          "type": "address"
        },
        {
          "internalType": "uint256",
          "name": "number",
          "type": "uint256"
        }
      ],
      "name": "safeMint",
      "outputs": [],
      "stateMutability": "nonpayable",
      "type": "function"
    },
    {
      "inputs": [
        {
          "internalType": "address",
          "name": "from",
          "type": "address"
        },
        {
          "internalType": "address",
          "name": "to",
          "type": "address"
        },
        {
          "internalType": "uint256",
          "name": "tokenId",
          "type": "uint256"
        }
      ],
      "name": "safeTransferFrom",
      "outputs": [],
      "stateMutability": "nonpayable",
      "type": "function"
    },
    {
      "inputs": [
        {
          "internalType": "address",
          "name": "from",
          "type": "address"
        },
        {
          "internalType": "address",
          "name": "to",
          "type": "address"
        },
        {
          "internalType": "uint256",
          "name": "tokenId",
          "type": "uint256"
        },
        {
          "internalType": "bytes",
          "name": "_data",
          "type": "bytes"
        }
      ],
      "name": "safeTransferFrom",
      "outputs": [],
      "stateMutability": "nonpayable",
      "type": "function"
    },
    {
      "inputs": [],
      "name": "saleMode",
      "outputs": [
        {
          "internalType": "uint256",
          "name": "",
          "type": "uint256"
        }
      ],
      "stateMutability": "view",
      "type": "function"
    },
    {
      "inputs": [
        {
          "internalType": "address",
          "name": "operator",
          "type": "address"
        },
        {
          "internalType": "bool",
          "name": "approved",
          "type": "bool"
        }
      ],
      "name": "setApprovalForAll",
      "outputs": [],
      "stateMutability": "nonpayable",
      "type": "function"
    },
    {
      "inputs": [
        {
          "internalType": "string",
          "name": "newURI",
          "type": "string"
        }
      ],
      "name": "setBaseURI",
      "outputs": [],
      "stateMutability": "nonpayable",
      "type": "function"
    },
    {
      "inputs": [
        {
          "internalType": "uint256",
          "name": "batchNum",
          "type": "uint256"
        },
        {
          "internalType": "uint256",
          "name": "groupNum",
          "type": "uint256"
        },
        {
          "internalType": "bytes32",
          "name": "merkleRoot",
          "type": "bytes32"
        }
      ],
      "name": "setMerkleRoot",
      "outputs": [],
      "stateMutability": "nonpayable",
      "type": "function"
    },
    {
      "inputs": [
        {
          "internalType": "uint256",
          "name": "publicMintLimit",
          "type": "uint256"
        }
      ],
      "name": "setPublicMintLimit",
      "outputs": [],
      "stateMutability": "nonpayable",
      "type": "function"
    },
    {
      "inputs": [
        {
          "internalType": "bool",
          "name": "reveal",
          "type": "bool"
        }
      ],
      "name": "setReveal",
      "outputs": [],
      "stateMutability": "nonpayable",
      "type": "function"
    },
    {
      "inputs": [
        {
          "internalType": "uint256",
          "name": "risingPrice",
          "type": "uint256"
        }
      ],
      "name": "setRisingPrice",
      "outputs": [],
      "stateMutability": "nonpayable",
      "type": "function"
    },
    {
      "inputs": [
        {
          "internalType": "uint256",
          "name": "mode",
          "type": "uint256"
        }
      ],
      "name": "setSaleMode",
      "outputs": [],
      "stateMutability": "nonpayable",
      "type": "function"
    },
    {
      "inputs": [
        {
          "internalType": "uint256",
          "name": "sheets",
          "type": "uint256"
        }
      ],
      "name": "setSheetsPerPrice",
      "outputs": [],
      "stateMutability": "nonpayable",
      "type": "function"
    },
    {
      "inputs": [
        {
          "internalType": "uint256",
          "name": "duration",
          "type": "uint256"
        }
      ],
      "name": "setTimePerBatch",
      "outputs": [],
      "stateMutability": "nonpayable",
      "type": "function"
    },
    {
      "inputs": [],
      "name": "sheetsPerPrice",
      "outputs": [
        {
          "internalType": "uint256",
          "name": "",
          "type": "uint256"
        }
      ],
      "stateMutability": "view",
      "type": "function"
    },
    {
      "inputs": [
        {
          "internalType": "bytes4",
          "name": "interfaceId",
          "type": "bytes4"
        }
      ],
      "name": "supportsInterface",
      "outputs": [
        {
          "internalType": "bool",
          "name": "",
          "type": "bool"
        }
      ],
      "stateMutability": "view",
      "type": "function"
    },
    {
      "inputs": [],
      "name": "symbol",
      "outputs": [
        {
          "internalType": "string",
          "name": "",
          "type": "string"
        }
      ],
      "stateMutability": "view",
      "type": "function"
    },
    {
      "inputs": [
        {
          "internalType": "uint256",
          "name": "index",
          "type": "uint256"
        }
      ],
      "name": "tokenByIndex",
      "outputs": [
        {
          "internalType": "uint256",
          "name": "",
          "type": "uint256"
        }
      ],
      "stateMutability": "view",
      "type": "function"
    },
    {
      "inputs": [
        {
          "internalType": "address",
          "name": "owner",
          "type": "address"
        },
        {
          "internalType": "uint256",
          "name": "index",
          "type": "uint256"
        }
      ],
      "name": "tokenOfOwnerByIndex",
      "outputs": [
        {
          "internalType": "uint256",
          "name": "",
          "type": "uint256"
        }
      ],
      "stateMutability": "view",
      "type": "function"
    },
    {
      "inputs": [
        {
          "internalType": "uint256",
          "name": "tokenId",
          "type": "uint256"
        }
      ],
      "name": "tokenURI",
      "outputs": [
        {
          "internalType": "string",
          "name": "",
          "type": "string"
        }
      ],
      "stateMutability": "view",
      "type": "function"
    },
    {
      "inputs": [],
      "name": "totalCount",
      "outputs": [
        {
          "internalType": "uint256",
          "name": "",
          "type": "uint256"
        }
      ],
      "stateMutability": "pure",
      "type": "function"
    },
    {
      "inputs": [],
      "name": "totalSupply",
      "outputs": [
        {
          "internalType": "uint256",
          "name": "",
          "type": "uint256"
        }
      ],
      "stateMutability": "view",
      "type": "function"
    },
    {
      "inputs": [
        {
          "internalType": "address",
          "name": "from",
          "type": "address"
        },
        {
          "internalType": "address",
          "name": "to",
          "type": "address"
        },
        {
          "internalType": "uint256",
          "name": "tokenId",
          "type": "uint256"
        }
      ],
      "name": "transferFrom",
      "outputs": [],
      "stateMutability": "nonpayable",
      "type": "function"
    },
    {
      "inputs": [
        {
          "internalType": "address",
          "name": "newOwner",
          "type": "address"
        }
      ],
      "name": "transferOwnership",
      "outputs": [],
      "stateMutability": "nonpayable",
      "type": "function"
    },
    {
      "inputs": [
        {
          "internalType": "uint256",
          "name": "batchNum",
          "type": "uint256"
        },
        {
          "internalType": "bytes32",
          "name": "leaf",
          "type": "bytes32"
        },
        {
          "internalType": "uint256",
          "name": "limit",
          "type": "uint256"
        },
        {
          "internalType": "bytes32[]",
          "name": "proof",
          "type": "bytes32[]"
        }
      ],
      "name": "verifyWhitelist",
      "outputs": [
        {
          "internalType": "bool",
          "name": "",
          "type": "bool"
        }
      ],
      "stateMutability": "view",
      "type": "function"
    },
    {
      "inputs": [],
      "name": "withdraw",
      "outputs": [],
      "stateMutability": "nonpayable",
      "type": "function"
    }
  ],
  "bytecode": "0x60806040526000600c55600f600e55601e600f556005601055600a601255610e10601355600560145560006015556000601760006101000a81548160ff021916908315150217905550604051806080016040528060598152602001620059fe605991396018908051906020019062000079929190620003f0565b503480156200008757600080fd5b506040518060400160405280600d81526020017f41697244726f70486f75736573000000000000000000000000000000000000008152506040518060400160405280600381526020017f414448000000000000000000000000000000000000000000000000000000000081525081600090805190602001906200010c929190620003f0565b50806001908051906020019062000125929190620003f0565b505050620001486200013c6200032260201b60201c565b6200032a60201b60201c565b7f96acecf251fdbb6eef35fde352b9afa11bdb198444de51d20aa190be3da3498f60001b600d6000600181526020019081526020016000206000600a8152602001908152602001600020819055507ff45563d140b2f28102755980ec9e98d1fa35a83720a38bbd0616d4e3016030a460001b600d600060018152602001908152602001600020600060078152602001908152602001600020819055507f86b477c107683bf6bcb4fc7da646b68bbeb71ac92d3e509fac621e0f8179561c60001b600d600060018152602001908152602001600020600060018152602001908152602001600020819055507f76871e49c2fb1d6cbcc657139c829cb7e7187b370ddddeaeb90ef60450f151e160001b600d600060028152602001908152602001600020600060058152602001908152602001600020819055507f7fe1f522b96df4e466cbe9dba168ef6be4722a57ecbb7afb85e4f251a671dc9060001b600d600060028152602001908152602001600020600060068152602001908152602001600020819055507ff7e14cb1df408269baef2f9dac5873cf0df451bd989680601f5b99b97fa5de4b60001b600d6000600381526020019081526020016000206000600781526020019081526020016000208190555062000505565b600033905090565b6000600a60009054906101000a900473ffffffffffffffffffffffffffffffffffffffff16905081600a60006101000a81548173ffffffffffffffffffffffffffffffffffffffff021916908373ffffffffffffffffffffffffffffffffffffffff1602179055508173ffffffffffffffffffffffffffffffffffffffff168173ffffffffffffffffffffffffffffffffffffffff167f8be0079c531659141344cd1fd0a4f28419497f9722a3daafe3b4186f6b6457e060405160405180910390a35050565b828054620003fe90620004a0565b90600052602060002090601f0160209004810192826200042257600085556200046e565b82601f106200043d57805160ff19168380011785556200046e565b828001600101855582156200046e579182015b828111156200046d57825182559160200191906001019062000450565b5b5090506200047d919062000481565b5090565b5b808211156200049c57600081600090555060010162000482565b5090565b60006002820490506001821680620004b957607f821691505b60208210811415620004d057620004cf620004d6565b5b50919050565b7f4e487b7100000000000000000000000000000000000000000000000000000000600052602260045260246000fd5b6154e980620005156000396000f3fe60806040526004361061025c5760003560e01c80635d0e2206116101445780639c9563a2116100b6578063c8713cc51161007a578063c8713cc5146108a4578063c87b56dd146108e1578063c95851801461091e578063e985e9c514610949578063ef3e067c14610986578063f2fde38b146109af5761025c565b80639c9563a2146107d3578063a035b1fe146107fe578063a144819414610829578063a22cb46514610852578063b88d4fde1461087b5761025c565b8063715018a611610108578063715018a6146106e9578063757415a4146107005780638da5cb5b14610729578063926af55f1461075457806395d89b411461077f5780639b961ceb146107aa5761025c565b80635d0e2206146105ff5780636352211e1461061b57806367d50920146106585780636c9230db1461068157806370a08231146106ac5761025c565b80631c82e523116101dd57806339b516aa116101a157806339b516aa146105055780633b31526a1461052e5780633ccfd60b1461055957806342842e0e146105705780634f6ccce71461059957806355f804b3146105d65761025c565b80631c82e5231461042057806323b872dd1461044b5780632a3f300c146104745780632f745c591461049d57806334eafb11146104da5761025c565b8063095ea7b311610224578063095ea7b31461035a5780630deed6a61461038357806312da217b146103ae57806318160ddd146103d95780631aa6fa0b146104045761025c565b806301ffc9a71461026157806306661abd1461029e57806306fdde03146102c95780630745e9ac146102f4578063081812fc1461031d575b600080fd5b34801561026d57600080fd5b5061028860048036038101906102839190613c8b565b6109d8565b60405161029591906143f2565b60405180910390f35b3480156102aa57600080fd5b506102b3610a52565b6040516102c091906147af565b60405180910390f35b3480156102d557600080fd5b506102de610a63565b6040516102eb919061440d565b60405180910390f35b34801561030057600080fd5b5061031b60048036038101906103169190613d1e565b610af5565b005b34801561032957600080fd5b50610344600480360381019061033f9190613d1e565b610bce565b604051610351919061438b565b60405180910390f35b34801561036657600080fd5b50610381600480360381019061037c9190613bab565b610c53565b005b34801561038f57600080fd5b50610398610d6b565b6040516103a591906147af565b60405180910390f35b3480156103ba57600080fd5b506103c3610d75565b6040516103d091906147af565b60405180910390f35b3480156103e557600080fd5b506103ee610db3565b6040516103fb91906147af565b60405180910390f35b61041e60048036038101906104199190613bab565b610dc0565b005b34801561042c57600080fd5b50610435610fa2565b60405161044291906147af565b60405180910390f35b34801561045757600080fd5b50610472600480360381019061046d9190613aa5565b610fb7565b005b34801561048057600080fd5b5061049b60048036038101906104969190613c62565b611017565b005b3480156104a957600080fd5b506104c460048036038101906104bf9190613bab565b6110e7565b6040516104d191906147af565b60405180910390f35b3480156104e657600080fd5b506104ef61118c565b6040516104fc91906147af565b60405180910390f35b34801561051157600080fd5b5061052c60048036038101906105279190613d1e565b611196565b005b34801561053a57600080fd5b50610543611253565b60405161055091906147af565b60405180910390f35b34801561056557600080fd5b5061056e6112c8565b005b34801561057c57600080fd5b5061059760048036038101906105929190613aa5565b61138d565b005b3480156105a557600080fd5b506105c060048036038101906105bb9190613d1e565b6113ad565b6040516105cd91906147af565b60405180910390f35b3480156105e257600080fd5b506105fd60048036038101906105f89190613cdd565b611444565b005b61061960048036038101906106149190613be7565b611511565b005b34801561062757600080fd5b50610642600480360381019061063d9190613d1e565b61180a565b60405161064f919061438b565b60405180910390f35b34801561066457600080fd5b5061067f600480360381019061067a9190613dc2565b6118bc565b005b34801561068d57600080fd5b5061069661199f565b6040516106a391906147af565b60405180910390f35b3480156106b857600080fd5b506106d360048036038101906106ce9190613a40565b6119a7565b6040516106e091906147af565b60405180910390f35b3480156106f557600080fd5b506106fe611a5f565b005b34801561070c57600080fd5b5061072760048036038101906107229190613d1e565b611ae7565b005b34801561073557600080fd5b5061073e611ba4565b60405161074b919061438b565b60405180910390f35b34801561076057600080fd5b50610769611bce565b60405161077691906147af565b60405180910390f35b34801561078b57600080fd5b50610794611bd8565b6040516107a1919061440d565b60405180910390f35b3480156107b657600080fd5b506107d160048036038101906107cc9190613d1e565b611c6a565b005b3480156107df57600080fd5b506107e8611d27565b6040516107f591906147af565b60405180910390f35b34801561080a57600080fd5b50610813611d31565b60405161082091906147af565b60405180910390f35b34801561083557600080fd5b50610850600480360381019061084b9190613bab565b611de4565b005b34801561085e57600080fd5b5061087960048036038101906108749190613b6f565b611f0d565b005b34801561088757600080fd5b506108a2600480360381019061089d9190613af4565b611f23565b005b3480156108b057600080fd5b506108cb60048036038101906108c69190613d47565b611f85565b6040516108d891906143f2565b60405180910390f35b3480156108ed57600080fd5b5061090860048036038101906109039190613d1e565b6120bc565b604051610915919061440d565b60405180910390f35b34801561092a57600080fd5b5061093361218d565b60405161094091906147af565b60405180910390f35b34801561095557600080fd5b50610970600480360381019061096b9190613a69565b6121a2565b60405161097d91906143f2565b60405180910390f35b34801561099257600080fd5b506109ad60048036038101906109a89190613d1e565b612236565b005b3480156109bb57600080fd5b506109d660048036038101906109d19190613a40565b6122f3565b005b60007f780e9d63000000000000000000000000000000000000000000000000000000007bffffffffffffffffffffffffffffffffffffffffffffffffffffffff1916827bffffffffffffffffffffffffffffffffffffffffffffffffffffffff19161480610a4b5750610a4a826123eb565b5b9050919050565b6000610a5e600b6124cd565b905090565b606060008054610a7290614abe565b80601f0160208091040260200160405190810160405280929190818152602001828054610a9e90614abe565b8015610aeb5780601f10610ac057610100808354040283529160200191610aeb565b820191906000526020600020905b815481529060010190602001808311610ace57829003601f168201915b5050505050905090565b610afd6124db565b73ffffffffffffffffffffffffffffffffffffffff16610b1b611ba4565b73ffffffffffffffffffffffffffffffffffffffff1614610b71576040517f08c379a0000000000000000000000000000000000000000000000000000000008152600401610b689061464f565b60405180910390fd5b80600c819055506001811415610b9457610b8a426124e3565b610b9342612524565b5b7fcab9c58670efd675f37069fb32cc379dbb18f1376b4f1d1a2d01404c55bf748281604051610bc391906147af565b60405180910390a150565b6000610bd98261252e565b610c18576040517f08c379a0000000000000000000000000000000000000000000000000000000008152600401610c0f9061460f565b60405180910390fd5b6004600083815260200190815260200160002060009054906101000a900473ffffffffffffffffffffffffffffffffffffffff169050919050565b6000610c5e8261180a565b90508073ffffffffffffffffffffffffffffffffffffffff168373ffffffffffffffffffffffffffffffffffffffff161415610ccf576040517f08c379a0000000000000000000000000000000000000000000000000000000008152600401610cc6906146af565b60405180910390fd5b8073ffffffffffffffffffffffffffffffffffffffff16610cee6124db565b73ffffffffffffffffffffffffffffffffffffffff161480610d1d5750610d1c81610d176124db565b6121a2565b5b610d5c576040517f08c379a0000000000000000000000000000000000000000000000000000000008152600401610d539061458f565b60405180910390fd5b610d66838361259a565b505050565b6000600c54905090565b6000806001601354610d85610fa2565b610d8f919061493f565b610d9991906148e9565b90506003811015610daa5780610dad565b60035b91505090565b6000600880549050905090565b6002600c5414610e05576040517f08c379a0000000000000000000000000000000000000000000000000000000008152600401610dfc906146cf565b60405180910390fd5b80610e0e611d31565b610e189190614970565b341015610e5a576040517f08c379a0000000000000000000000000000000000000000000000000000000008152600401610e519061462f565b60405180910390fd5b610e62610a52565b610e6a61118c565b610e7491906149ca565b811115610eb6576040517f08c379a0000000000000000000000000000000000000000000000000000000008152600401610ead906144ef565b60405180910390fd5b60145481610ec3846119a7565b610ecd91906148e9565b1115610f0e576040517f08c379a0000000000000000000000000000000000000000000000000000000008152600401610f059061456f565b60405180910390fd5b60005b81811015610f4f576000610f25600b6124cd565b9050610f31600b612653565b610f3b8482612669565b508080610f4790614b21565b915050610f11565b508173ffffffffffffffffffffffffffffffffffffffff167f1f89f147a58d1673945cf416187db98efc8208408c011b91887acd59fd8523c382604051610f9691906147af565b60405180910390a25050565b600060165442610fb291906149ca565b905090565b610fc8610fc26124db565b82612843565b611007576040517f08c379a0000000000000000000000000000000000000000000000000000000008152600401610ffe9061470f565b60405180910390fd5b611012838383612921565b505050565b61101f6124db565b73ffffffffffffffffffffffffffffffffffffffff1661103d611ba4565b73ffffffffffffffffffffffffffffffffffffffff1614611093576040517f08c379a000000000000000000000000000000000000000000000000000000000815260040161108a9061464f565b60405180910390fd5b80601760006101000a81548160ff0219169083151502179055507f311b8ddb573d97ab5a5590f8484e2573d2b1795203685605ba21e27cd69a3894816040516110dc91906143f2565b60405180910390a150565b60006110f2836119a7565b8210611133576040517f08c379a000000000000000000000000000000000000000000000000000000000815260040161112a9061444f565b60405180910390fd5b600660008473ffffffffffffffffffffffffffffffffffffffff1673ffffffffffffffffffffffffffffffffffffffff168152602001908152602001600020600083815260200190815260200160002054905092915050565b60006107d0905090565b61119e6124db565b73ffffffffffffffffffffffffffffffffffffffff166111bc611ba4565b73ffffffffffffffffffffffffffffffffffffffff1614611212576040517f08c379a00000000000000000000000000000000000000000000000000000000081526004016112099061464f565b60405180910390fd5b806010819055507f8495ad6bb8245e65bb8dce76e79f1fdc7908dddbd23453171745fbd6ad48e1868160405161124891906147af565b60405180910390a150565b600080601554611263600b6124cd565b61126d91906149ca565b9050600360125461127e9190614970565b811061128e5760009150506112c5565b6000611298610d75565b9050601254826112a89190614b98565b816012546112b69190614970565b6112c091906149ca565b925050505b90565b6112d06124db565b73ffffffffffffffffffffffffffffffffffffffff166112ee611ba4565b73ffffffffffffffffffffffffffffffffffffffff1614611344576040517f08c379a000000000000000000000000000000000000000000000000000000000815260040161133b9061464f565b60405180910390fd5b3373ffffffffffffffffffffffffffffffffffffffff166108fc479081150290604051600060405180830381858888f1935050505015801561138a573d6000803e3d6000fd5b50565b6113a883838360405180602001604052806000815250611f23565b505050565b60006113b7610db3565b82106113f8576040517f08c379a00000000000000000000000000000000000000000000000000000000081526004016113ef9061474f565b60405180910390fd5b60088281548110611432577f4e487b7100000000000000000000000000000000000000000000000000000000600052603260045260246000fd5b90600052602060002001549050919050565b61144c6124db565b73ffffffffffffffffffffffffffffffffffffffff1661146a611ba4565b73ffffffffffffffffffffffffffffffffffffffff16146114c0576040517f08c379a00000000000000000000000000000000000000000000000000000000081526004016114b79061464f565b60405180910390fd5b80601890805190602001906114d69291906137b9565b507f5411e8ebf1636d9e83d5fc4900bf80cbac82e8790da2a4c94db4895e889eedf681604051611506919061440d565b60405180910390a150565b6001600c5414611556576040517f08c379a000000000000000000000000000000000000000000000000000000000815260040161154d9061472f565b60405180910390fd5b60036012546115659190614970565b61156f600b6124cd565b106115af576040517f08c379a00000000000000000000000000000000000000000000000000000000081526004016115a6906146ef565b60405180910390fd5b601354600a6115be9190614970565b6115c6610fa2565b10611606576040517f08c379a00000000000000000000000000000000000000000000000000000000081526004016115fd9061442f565b60405180910390fd5b8061160f611d31565b6116199190614970565b34101561165b576040517f08c379a00000000000000000000000000000000000000000000000000000000081526004016116529061462f565b60405180910390fd5b8281611666866119a7565b61167091906148e9565b11156116b1576040517f08c379a00000000000000000000000000000000000000000000000000000000081526004016116a89061466f565b60405180910390fd5b806116ba611253565b10156116fb576040517f08c379a00000000000000000000000000000000000000000000000000000000081526004016116f29061478f565b60405180910390fd5b6000611718611708610d75565b61171187612b88565b8686611f85565b90508061175a576040517f08c379a00000000000000000000000000000000000000000000000000000000081526004016117519061468f565b60405180910390fd5b81611763611253565b14156117735761177242612524565b5b60005b828110156117b457600061178a600b6124cd565b9050611796600b612653565b6117a08782612669565b5080806117ac90614b21565b915050611776565b508473ffffffffffffffffffffffffffffffffffffffff167f1f89f147a58d1673945cf416187db98efc8208408c011b91887acd59fd8523c3836040516117fb91906147af565b60405180910390a25050505050565b6000806002600084815260200190815260200160002060009054906101000a900473ffffffffffffffffffffffffffffffffffffffff169050600073ffffffffffffffffffffffffffffffffffffffff168173ffffffffffffffffffffffffffffffffffffffff1614156118b3576040517f08c379a00000000000000000000000000000000000000000000000000000000081526004016118aa906145cf565b60405180910390fd5b80915050919050565b6118c46124db565b73ffffffffffffffffffffffffffffffffffffffff166118e2611ba4565b73ffffffffffffffffffffffffffffffffffffffff1614611938576040517f08c379a000000000000000000000000000000000000000000000000000000000815260040161192f9061464f565b60405180910390fd5b80600d60008581526020019081526020016000206000848152602001908152602001600020819055507f326c4fb4b40f17ba7e065a70f4368691128199363ab7a9a7e9677f50b2b5b13082826040516119929291906147ca565b60405180910390a1505050565b600042905090565b60008073ffffffffffffffffffffffffffffffffffffffff168273ffffffffffffffffffffffffffffffffffffffff161415611a18576040517f08c379a0000000000000000000000000000000000000000000000000000000008152600401611a0f906145af565b60405180910390fd5b600360008373ffffffffffffffffffffffffffffffffffffffff1673ffffffffffffffffffffffffffffffffffffffff168152602001908152602001600020549050919050565b611a676124db565b73ffffffffffffffffffffffffffffffffffffffff16611a85611ba4565b73ffffffffffffffffffffffffffffffffffffffff1614611adb576040517f08c379a0000000000000000000000000000000000000000000000000000000008152600401611ad29061464f565b60405180910390fd5b611ae56000612bb8565b565b611aef6124db565b73ffffffffffffffffffffffffffffffffffffffff16611b0d611ba4565b73ffffffffffffffffffffffffffffffffffffffff1614611b63576040517f08c379a0000000000000000000000000000000000000000000000000000000008152600401611b5a9061464f565b60405180910390fd5b806013819055507fe7d683309f8964a9b4e2b4fb63bea677e04453be654e25ed55ec6a458348f04081604051611b9991906147af565b60405180910390a150565b6000600a60009054906101000a900473ffffffffffffffffffffffffffffffffffffffff16905090565b6000601254905090565b606060018054611be790614abe565b80601f0160208091040260200160405190810160405280929190818152602001828054611c1390614abe565b8015611c605780601f10611c3557610100808354040283529160200191611c60565b820191906000526020600020905b815481529060010190602001808311611c4357829003601f168201915b5050505050905090565b611c726124db565b73ffffffffffffffffffffffffffffffffffffffff16611c90611ba4565b73ffffffffffffffffffffffffffffffffffffffff1614611ce6576040517f08c379a0000000000000000000000000000000000000000000000000000000008152600401611cdd9061464f565b60405180910390fd5b806012819055507f6bee2141d443a3d4859763efbb7f2c38181cf9d5dac82476eedf037736ca748681604051611d1c91906147af565b60405180910390a150565b6000601354905090565b600080600c541415611d4757600e549050611de1565b6002600c541415611d5c57600f549050611de1565b6000601254611d6b600b6124cd565b611d75919061493f565b905060006003601354611d86610fa2565b611d90919061493f565b611d9a919061493f565b90506000818311611dab5781611dad565b825b90506010546002821015611dc15781611dc4565b60025b611dce9190614970565b600e54611ddb91906148e9565b93505050505b90565b611dec6124db565b73ffffffffffffffffffffffffffffffffffffffff16611e0a611ba4565b73ffffffffffffffffffffffffffffffffffffffff1614611e60576040517f08c379a0000000000000000000000000000000000000000000000000000000008152600401611e579061464f565b60405180910390fd5b60005b81811015611ea1576000611e77600b6124cd565b9050611e83600b612653565b611e8d8482612c7e565b508080611e9990614b21565b915050611e63565b508060156000828254611eb491906148e9565b925050819055508173ffffffffffffffffffffffffffffffffffffffff167f1f89f147a58d1673945cf416187db98efc8208408c011b91887acd59fd8523c382604051611f0191906147af565b60405180910390a25050565b611f1f611f186124db565b8383612c9c565b5050565b611f34611f2e6124db565b83612843565b611f73576040517f08c379a0000000000000000000000000000000000000000000000000000000008152600401611f6a9061470f565b60405180910390fd5b611f7f84848484612e09565b50505050565b60008084905060005b8351811015612054576000848281518110611fd2577f4e487b7100000000000000000000000000000000000000000000000000000000600052603260045260246000fd5b6020026020010151905080831015612014578281604051602001611ff7929190614330565b604051602081830303815290604052805190602001209250612040565b8083604051602001612027929190614330565b6040516020818303038152906040528051906020012092505b50808061204c90614b21565b915050611f8e565b506000600190505b8681116120ad5781600d6000838152602001908152602001600020600087815260200190815260200160002054141561209a576001925050506120b4565b80806120a590614b21565b91505061205c565b5060009150505b949350505050565b60606120c78261252e565b612106576040517f08c379a00000000000000000000000000000000000000000000000000000000081526004016120fd9061476f565b60405180910390fd5b6000612110612e65565b9050601760009054906101000a900460ff1661212f5780915050612188565b600081511161214d5760405180602001604052806000815250612184565b8061216360018561215e91906148e9565b612ef7565b60405160200161217492919061435c565b6040516020818303038152906040525b9150505b919050565b60006011544261219d91906149ca565b905090565b6000600560008473ffffffffffffffffffffffffffffffffffffffff1673ffffffffffffffffffffffffffffffffffffffff16815260200190815260200160002060008373ffffffffffffffffffffffffffffffffffffffff1673ffffffffffffffffffffffffffffffffffffffff16815260200190815260200160002060009054906101000a900460ff16905092915050565b61223e6124db565b73ffffffffffffffffffffffffffffffffffffffff1661225c611ba4565b73ffffffffffffffffffffffffffffffffffffffff16146122b2576040517f08c379a00000000000000000000000000000000000000000000000000000000081526004016122a99061464f565b60405180910390fd5b806014819055507f925f0509f81489238c7d12ec8acec9e0cc410642391ee2a6ca38b3197637f89a816040516122e891906147af565b60405180910390a150565b6122fb6124db565b73ffffffffffffffffffffffffffffffffffffffff16612319611ba4565b73ffffffffffffffffffffffffffffffffffffffff161461236f576040517f08c379a00000000000000000000000000000000000000000000000000000000081526004016123669061464f565b60405180910390fd5b600073ffffffffffffffffffffffffffffffffffffffff168173ffffffffffffffffffffffffffffffffffffffff1614156123df576040517f08c379a00000000000000000000000000000000000000000000000000000000081526004016123d69061448f565b60405180910390fd5b6123e881612bb8565b50565b60007f80ac58cd000000000000000000000000000000000000000000000000000000007bffffffffffffffffffffffffffffffffffffffffffffffffffffffff1916827bffffffffffffffffffffffffffffffffffffffffffffffffffffffff191614806124b657507f5b5e139f000000000000000000000000000000000000000000000000000000007bffffffffffffffffffffffffffffffffffffffffffffffffffffffff1916827bffffffffffffffffffffffffffffffffffffffffffffffffffffffff1916145b806124c657506124c5826130a4565b5b9050919050565b600081600001549050919050565b600033905090565b806016819055507f340656eb96ec8f1ab4ba468e243fe2191f09ec5e2a832f96985750414221a7a58160405161251991906147af565b60405180910390a150565b8060118190555050565b60008073ffffffffffffffffffffffffffffffffffffffff166002600084815260200190815260200160002060009054906101000a900473ffffffffffffffffffffffffffffffffffffffff1673ffffffffffffffffffffffffffffffffffffffff1614159050919050565b816004600083815260200190815260200160002060006101000a81548173ffffffffffffffffffffffffffffffffffffffff021916908373ffffffffffffffffffffffffffffffffffffffff160217905550808273ffffffffffffffffffffffffffffffffffffffff1661260d8361180a565b73ffffffffffffffffffffffffffffffffffffffff167f8c5be1e5ebec7d5bd14f71427d1e84f3dd0314c0f7b2291e5b200ac8c7c3b92560405160405180910390a45050565b6001816000016000828254019250508190555050565b600073ffffffffffffffffffffffffffffffffffffffff168273ffffffffffffffffffffffffffffffffffffffff1614156126d9576040517f08c379a00000000000000000000000000000000000000000000000000000000081526004016126d0906145ef565b60405180910390fd5b6126e28161252e565b15612722576040517f08c379a0000000000000000000000000000000000000000000000000000000008152600401612719906144cf565b60405180910390fd5b61272e6000838361310e565b6001600360008473ffffffffffffffffffffffffffffffffffffffff1673ffffffffffffffffffffffffffffffffffffffff168152602001908152602001600020600082825461277e91906148e9565b92505081905550816002600083815260200190815260200160002060006101000a81548173ffffffffffffffffffffffffffffffffffffffff021916908373ffffffffffffffffffffffffffffffffffffffff160217905550808273ffffffffffffffffffffffffffffffffffffffff16600073ffffffffffffffffffffffffffffffffffffffff167fddf252ad1be2c89b69c2b068fc378daa952ba7f163c4a11628f55a4df523b3ef60405160405180910390a461283f60008383613222565b5050565b600061284e8261252e565b61288d576040517f08c379a00000000000000000000000000000000000000000000000000000000081526004016128849061454f565b60405180910390fd5b60006128988361180a565b90508073ffffffffffffffffffffffffffffffffffffffff168473ffffffffffffffffffffffffffffffffffffffff16148061290757508373ffffffffffffffffffffffffffffffffffffffff166128ef84610bce565b73ffffffffffffffffffffffffffffffffffffffff16145b80612918575061291781856121a2565b5b91505092915050565b8273ffffffffffffffffffffffffffffffffffffffff166129418261180a565b73ffffffffffffffffffffffffffffffffffffffff1614612997576040517f08c379a000000000000000000000000000000000000000000000000000000000815260040161298e906144af565b60405180910390fd5b600073ffffffffffffffffffffffffffffffffffffffff168273ffffffffffffffffffffffffffffffffffffffff161415612a07576040517f08c379a00000000000000000000000000000000000000000000000000000000081526004016129fe9061450f565b60405180910390fd5b612a1283838361310e565b612a1d60008261259a565b6001600360008573ffffffffffffffffffffffffffffffffffffffff1673ffffffffffffffffffffffffffffffffffffffff1681526020019081526020016000206000828254612a6d91906149ca565b925050819055506001600360008473ffffffffffffffffffffffffffffffffffffffff1673ffffffffffffffffffffffffffffffffffffffff1681526020019081526020016000206000828254612ac491906148e9565b92505081905550816002600083815260200190815260200160002060006101000a81548173ffffffffffffffffffffffffffffffffffffffff021916908373ffffffffffffffffffffffffffffffffffffffff160217905550808273ffffffffffffffffffffffffffffffffffffffff168473ffffffffffffffffffffffffffffffffffffffff167fddf252ad1be2c89b69c2b068fc378daa952ba7f163c4a11628f55a4df523b3ef60405160405180910390a4612b83838383613222565b505050565b600081604051602001612b9b9190614315565b604051602081830303815290604052805190602001209050919050565b6000600a60009054906101000a900473ffffffffffffffffffffffffffffffffffffffff16905081600a60006101000a81548173ffffffffffffffffffffffffffffffffffffffff021916908373ffffffffffffffffffffffffffffffffffffffff1602179055508173ffffffffffffffffffffffffffffffffffffffff168173ffffffffffffffffffffffffffffffffffffffff167f8be0079c531659141344cd1fd0a4f28419497f9722a3daafe3b4186f6b6457e060405160405180910390a35050565b612c98828260405180602001604052806000815250613227565b5050565b8173ffffffffffffffffffffffffffffffffffffffff168373ffffffffffffffffffffffffffffffffffffffff161415612d0b576040517f08c379a0000000000000000000000000000000000000000000000000000000008152600401612d029061452f565b60405180910390fd5b80600560008573ffffffffffffffffffffffffffffffffffffffff1673ffffffffffffffffffffffffffffffffffffffff16815260200190815260200160002060008473ffffffffffffffffffffffffffffffffffffffff1673ffffffffffffffffffffffffffffffffffffffff16815260200190815260200160002060006101000a81548160ff0219169083151502179055508173ffffffffffffffffffffffffffffffffffffffff168373ffffffffffffffffffffffffffffffffffffffff167f17307eab39ab6107e8899845ad3d59bd9653f200f220920489ca2b5937696c3183604051612dfc91906143f2565b60405180910390a3505050565b612e14848484612921565b612e2084848484613282565b612e5f576040517f08c379a0000000000000000000000000000000000000000000000000000000008152600401612e569061446f565b60405180910390fd5b50505050565b606060188054612e7490614abe565b80601f0160208091040260200160405190810160405280929190818152602001828054612ea090614abe565b8015612eed5780601f10612ec257610100808354040283529160200191612eed565b820191906000526020600020905b815481529060010190602001808311612ed057829003601f168201915b5050505050905090565b60606000821415612f3f576040518060400160405280600181526020017f3000000000000000000000000000000000000000000000000000000000000000815250905061309f565b600082905060005b60008214612f71578080612f5a90614b21565b915050600a82612f6a919061493f565b9150612f47565b60008167ffffffffffffffff811115612fb3577f4e487b7100000000000000000000000000000000000000000000000000000000600052604160045260246000fd5b6040519080825280601f01601f191660200182016040528015612fe55781602001600182028036833780820191505090505b5090505b6000851461309857600182612ffe91906149ca565b9150600a8561300d9190614b98565b603061301991906148e9565b60f81b818381518110613055577f4e487b7100000000000000000000000000000000000000000000000000000000600052603260045260246000fd5b60200101907effffffffffffffffffffffffffffffffffffffffffffffffffffffffffffff1916908160001a905350600a85613091919061493f565b9450612fe9565b8093505050505b919050565b60007f01ffc9a7000000000000000000000000000000000000000000000000000000007bffffffffffffffffffffffffffffffffffffffffffffffffffffffff1916827bffffffffffffffffffffffffffffffffffffffffffffffffffffffff1916149050919050565b613119838383613419565b600073ffffffffffffffffffffffffffffffffffffffff168373ffffffffffffffffffffffffffffffffffffffff16141561315c576131578161341e565b61319b565b8173ffffffffffffffffffffffffffffffffffffffff168373ffffffffffffffffffffffffffffffffffffffff161461319a576131998382613467565b5b5b600073ffffffffffffffffffffffffffffffffffffffff168273ffffffffffffffffffffffffffffffffffffffff1614156131de576131d9816135d4565b61321d565b8273ffffffffffffffffffffffffffffffffffffffff168273ffffffffffffffffffffffffffffffffffffffff161461321c5761321b8282613717565b5b5b505050565b505050565b6132318383612669565b61323e6000848484613282565b61327d576040517f08c379a00000000000000000000000000000000000000000000000000000000081526004016132749061446f565b60405180910390fd5b505050565b60006132a38473ffffffffffffffffffffffffffffffffffffffff16613796565b1561340c578373ffffffffffffffffffffffffffffffffffffffff1663150b7a026132cc6124db565b8786866040518563ffffffff1660e01b81526004016132ee94939291906143a6565b602060405180830381600087803b15801561330857600080fd5b505af192505050801561333957506040513d601f19601f820116820180604052508101906133369190613cb4565b60015b6133bc573d8060008114613369576040519150601f19603f3d011682016040523d82523d6000602084013e61336e565b606091505b506000815114156133b4576040517f08c379a00000000000000000000000000000000000000000000000000000000081526004016133ab9061446f565b60405180910390fd5b805181602001fd5b63150b7a0260e01b7bffffffffffffffffffffffffffffffffffffffffffffffffffffffff1916817bffffffffffffffffffffffffffffffffffffffffffffffffffffffff191614915050613411565b600190505b949350505050565b505050565b6008805490506009600083815260200190815260200160002081905550600881908060018154018082558091505060019003906000526020600020016000909190919091505550565b60006001613474846119a7565b61347e91906149ca565b9050600060076000848152602001908152602001600020549050818114613563576000600660008673ffffffffffffffffffffffffffffffffffffffff1673ffffffffffffffffffffffffffffffffffffffff168152602001908152602001600020600084815260200190815260200160002054905080600660008773ffffffffffffffffffffffffffffffffffffffff1673ffffffffffffffffffffffffffffffffffffffff168152602001908152602001600020600084815260200190815260200160002081905550816007600083815260200190815260200160002081905550505b6007600084815260200190815260200160002060009055600660008573ffffffffffffffffffffffffffffffffffffffff1673ffffffffffffffffffffffffffffffffffffffff16815260200190815260200160002060008381526020019081526020016000206000905550505050565b600060016008805490506135e891906149ca565b905060006009600084815260200190815260200160002054905060006008838154811061363e577f4e487b7100000000000000000000000000000000000000000000000000000000600052603260045260246000fd5b906000526020600020015490508060088381548110613686577f4e487b7100000000000000000000000000000000000000000000000000000000600052603260045260246000fd5b9060005260206000200181905550816009600083815260200190815260200160002081905550600960008581526020019081526020016000206000905560088054806136fb577f4e487b7100000000000000000000000000000000000000000000000000000000600052603160045260246000fd5b6001900381819060005260206000200160009055905550505050565b6000613722836119a7565b905081600660008573ffffffffffffffffffffffffffffffffffffffff1673ffffffffffffffffffffffffffffffffffffffff168152602001908152602001600020600083815260200190815260200160002081905550806007600084815260200190815260200160002081905550505050565b6000808273ffffffffffffffffffffffffffffffffffffffff163b119050919050565b8280546137c590614abe565b90600052602060002090601f0160209004810192826137e7576000855561382e565b82601f1061380057805160ff191683800117855561382e565b8280016001018555821561382e579182015b8281111561382d578251825591602001919060010190613812565b5b50905061383b919061383f565b5090565b5b80821115613858576000816000905550600101613840565b5090565b600061386f61386a84614818565b6147f3565b9050808382526020820190508285602086028201111561388e57600080fd5b60005b858110156138be57816138a48882613998565b845260208401935060208301925050600181019050613891565b5050509392505050565b60006138db6138d684614844565b6147f3565b9050828152602081018484840111156138f357600080fd5b6138fe848285614a7c565b509392505050565b600061391961391484614875565b6147f3565b90508281526020810184848401111561393157600080fd5b61393c848285614a7c565b509392505050565b60008135905061395381615440565b92915050565b600082601f83011261396a57600080fd5b813561397a84826020860161385c565b91505092915050565b60008135905061399281615457565b92915050565b6000813590506139a78161546e565b92915050565b6000813590506139bc81615485565b92915050565b6000815190506139d181615485565b92915050565b600082601f8301126139e857600080fd5b81356139f88482602086016138c8565b91505092915050565b600082601f830112613a1257600080fd5b8135613a22848260208601613906565b91505092915050565b600081359050613a3a8161549c565b92915050565b600060208284031215613a5257600080fd5b6000613a6084828501613944565b91505092915050565b60008060408385031215613a7c57600080fd5b6000613a8a85828601613944565b9250506020613a9b85828601613944565b9150509250929050565b600080600060608486031215613aba57600080fd5b6000613ac886828701613944565b9350506020613ad986828701613944565b9250506040613aea86828701613a2b565b9150509250925092565b60008060008060808587031215613b0a57600080fd5b6000613b1887828801613944565b9450506020613b2987828801613944565b9350506040613b3a87828801613a2b565b925050606085013567ffffffffffffffff811115613b5757600080fd5b613b63878288016139d7565b91505092959194509250565b60008060408385031215613b8257600080fd5b6000613b9085828601613944565b9250506020613ba185828601613983565b9150509250929050565b60008060408385031215613bbe57600080fd5b6000613bcc85828601613944565b9250506020613bdd85828601613a2b565b9150509250929050565b60008060008060808587031215613bfd57600080fd5b6000613c0b87828801613944565b9450506020613c1c87828801613a2b565b935050604085013567ffffffffffffffff811115613c3957600080fd5b613c4587828801613959565b9250506060613c5687828801613a2b565b91505092959194509250565b600060208284031215613c7457600080fd5b6000613c8284828501613983565b91505092915050565b600060208284031215613c9d57600080fd5b6000613cab848285016139ad565b91505092915050565b600060208284031215613cc657600080fd5b6000613cd4848285016139c2565b91505092915050565b600060208284031215613cef57600080fd5b600082013567ffffffffffffffff811115613d0957600080fd5b613d1584828501613a01565b91505092915050565b600060208284031215613d3057600080fd5b6000613d3e84828501613a2b565b91505092915050565b60008060008060808587031215613d5d57600080fd5b6000613d6b87828801613a2b565b9450506020613d7c87828801613998565b9350506040613d8d87828801613a2b565b925050606085013567ffffffffffffffff811115613daa57600080fd5b613db687828801613959565b91505092959194509250565b600080600060608486031215613dd757600080fd5b6000613de586828701613a2b565b9350506020613df686828701613a2b565b9250506040613e0786828701613998565b9150509250925092565b613e1a816149fe565b82525050565b613e31613e2c826149fe565b614b6a565b82525050565b613e4081614a10565b82525050565b613e4f81614a1c565b82525050565b613e66613e6182614a1c565b614b7c565b82525050565b6000613e77826148a6565b613e8181856148bc565b9350613e91818560208601614a8b565b613e9a81614c85565b840191505092915050565b6000613eb0826148b1565b613eba81856148cd565b9350613eca818560208601614a8b565b613ed381614c85565b840191505092915050565b6000613ee9826148b1565b613ef381856148de565b9350613f03818560208601614a8b565b80840191505092915050565b6000613f1c6025836148cd565b9150613f2782614ca3565b604082019050919050565b6000613f3f602b836148cd565b9150613f4a82614cf2565b604082019050919050565b6000613f626032836148cd565b9150613f6d82614d41565b604082019050919050565b6000613f856026836148cd565b9150613f9082614d90565b604082019050919050565b6000613fa86025836148cd565b9150613fb382614ddf565b604082019050919050565b6000613fcb601c836148cd565b9150613fd682614e2e565b602082019050919050565b6000613fee6029836148cd565b9150613ff982614e57565b604082019050919050565b60006140116024836148cd565b915061401c82614ea6565b604082019050919050565b60006140346019836148cd565b915061403f82614ef5565b602082019050919050565b6000614057602c836148cd565b915061406282614f1e565b604082019050919050565b600061407a6032836148cd565b915061408582614f6d565b604082019050919050565b600061409d6038836148cd565b91506140a882614fbc565b604082019050919050565b60006140c0602a836148cd565b91506140cb8261500b565b604082019050919050565b60006140e36029836148cd565b91506140ee8261505a565b604082019050919050565b60006141066020836148cd565b9150614111826150a9565b602082019050919050565b6000614129602c836148cd565b9150614134826150d2565b604082019050919050565b600061414c6005836148de565b915061415782615121565b600582019050919050565b600061416f6014836148cd565b915061417a8261514a565b602082019050919050565b60006141926020836148cd565b915061419d82615173565b602082019050919050565b60006141b56017836148cd565b91506141c08261519c565b602082019050919050565b60006141d86026836148cd565b91506141e3826151c5565b604082019050919050565b60006141fb6021836148cd565b915061420682615214565b604082019050919050565b600061421e601f836148cd565b915061422982615263565b602082019050919050565b60006142416027836148cd565b915061424c8261528c565b604082019050919050565b60006142646031836148cd565b915061426f826152db565b604082019050919050565b60006142876018836148cd565b91506142928261532a565b602082019050919050565b60006142aa602c836148cd565b91506142b582615353565b604082019050919050565b60006142cd6030836148cd565b91506142d8826153a2565b604082019050919050565b60006142f0602f836148cd565b91506142fb826153f1565b604082019050919050565b61430f81614a72565b82525050565b60006143218284613e20565b60148201915081905092915050565b600061433c8285613e55565b60208201915061434c8284613e55565b6020820191508190509392505050565b60006143688285613ede565b91506143748284613ede565b915061437f8261413f565b91508190509392505050565b60006020820190506143a06000830184613e11565b92915050565b60006080820190506143bb6000830187613e11565b6143c86020830186613e11565b6143d56040830185614306565b81810360608301526143e78184613e6c565b905095945050505050565b60006020820190506144076000830184613e37565b92915050565b600060208201905081810360008301526144278184613ea5565b905092915050565b6000602082019050818103600083015261444881613f0f565b9050919050565b6000602082019050818103600083015261446881613f32565b9050919050565b6000602082019050818103600083015261448881613f55565b9050919050565b600060208201905081810360008301526144a881613f78565b9050919050565b600060208201905081810360008301526144c881613f9b565b9050919050565b600060208201905081810360008301526144e881613fbe565b9050919050565b6000602082019050818103600083015261450881613fe1565b9050919050565b6000602082019050818103600083015261452881614004565b9050919050565b6000602082019050818103600083015261454881614027565b9050919050565b600060208201905081810360008301526145688161404a565b9050919050565b600060208201905081810360008301526145888161406d565b9050919050565b600060208201905081810360008301526145a881614090565b9050919050565b600060208201905081810360008301526145c8816140b3565b9050919050565b600060208201905081810360008301526145e8816140d6565b9050919050565b60006020820190508181036000830152614608816140f9565b9050919050565b600060208201905081810360008301526146288161411c565b9050919050565b6000602082019050818103600083015261464881614162565b9050919050565b6000602082019050818103600083015261466881614185565b9050919050565b60006020820190508181036000830152614688816141a8565b9050919050565b600060208201905081810360008301526146a8816141cb565b9050919050565b600060208201905081810360008301526146c8816141ee565b9050919050565b600060208201905081810360008301526146e881614211565b9050919050565b6000602082019050818103600083015261470881614234565b9050919050565b6000602082019050818103600083015261472881614257565b9050919050565b600060208201905081810360008301526147488161427a565b9050919050565b600060208201905081810360008301526147688161429d565b9050919050565b60006020820190508181036000830152614788816142c0565b9050919050565b600060208201905081810360008301526147a8816142e3565b9050919050565b60006020820190506147c46000830184614306565b92915050565b60006040820190506147df6000830185614306565b6147ec6020830184613e46565b9392505050565b60006147fd61480e565b90506148098282614af0565b919050565b6000604051905090565b600067ffffffffffffffff82111561483357614832614c56565b5b602082029050602081019050919050565b600067ffffffffffffffff82111561485f5761485e614c56565b5b61486882614c85565b9050602081019050919050565b600067ffffffffffffffff8211156148905761488f614c56565b5b61489982614c85565b9050602081019050919050565b600081519050919050565b600081519050919050565b600082825260208201905092915050565b600082825260208201905092915050565b600081905092915050565b60006148f482614a72565b91506148ff83614a72565b9250827fffffffffffffffffffffffffffffffffffffffffffffffffffffffffffffffff0382111561493457614933614bc9565b5b828201905092915050565b600061494a82614a72565b915061495583614a72565b92508261496557614964614bf8565b5b828204905092915050565b600061497b82614a72565b915061498683614a72565b9250817fffffffffffffffffffffffffffffffffffffffffffffffffffffffffffffffff04831182151516156149bf576149be614bc9565b5b828202905092915050565b60006149d582614a72565b91506149e083614a72565b9250828210156149f3576149f2614bc9565b5b828203905092915050565b6000614a0982614a52565b9050919050565b60008115159050919050565b6000819050919050565b60007fffffffff0000000000000000000000000000000000000000000000000000000082169050919050565b600073ffffffffffffffffffffffffffffffffffffffff82169050919050565b6000819050919050565b82818337600083830152505050565b60005b83811015614aa9578082015181840152602081019050614a8e565b83811115614ab8576000848401525b50505050565b60006002820490506001821680614ad657607f821691505b60208210811415614aea57614ae9614c27565b5b50919050565b614af982614c85565b810181811067ffffffffffffffff82111715614b1857614b17614c56565b5b80604052505050565b6000614b2c82614a72565b91507fffffffffffffffffffffffffffffffffffffffffffffffffffffffffffffffff821415614b5f57614b5e614bc9565b5b600182019050919050565b6000614b7582614b86565b9050919050565b6000819050919050565b6000614b9182614c96565b9050919050565b6000614ba382614a72565b9150614bae83614a72565b925082614bbe57614bbd614bf8565b5b828206905092915050565b7f4e487b7100000000000000000000000000000000000000000000000000000000600052601160045260246000fd5b7f4e487b7100000000000000000000000000000000000000000000000000000000600052601260045260246000fd5b7f4e487b7100000000000000000000000000000000000000000000000000000000600052602260045260246000fd5b7f4e487b7100000000000000000000000000000000000000000000000000000000600052604160045260246000fd5b6000601f19601f8301169050919050565b60008160601b9050919050565b7f596f752061726520746f6f206c6174652c2070726573616c652069732066696e60008201527f6973686564000000000000000000000000000000000000000000000000000000602082015250565b7f455243373231456e756d657261626c653a206f776e657220696e646578206f7560008201527f74206f6620626f756e6473000000000000000000000000000000000000000000602082015250565b7f4552433732313a207472616e7366657220746f206e6f6e20455243373231526560008201527f63656976657220696d706c656d656e7465720000000000000000000000000000602082015250565b7f4f776e61626c653a206e6577206f776e657220697320746865207a65726f206160008201527f6464726573730000000000000000000000000000000000000000000000000000602082015250565b7f4552433732313a207472616e736665722066726f6d20696e636f72726563742060008201527f6f776e6572000000000000000000000000000000000000000000000000000000602082015250565b7f4552433732313a20746f6b656e20616c7265616479206d696e74656400000000600082015250565b7f546865726520617265206c65737320736865657473206c656674207468616e2060008201527f796f752077616e74210000000000000000000000000000000000000000000000602082015250565b7f4552433732313a207472616e7366657220746f20746865207a65726f2061646460008201527f7265737300000000000000000000000000000000000000000000000000000000602082015250565b7f4552433732313a20617070726f766520746f2063616c6c657200000000000000600082015250565b7f4552433732313a206f70657261746f7220717565727920666f72206e6f6e657860008201527f697374656e7420746f6b656e0000000000000000000000000000000000000000602082015250565b7f596f752063616e204e4f5420627579206d6f7265207468616e205f7075626c6960008201527f634d696e744c696d697420736865657473210000000000000000000000000000602082015250565b7f4552433732313a20617070726f76652063616c6c6572206973206e6f74206f7760008201527f6e6572206e6f7220617070726f76656420666f7220616c6c0000000000000000602082015250565b7f4552433732313a2062616c616e636520717565727920666f7220746865207a6560008201527f726f206164647265737300000000000000000000000000000000000000000000602082015250565b7f4552433732313a206f776e657220717565727920666f72206e6f6e657869737460008201527f656e7420746f6b656e0000000000000000000000000000000000000000000000602082015250565b7f4552433732313a206d696e7420746f20746865207a65726f2061646472657373600082015250565b7f4552433732313a20617070726f76656420717565727920666f72206e6f6e657860008201527f697374656e7420746f6b656e0000000000000000000000000000000000000000602082015250565b7f2e6a736f6e000000000000000000000000000000000000000000000000000000600082015250565b7f4d6f6e6579206973206e6f7420656e6f75676821000000000000000000000000600082015250565b7f4f776e61626c653a2063616c6c6572206973206e6f7420746865206f776e6572600082015250565b7f4d696e7420616d6f756e74206c696d69746174696f6e21000000000000000000600082015250565b7f536f7272792c20596f7520617265206e6f7420612077686974656c697374206d60008201527f656d6265722e0000000000000000000000000000000000000000000000000000602082015250565b7f4552433732313a20617070726f76616c20746f2063757272656e74206f776e6560008201527f7200000000000000000000000000000000000000000000000000000000000000602082015250565b7f5075626c6963206d696e74206973206e6f742073746172746564207965742100600082015250565b7f546f6f206c6174652c20616c6c2070726573616c65204e46547320617265207360008201527f6f6c64206f757400000000000000000000000000000000000000000000000000602082015250565b7f4552433732313a207472616e736665722063616c6c6572206973206e6f74206f60008201527f776e6572206e6f7220617070726f766564000000000000000000000000000000602082015250565b7f50726573616c65206973206e6f7420737570706f746564210000000000000000600082015250565b7f455243373231456e756d657261626c653a20676c6f62616c20696e646578206f60008201527f7574206f6620626f756e64730000000000000000000000000000000000000000602082015250565b7f4552433732314d657461646174613a2055524920717565727920666f72206e6f60008201527f6e2d6578697374656e7420746f6b656e00000000000000000000000000000000602082015250565b7f5468657265206172656e277420656e6f756768206e66747320666f7220796f7560008201527f20696e2074686973206261746368210000000000000000000000000000000000602082015250565b615449816149fe565b811461545457600080fd5b50565b61546081614a10565b811461546b57600080fd5b50565b61547781614a1c565b811461548257600080fd5b50565b61548e81614a26565b811461549957600080fd5b50565b6154a581614a72565b81146154b057600080fd5b5056fea264697066735822122090ad976818cd63b78e8c1f0ca52feb0c116f6042ca27a74e39b3f31159ae68c964736f6c6343000804003368747470733a2f2f61697264726f70686f757365732e6d7970696e6174612e636c6f75642f697066732f516d64785065616f7a64733766666f4d6d4c736b4d4c38446174645a3143617459647a4466706b7a424b5659416d2f",
  "linkReferences": {},
  "deployedLinkReferences": {}
}