{
  "_format": "hh-sol-artifact-1",
  "contractName": "AirdropHouses",
  "sourceName": "contracts/AirdropHouses.sol",
  "abi": [
    {
      "inputs": [],
      "stateMutability": "nonpayable",
      "type": "constructor"
    },
    {
      "anonymous": false,
      "inputs": [
        {
          "indexed": true,
          "internalType": "address",
          "name": "owner",
          "type": "address"
        },
        {
          "indexed": true,
          "internalType": "address",
          "name": "approved",
          "type": "address"
        },
        {
          "indexed": true,
          "internalType": "uint256",
          "name": "tokenId",
          "type": "uint256"
        }
      ],
      "name": "Approval",
      "type": "event"
    },
    {
      "anonymous": false,
      "inputs": [
        {
          "indexed": true,
          "internalType": "address",
          "name": "owner",
          "type": "address"
        },
        {
          "indexed": true,
          "internalType": "address",
          "name": "operator",
          "type": "address"
        },
        {
          "indexed": false,
          "internalType": "bool",
          "name": "approved",
          "type": "bool"
        }
      ],
      "name": "ApprovalForAll",
      "type": "event"
    },
    {
      "anonymous": false,
      "inputs": [
        {
          "indexed": true,
          "internalType": "address",
          "name": "_to",
          "type": "address"
        },
        {
          "indexed": false,
          "internalType": "uint256",
          "name": "_number",
          "type": "uint256"
        }
      ],
      "name": "MintNFT",
      "type": "event"
    },
    {
      "anonymous": false,
      "inputs": [
        {
          "indexed": true,
          "internalType": "address",
          "name": "previousOwner",
          "type": "address"
        },
        {
          "indexed": true,
          "internalType": "address",
          "name": "newOwner",
          "type": "address"
        }
      ],
      "name": "OwnershipTransferred",
      "type": "event"
    },
    {
      "anonymous": false,
      "inputs": [
        {
          "indexed": false,
          "internalType": "uint256",
          "name": "_saleMode",
          "type": "uint256"
        }
      ],
      "name": "SaleModeChanged",
      "type": "event"
    },
    {
      "anonymous": false,
      "inputs": [
        {
          "indexed": true,
          "internalType": "address",
          "name": "from",
          "type": "address"
        },
        {
          "indexed": true,
          "internalType": "address",
          "name": "to",
          "type": "address"
        },
        {
          "indexed": true,
          "internalType": "uint256",
          "name": "tokenId",
          "type": "uint256"
        }
      ],
      "name": "Transfer",
      "type": "event"
    },
    {
      "inputs": [
        {
          "internalType": "address",
          "name": "to",
          "type": "address"
        },
        {
          "internalType": "uint256",
          "name": "tokenId",
          "type": "uint256"
        }
      ],
      "name": "approve",
      "outputs": [],
      "stateMutability": "nonpayable",
      "type": "function"
    },
    {
      "inputs": [
        {
          "internalType": "address",
          "name": "owner",
          "type": "address"
        }
      ],
      "name": "balanceOf",
      "outputs": [
        {
          "internalType": "uint256",
          "name": "",
          "type": "uint256"
        }
      ],
      "stateMutability": "view",
      "type": "function"
    },
    {
      "inputs": [],
      "name": "count",
      "outputs": [
        {
          "internalType": "uint256",
          "name": "",
          "type": "uint256"
        }
      ],
      "stateMutability": "view",
      "type": "function"
    },
    {
      "inputs": [
        {
          "internalType": "uint256",
          "name": "tokenId",
          "type": "uint256"
        }
      ],
      "name": "getApproved",
      "outputs": [
        {
          "internalType": "address",
          "name": "",
          "type": "address"
        }
      ],
      "stateMutability": "view",
      "type": "function"
    },
    {
      "inputs": [],
      "name": "getCurrentTimestamp",
      "outputs": [
        {
          "internalType": "uint256",
          "name": "",
          "type": "uint256"
        }
      ],
      "stateMutability": "view",
      "type": "function"
    },
    {
      "inputs": [
        {
          "internalType": "uint256",
          "name": "timestamp",
          "type": "uint256"
        }
      ],
      "name": "getLeftPresale",
      "outputs": [
        {
          "internalType": "uint256",
          "name": "",
          "type": "uint256"
        }
      ],
      "stateMutability": "view",
      "type": "function"
    },
    {
      "inputs": [],
      "name": "getTimePast",
      "outputs": [
        {
          "internalType": "uint256",
          "name": "",
          "type": "uint256"
        }
      ],
      "stateMutability": "view",
      "type": "function"
    },
    {
      "inputs": [
        {
          "internalType": "address",
          "name": "owner",
          "type": "address"
        },
        {
          "internalType": "address",
          "name": "operator",
          "type": "address"
        }
      ],
      "name": "isApprovedForAll",
      "outputs": [
        {
          "internalType": "bool",
          "name": "",
          "type": "bool"
        }
      ],
      "stateMutability": "view",
      "type": "function"
    },
    {
      "inputs": [],
      "name": "name",
      "outputs": [
        {
          "internalType": "string",
          "name": "",
          "type": "string"
        }
      ],
      "stateMutability": "view",
      "type": "function"
    },
    {
      "inputs": [],
      "name": "owner",
      "outputs": [
        {
          "internalType": "address",
          "name": "",
          "type": "address"
        }
      ],
      "stateMutability": "view",
      "type": "function"
    },
    {
      "inputs": [
        {
          "internalType": "uint256",
          "name": "tokenId",
          "type": "uint256"
        }
      ],
      "name": "ownerOf",
      "outputs": [
        {
          "internalType": "address",
          "name": "",
          "type": "address"
        }
      ],
      "stateMutability": "view",
      "type": "function"
    },
    {
      "inputs": [
        {
          "internalType": "address",
          "name": "recipiant",
          "type": "address"
        },
        {
          "internalType": "uint256",
          "name": "number",
          "type": "uint256"
        }
      ],
      "name": "payToMint",
      "outputs": [],
      "stateMutability": "payable",
      "type": "function"
    },
    {
      "inputs": [
        {
          "internalType": "address",
          "name": "recipiant",
          "type": "address"
        },
        {
          "internalType": "uint256",
          "name": "number",
          "type": "uint256"
        }
      ],
      "name": "payToWhiteMint",
      "outputs": [],
      "stateMutability": "payable",
      "type": "function"
    },
    {
      "inputs": [],
      "name": "price",
      "outputs": [
        {
          "internalType": "uint256",
          "name": "",
          "type": "uint256"
        }
      ],
      "stateMutability": "view",
      "type": "function"
    },
    {
      "inputs": [],
      "name": "renounceOwnership",
      "outputs": [],
      "stateMutability": "nonpayable",
      "type": "function"
    },
    {
      "inputs": [
        {
          "internalType": "address",
          "name": "to",
          "type": "address"
        },
        {
          "internalType": "uint256",
          "name": "number",
          "type": "uint256"
        }
      ],
      "name": "safeMint",
      "outputs": [],
      "stateMutability": "nonpayable",
      "type": "function"
    },
    {
      "inputs": [
        {
          "internalType": "address",
          "name": "from",
          "type": "address"
        },
        {
          "internalType": "address",
          "name": "to",
          "type": "address"
        },
        {
          "internalType": "uint256",
          "name": "tokenId",
          "type": "uint256"
        }
      ],
      "name": "safeTransferFrom",
      "outputs": [],
      "stateMutability": "nonpayable",
      "type": "function"
    },
    {
      "inputs": [
        {
          "internalType": "address",
          "name": "from",
          "type": "address"
        },
        {
          "internalType": "address",
          "name": "to",
          "type": "address"
        },
        {
          "internalType": "uint256",
          "name": "tokenId",
          "type": "uint256"
        },
        {
          "internalType": "bytes",
          "name": "_data",
          "type": "bytes"
        }
      ],
      "name": "safeTransferFrom",
      "outputs": [],
      "stateMutability": "nonpayable",
      "type": "function"
    },
    {
      "inputs": [],
      "name": "saleMode",
      "outputs": [
        {
          "internalType": "uint256",
          "name": "",
          "type": "uint256"
        }
      ],
      "stateMutability": "view",
      "type": "function"
    },
    {
      "inputs": [
        {
          "internalType": "address",
          "name": "operator",
          "type": "address"
        },
        {
          "internalType": "bool",
          "name": "approved",
          "type": "bool"
        }
      ],
      "name": "setApprovalForAll",
      "outputs": [],
      "stateMutability": "nonpayable",
      "type": "function"
    },
    {
      "inputs": [
        {
          "internalType": "uint256",
          "name": "mode",
          "type": "uint256"
        }
      ],
      "name": "setSaleMode",
      "outputs": [],
      "stateMutability": "nonpayable",
      "type": "function"
    },
    {
      "inputs": [
        {
          "internalType": "bytes32",
          "name": "root",
          "type": "bytes32"
        }
      ],
      "name": "setWhitelistRoot",
      "outputs": [],
      "stateMutability": "nonpayable",
      "type": "function"
    },
    {
      "inputs": [
        {
          "internalType": "bytes4",
          "name": "interfaceId",
          "type": "bytes4"
        }
      ],
      "name": "supportsInterface",
      "outputs": [
        {
          "internalType": "bool",
          "name": "",
          "type": "bool"
        }
      ],
      "stateMutability": "view",
      "type": "function"
    },
    {
      "inputs": [],
      "name": "symbol",
      "outputs": [
        {
          "internalType": "string",
          "name": "",
          "type": "string"
        }
      ],
      "stateMutability": "view",
      "type": "function"
    },
    {
      "inputs": [
        {
          "internalType": "uint256",
          "name": "tokenId",
          "type": "uint256"
        }
      ],
      "name": "tokenURI",
      "outputs": [
        {
          "internalType": "string",
          "name": "",
          "type": "string"
        }
      ],
      "stateMutability": "view",
      "type": "function"
    },
    {
      "inputs": [],
      "name": "totalCount",
      "outputs": [
        {
          "internalType": "uint256",
          "name": "",
          "type": "uint256"
        }
      ],
      "stateMutability": "pure",
      "type": "function"
    },
    {
      "inputs": [
        {
          "internalType": "address",
          "name": "from",
          "type": "address"
        },
        {
          "internalType": "address",
          "name": "to",
          "type": "address"
        },
        {
          "internalType": "uint256",
          "name": "tokenId",
          "type": "uint256"
        }
      ],
      "name": "transferFrom",
      "outputs": [],
      "stateMutability": "nonpayable",
      "type": "function"
    },
    {
      "inputs": [
        {
          "internalType": "address",
          "name": "newOwner",
          "type": "address"
        }
      ],
      "name": "transferOwnership",
      "outputs": [],
      "stateMutability": "nonpayable",
      "type": "function"
    },
    {
      "inputs": [
        {
          "internalType": "bytes32",
          "name": "leaf",
          "type": "bytes32"
        },
        {
          "internalType": "bytes32[]",
          "name": "proof",
          "type": "bytes32[]"
        }
      ],
      "name": "verifyWhitelist",
      "outputs": [
        {
          "internalType": "bool",
          "name": "",
          "type": "bool"
        }
      ],
      "stateMutability": "view",
      "type": "function"
    },
    {
      "inputs": [],
      "name": "whitelistRoot",
      "outputs": [
        {
          "internalType": "bytes32",
          "name": "",
          "type": "bytes32"
        }
      ],
      "stateMutability": "view",
      "type": "function"
    },
    {
      "inputs": [],
      "name": "withdraw",
      "outputs": [],
      "stateMutability": "nonpayable",
      "type": "function"
    }
  ],
  "bytecode": "0x608060405260016008556605543df729c000600a55660aa87bee538000600b5563626bcfd3600c553480156200003457600080fd5b506040518060400160405280600d81526020017f41697244726f70486f75736573000000000000000000000000000000000000008152506040518060400160405280600381526020017f50534c00000000000000000000000000000000000000000000000000000000008152508160009080519060200190620000b992919062000241565b508060019080519060200190620000d292919062000241565b505050620000f5620000e96200017360201b60201c565b6200017b60201b60201c565b7f7036c18b7148a5450c499d5c83cf6dac05902701bbbca399f37345095ecf0dcb60001b6009819055506040518060400160405280600881526020017f68747470733a2f2f000000000000000000000000000000000000000000000000815250600d90805190602001906200016c92919062000241565b5062000356565b600033905090565b6000600660009054906101000a900473ffffffffffffffffffffffffffffffffffffffff16905081600660006101000a81548173ffffffffffffffffffffffffffffffffffffffff021916908373ffffffffffffffffffffffffffffffffffffffff1602179055508173ffffffffffffffffffffffffffffffffffffffff168173ffffffffffffffffffffffffffffffffffffffff167f8be0079c531659141344cd1fd0a4f28419497f9722a3daafe3b4186f6b6457e060405160405180910390a35050565b8280546200024f90620002f1565b90600052602060002090601f016020900481019282620002735760008555620002bf565b82601f106200028e57805160ff1916838001178555620002bf565b82800160010185558215620002bf579182015b82811115620002be578251825591602001919060010190620002a1565b5b509050620002ce9190620002d2565b5090565b5b80821115620002ed576000816000905550600101620002d3565b5090565b600060028204905060018216806200030a57607f821691505b6020821081141562000321576200032062000327565b5b50919050565b7f4e487b7100000000000000000000000000000000000000000000000000000000600052602260045260246000fd5b613f0580620003666000396000f3fe6080604052600436106101d85760003560e01c80635b5413c011610102578063a144819411610095578063dd7d0be511610064578063dd7d0be51461069f578063e985e9c5146106bb578063f2fde38b146106f8578063f5aa406d14610721576101d8565b8063a1448194146105e7578063a22cb46514610610578063b88d4fde14610639578063c87b56dd14610662576101d8565b8063715018a6116100d1578063715018a61461054f5780638da5cb5b1461056657806395d89b4114610591578063a035b1fe146105bc576101d8565b80635b5413c01461046d5780636352211e146104aa5780636c9230db146104e757806370a0823114610512576101d8565b80631aa6fa0b1161017a57806334eafb111161014957806334eafb11146103d7578063386bfc98146104025780633ccfd60b1461042d57806342842e0e14610444576101d8565b80631aa6fa0b1461032a5780631c82e5231461034657806323b872dd14610371578063329ea90d1461039a576101d8565b80630745e9ac116101b65780630745e9ac14610270578063081812fc14610299578063095ea7b3146102d65780630deed6a6146102ff576101d8565b806301ffc9a7146101dd57806306661abd1461021a57806306fdde0314610245575b600080fd5b3480156101e957600080fd5b5061020460048036038101906101ff9190612c22565b61074a565b6040516102119190613157565b60405180910390f35b34801561022657600080fd5b5061022f61082c565b60405161023c919061347f565b60405180910390f35b34801561025157600080fd5b5061025a61083d565b604051610267919061318d565b60405180910390f35b34801561027c57600080fd5b5061029760048036038101906102929190612c74565b6108cf565b005b3480156102a557600080fd5b506102c060048036038101906102bb9190612c74565b61098c565b6040516102cd91906130f0565b60405180910390f35b3480156102e257600080fd5b506102fd60048036038101906102f89190612b69565b610a11565b005b34801561030b57600080fd5b50610314610b29565b604051610321919061347f565b60405180910390f35b610344600480360381019061033f9190612b69565b610b33565b005b34801561035257600080fd5b5061035b610c61565b604051610368919061347f565b60405180910390f35b34801561037d57600080fd5b5061039860048036038101906103939190612a63565b610c76565b005b3480156103a657600080fd5b506103c160048036038101906103bc9190612bce565b610cd6565b6040516103ce9190613157565b60405180910390f35b3480156103e357600080fd5b506103ec610db4565b6040516103f9919061347f565b60405180910390f35b34801561040e57600080fd5b50610417610dbe565b6040516104249190613172565b60405180910390f35b34801561043957600080fd5b50610442610dc8565b005b34801561045057600080fd5b5061046b60048036038101906104669190612a63565b610e8d565b005b34801561047957600080fd5b50610494600480360381019061048f9190612c74565b610ead565b6040516104a1919061347f565b60405180910390f35b3480156104b657600080fd5b506104d160048036038101906104cc9190612c74565b610f99565b6040516104de91906130f0565b60405180910390f35b3480156104f357600080fd5b506104fc61104b565b604051610509919061347f565b60405180910390f35b34801561051e57600080fd5b50610539600480360381019061053491906129fe565b611053565b604051610546919061347f565b60405180910390f35b34801561055b57600080fd5b5061056461110b565b005b34801561057257600080fd5b5061057b611193565b60405161058891906130f0565b60405180910390f35b34801561059d57600080fd5b506105a66111bd565b6040516105b3919061318d565b60405180910390f35b3480156105c857600080fd5b506105d161124f565b6040516105de919061347f565b60405180910390f35b3480156105f357600080fd5b5061060e60048036038101906106099190612b69565b6113cc565b005b34801561061c57600080fd5b5061063760048036038101906106329190612b2d565b6114dc565b005b34801561064557600080fd5b50610660600480360381019061065b9190612ab2565b6114f2565b005b34801561066e57600080fd5b5061068960048036038101906106849190612c74565b611554565b604051610696919061318d565b60405180910390f35b6106b960048036038101906106b49190612b69565b6115fb565b005b3480156106c757600080fd5b506106e260048036038101906106dd9190612a27565b6117c6565b6040516106ef9190613157565b60405180910390f35b34801561070457600080fd5b5061071f600480360381019061071a91906129fe565b61185a565b005b34801561072d57600080fd5b5061074860048036038101906107439190612ba5565b611952565b005b60007f80ac58cd000000000000000000000000000000000000000000000000000000007bffffffffffffffffffffffffffffffffffffffffffffffffffffffff1916827bffffffffffffffffffffffffffffffffffffffffffffffffffffffff1916148061081557507f5b5e139f000000000000000000000000000000000000000000000000000000007bffffffffffffffffffffffffffffffffffffffffffffffffffffffff1916827bffffffffffffffffffffffffffffffffffffffffffffffffffffffff1916145b806108255750610824826119d8565b5b9050919050565b60006108386007611a42565b905090565b60606000805461084c90613734565b80601f016020809104026020016040519081016040528092919081815260200182805461087890613734565b80156108c55780601f1061089a576101008083540402835291602001916108c5565b820191906000526020600020905b8154815290600101906020018083116108a857829003601f168201915b5050505050905090565b6108d7611a50565b73ffffffffffffffffffffffffffffffffffffffff166108f5611193565b73ffffffffffffffffffffffffffffffffffffffff161461094b576040517f08c379a0000000000000000000000000000000000000000000000000000000008152600401610942906133bf565b60405180910390fd5b806008819055507fcab9c58670efd675f37069fb32cc379dbb18f1376b4f1d1a2d01404c55bf748281604051610981919061347f565b60405180910390a150565b600061099782611a58565b6109d6576040517f08c379a00000000000000000000000000000000000000000000000000000000081526004016109cd9061337f565b60405180910390fd5b6004600083815260200190815260200160002060009054906101000a900473ffffffffffffffffffffffffffffffffffffffff169050919050565b6000610a1c82610f99565b90508073ffffffffffffffffffffffffffffffffffffffff168373ffffffffffffffffffffffffffffffffffffffff161415610a8d576040517f08c379a0000000000000000000000000000000000000000000000000000000008152600401610a84906133ff565b60405180910390fd5b8073ffffffffffffffffffffffffffffffffffffffff16610aac611a50565b73ffffffffffffffffffffffffffffffffffffffff161480610adb5750610ada81610ad5611a50565b6117c6565b5b610b1a576040517f08c379a0000000000000000000000000000000000000000000000000000000008152600401610b11906132ff565b60405180910390fd5b610b248383611ac4565b505050565b6000600854905090565b600260085414610b78576040517f08c379a0000000000000000000000000000000000000000000000000000000008152600401610b6f9061341f565b60405180910390fd5b80610b8161124f565b610b8b91906135e6565b341015610bcd576040517f08c379a0000000000000000000000000000000000000000000000000000000008152600401610bc49061339f565b60405180910390fd5b60005b81811015610c0e576000610be46007611a42565b9050610bf06007611b7d565b610bfa8482611b93565b508080610c0690613797565b915050610bd0565b508173ffffffffffffffffffffffffffffffffffffffff167f1f89f147a58d1673945cf416187db98efc8208408c011b91887acd59fd8523c382604051610c55919061347f565b60405180910390a25050565b6000600c5442610c719190613640565b905090565b610c87610c81611a50565b82611d6d565b610cc6576040517f08c379a0000000000000000000000000000000000000000000000000000000008152600401610cbd9061343f565b60405180910390fd5b610cd1838383611e4b565b505050565b60008083905060005b8351811015610da5576000848281518110610d23577f4e487b7100000000000000000000000000000000000000000000000000000000600052603260045260246000fd5b6020026020010151905080831015610d65578281604051602001610d48929190613095565b604051602081830303815290604052805190602001209250610d91565b8083604051602001610d78929190613095565b6040516020818303038152906040528051906020012092505b508080610d9d90613797565b915050610cdf565b50600954811491505092915050565b60006107d0905090565b6000600954905090565b610dd0611a50565b73ffffffffffffffffffffffffffffffffffffffff16610dee611193565b73ffffffffffffffffffffffffffffffffffffffff1614610e44576040517f08c379a0000000000000000000000000000000000000000000000000000000008152600401610e3b906133bf565b60405180910390fd5b3373ffffffffffffffffffffffffffffffffffffffff166108fc479081150290604051600060405180830381858888f19350505050158015610e8a573d6000803e3d6000fd5b50565b610ea8838383604051806020016040528060008152506114f2565b505050565b600080611c20600c54610ec0919061355f565b8311610ecf5760069050610f0b565b613840600c54610edf919061355f565b8311610eee57600c9050610f0a565b615460600c54610efe919061355f565b8311610f0957601290505b5b5b600660016006610f1b6007611a42565b610f2591906135b5565b610f2f919061355f565b610f3991906135e6565b811015610f7b57610f4a6007611a42565b60016006610f586007611a42565b610f6291906135b5565b610f6c919061355f565b610f769190613640565b610f91565b610f856007611a42565b81610f909190613640565b5b915050919050565b6000806002600084815260200190815260200160002060009054906101000a900473ffffffffffffffffffffffffffffffffffffffff169050600073ffffffffffffffffffffffffffffffffffffffff168173ffffffffffffffffffffffffffffffffffffffff161415611042576040517f08c379a00000000000000000000000000000000000000000000000000000000081526004016110399061333f565b60405180910390fd5b80915050919050565b600042905090565b60008073ffffffffffffffffffffffffffffffffffffffff168273ffffffffffffffffffffffffffffffffffffffff1614156110c4576040517f08c379a00000000000000000000000000000000000000000000000000000000081526004016110bb9061331f565b60405180910390fd5b600360008373ffffffffffffffffffffffffffffffffffffffff1673ffffffffffffffffffffffffffffffffffffffff168152602001908152602001600020549050919050565b611113611a50565b73ffffffffffffffffffffffffffffffffffffffff16611131611193565b73ffffffffffffffffffffffffffffffffffffffff1614611187576040517f08c379a000000000000000000000000000000000000000000000000000000000815260040161117e906133bf565b60405180910390fd5b61119160006120b2565b565b6000600660009054906101000a900473ffffffffffffffffffffffffffffffffffffffff16905090565b6060600180546111cc90613734565b80601f01602080910402602001604051908101604052809291908181526020018280546111f890613734565b80156112455780601f1061121a57610100808354040283529160200191611245565b820191906000526020600020905b81548152906001019060200180831161122857829003601f168201915b5050505050905090565b60006002600854141561126657600b5490506113c9565b6002603c80611273610c61565b61127d91906135b5565b61128791906135b5565b101561133c576113006040518060400160405280600a81526020017f6265666f726520323a200000000000000000000000000000000000000000000081525060066112d26007611a42565b6112dc91906135b5565b6601c6bf526340006112ee91906135e6565b600a546112fb919061355f565b612178565b600661130c6007611a42565b61131691906135b5565b6601c6bf5263400061132891906135e6565b600a54611335919061355f565b90506113c9565b6004603c80611349610c61565b61135391906135b5565b61135d91906135b5565b10156113b157600c61136f6007611a42565b61137991906135b5565b6601c6bf5263400061138b91906135e6565b6601c6bf52634000600a546113a0919061355f565b6113aa919061355f565b90506113c9565b66038d7ea4c68000600a546113c6919061355f565b90505b90565b6113d4611a50565b73ffffffffffffffffffffffffffffffffffffffff166113f2611193565b73ffffffffffffffffffffffffffffffffffffffff1614611448576040517f08c379a000000000000000000000000000000000000000000000000000000000815260040161143f906133bf565b60405180910390fd5b60005b8181101561148957600061145f6007611a42565b905061146b6007611b7d565b6114758482612214565b50808061148190613797565b91505061144b565b508173ffffffffffffffffffffffffffffffffffffffff167f1f89f147a58d1673945cf416187db98efc8208408c011b91887acd59fd8523c3826040516114d0919061347f565b60405180910390a25050565b6114ee6114e7611a50565b8383612232565b5050565b6115036114fd611a50565b83611d6d565b611542576040517f08c379a00000000000000000000000000000000000000000000000000000000081526004016115399061343f565b60405180910390fd5b61154e8484848461239f565b50505050565b606061155f82611a58565b61159e576040517f08c379a0000000000000000000000000000000000000000000000000000000008152600401611595906133df565b60405180910390fd5b60006115a86123fb565b905060008151116115c857604051806020016040528060008152506115f3565b806115d28461248d565b6040516020016115e39291906130c1565b6040516020818303038152906040525b915050919050565b600160085414611640576040517f08c379a00000000000000000000000000000000000000000000000000000000081526004016116379061345f565b60405180910390fd5b615460600c54426116519190613640565b1115611692576040517f08c379a0000000000000000000000000000000000000000000000000000000008152600401611689906131df565b60405180910390fd5b8061169b61124f565b6116a591906135e6565b3410156116e7576040517f08c379a00000000000000000000000000000000000000000000000000000000081526004016116de9061339f565b60405180910390fd5b806116f142610ead565b1015611732576040517f08c379a0000000000000000000000000000000000000000000000000000000008152600401611729906132df565b60405180910390fd5b60005b818110156117735760006117496007611a42565b90506117556007611b7d565b61175f8482611b93565b50808061176b90613797565b915050611735565b508173ffffffffffffffffffffffffffffffffffffffff167f1f89f147a58d1673945cf416187db98efc8208408c011b91887acd59fd8523c3826040516117ba919061347f565b60405180910390a25050565b6000600560008473ffffffffffffffffffffffffffffffffffffffff1673ffffffffffffffffffffffffffffffffffffffff16815260200190815260200160002060008373ffffffffffffffffffffffffffffffffffffffff1673ffffffffffffffffffffffffffffffffffffffff16815260200190815260200160002060009054906101000a900460ff16905092915050565b611862611a50565b73ffffffffffffffffffffffffffffffffffffffff16611880611193565b73ffffffffffffffffffffffffffffffffffffffff16146118d6576040517f08c379a00000000000000000000000000000000000000000000000000000000081526004016118cd906133bf565b60405180910390fd5b600073ffffffffffffffffffffffffffffffffffffffff168173ffffffffffffffffffffffffffffffffffffffff161415611946576040517f08c379a000000000000000000000000000000000000000000000000000000000815260040161193d9061321f565b60405180910390fd5b61194f816120b2565b50565b61195a611a50565b73ffffffffffffffffffffffffffffffffffffffff16611978611193565b73ffffffffffffffffffffffffffffffffffffffff16146119ce576040517f08c379a00000000000000000000000000000000000000000000000000000000081526004016119c5906133bf565b60405180910390fd5b8060098190555050565b60007f01ffc9a7000000000000000000000000000000000000000000000000000000007bffffffffffffffffffffffffffffffffffffffffffffffffffffffff1916827bffffffffffffffffffffffffffffffffffffffffffffffffffffffff1916149050919050565b600081600001549050919050565b600033905090565b60008073ffffffffffffffffffffffffffffffffffffffff166002600084815260200190815260200160002060009054906101000a900473ffffffffffffffffffffffffffffffffffffffff1673ffffffffffffffffffffffffffffffffffffffff1614159050919050565b816004600083815260200190815260200160002060006101000a81548173ffffffffffffffffffffffffffffffffffffffff021916908373ffffffffffffffffffffffffffffffffffffffff160217905550808273ffffffffffffffffffffffffffffffffffffffff16611b3783610f99565b73ffffffffffffffffffffffffffffffffffffffff167f8c5be1e5ebec7d5bd14f71427d1e84f3dd0314c0f7b2291e5b200ac8c7c3b92560405160405180910390a45050565b6001816000016000828254019250508190555050565b600073ffffffffffffffffffffffffffffffffffffffff168273ffffffffffffffffffffffffffffffffffffffff161415611c03576040517f08c379a0000000000000000000000000000000000000000000000000000000008152600401611bfa9061335f565b60405180910390fd5b611c0c81611a58565b15611c4c576040517f08c379a0000000000000000000000000000000000000000000000000000000008152600401611c439061325f565b60405180910390fd5b611c586000838361263a565b6001600360008473ffffffffffffffffffffffffffffffffffffffff1673ffffffffffffffffffffffffffffffffffffffff1681526020019081526020016000206000828254611ca8919061355f565b92505081905550816002600083815260200190815260200160002060006101000a81548173ffffffffffffffffffffffffffffffffffffffff021916908373ffffffffffffffffffffffffffffffffffffffff160217905550808273ffffffffffffffffffffffffffffffffffffffff16600073ffffffffffffffffffffffffffffffffffffffff167fddf252ad1be2c89b69c2b068fc378daa952ba7f163c4a11628f55a4df523b3ef60405160405180910390a4611d696000838361263f565b5050565b6000611d7882611a58565b611db7576040517f08c379a0000000000000000000000000000000000000000000000000000000008152600401611dae906132bf565b60405180910390fd5b6000611dc283610f99565b90508073ffffffffffffffffffffffffffffffffffffffff168473ffffffffffffffffffffffffffffffffffffffff161480611e3157508373ffffffffffffffffffffffffffffffffffffffff16611e198461098c565b73ffffffffffffffffffffffffffffffffffffffff16145b80611e425750611e4181856117c6565b5b91505092915050565b8273ffffffffffffffffffffffffffffffffffffffff16611e6b82610f99565b73ffffffffffffffffffffffffffffffffffffffff1614611ec1576040517f08c379a0000000000000000000000000000000000000000000000000000000008152600401611eb89061323f565b60405180910390fd5b600073ffffffffffffffffffffffffffffffffffffffff168273ffffffffffffffffffffffffffffffffffffffff161415611f31576040517f08c379a0000000000000000000000000000000000000000000000000000000008152600401611f289061327f565b60405180910390fd5b611f3c83838361263a565b611f47600082611ac4565b6001600360008573ffffffffffffffffffffffffffffffffffffffff1673ffffffffffffffffffffffffffffffffffffffff1681526020019081526020016000206000828254611f979190613640565b925050819055506001600360008473ffffffffffffffffffffffffffffffffffffffff1673ffffffffffffffffffffffffffffffffffffffff1681526020019081526020016000206000828254611fee919061355f565b92505081905550816002600083815260200190815260200160002060006101000a81548173ffffffffffffffffffffffffffffffffffffffff021916908373ffffffffffffffffffffffffffffffffffffffff160217905550808273ffffffffffffffffffffffffffffffffffffffff168473ffffffffffffffffffffffffffffffffffffffff167fddf252ad1be2c89b69c2b068fc378daa952ba7f163c4a11628f55a4df523b3ef60405160405180910390a46120ad83838361263f565b505050565b6000600660009054906101000a900473ffffffffffffffffffffffffffffffffffffffff16905081600660006101000a81548173ffffffffffffffffffffffffffffffffffffffff021916908373ffffffffffffffffffffffffffffffffffffffff1602179055508173ffffffffffffffffffffffffffffffffffffffff168173ffffffffffffffffffffffffffffffffffffffff167f8be0079c531659141344cd1fd0a4f28419497f9722a3daafe3b4186f6b6457e060405160405180910390a35050565b612210828260405160240161218e9291906131af565b6040516020818303038152906040527f9710a9d0000000000000000000000000000000000000000000000000000000007bffffffffffffffffffffffffffffffffffffffffffffffffffffffff19166020820180517bffffffffffffffffffffffffffffffffffffffffffffffffffffffff8381831617835250505050612644565b5050565b61222e82826040518060200160405280600081525061266d565b5050565b8173ffffffffffffffffffffffffffffffffffffffff168373ffffffffffffffffffffffffffffffffffffffff1614156122a1576040517f08c379a00000000000000000000000000000000000000000000000000000000081526004016122989061329f565b60405180910390fd5b80600560008573ffffffffffffffffffffffffffffffffffffffff1673ffffffffffffffffffffffffffffffffffffffff16815260200190815260200160002060008473ffffffffffffffffffffffffffffffffffffffff1673ffffffffffffffffffffffffffffffffffffffff16815260200190815260200160002060006101000a81548160ff0219169083151502179055508173ffffffffffffffffffffffffffffffffffffffff168373ffffffffffffffffffffffffffffffffffffffff167f17307eab39ab6107e8899845ad3d59bd9653f200f220920489ca2b5937696c31836040516123929190613157565b60405180910390a3505050565b6123aa848484611e4b565b6123b6848484846126c8565b6123f5576040517f08c379a00000000000000000000000000000000000000000000000000000000081526004016123ec906131ff565b60405180910390fd5b50505050565b6060600d805461240a90613734565b80601f016020809104026020016040519081016040528092919081815260200182805461243690613734565b80156124835780601f1061245857610100808354040283529160200191612483565b820191906000526020600020905b81548152906001019060200180831161246657829003601f168201915b5050505050905090565b606060008214156124d5576040518060400160405280600181526020017f30000000000000000000000000000000000000000000000000000000000000008152509050612635565b600082905060005b600082146125075780806124f090613797565b915050600a8261250091906135b5565b91506124dd565b60008167ffffffffffffffff811115612549577f4e487b7100000000000000000000000000000000000000000000000000000000600052604160045260246000fd5b6040519080825280601f01601f19166020018201604052801561257b5781602001600182028036833780820191505090505b5090505b6000851461262e576001826125949190613640565b9150600a856125a391906137ea565b60306125af919061355f565b60f81b8183815181106125eb577f4e487b7100000000000000000000000000000000000000000000000000000000600052603260045260246000fd5b60200101907effffffffffffffffffffffffffffffffffffffffffffffffffffffffffffff1916908160001a905350600a8561262791906135b5565b945061257f565b8093505050505b919050565b505050565b505050565b60008151905060006a636f6e736f6c652e6c6f679050602083016000808483855afa5050505050565b6126778383611b93565b61268460008484846126c8565b6126c3576040517f08c379a00000000000000000000000000000000000000000000000000000000081526004016126ba906131ff565b60405180910390fd5b505050565b60006126e98473ffffffffffffffffffffffffffffffffffffffff1661285f565b15612852578373ffffffffffffffffffffffffffffffffffffffff1663150b7a02612712611a50565b8786866040518563ffffffff1660e01b8152600401612734949392919061310b565b602060405180830381600087803b15801561274e57600080fd5b505af192505050801561277f57506040513d601f19601f8201168201806040525081019061277c9190612c4b565b60015b612802573d80600081146127af576040519150601f19603f3d011682016040523d82523d6000602084013e6127b4565b606091505b506000815114156127fa576040517f08c379a00000000000000000000000000000000000000000000000000000000081526004016127f1906131ff565b60405180910390fd5b805181602001fd5b63150b7a0260e01b7bffffffffffffffffffffffffffffffffffffffffffffffffffffffff1916817bffffffffffffffffffffffffffffffffffffffffffffffffffffffff191614915050612857565b600190505b949350505050565b6000808273ffffffffffffffffffffffffffffffffffffffff163b119050919050565b6000612895612890846134bf565b61349a565b905080838252602082019050828560208602820111156128b457600080fd5b60005b858110156128e457816128ca8882612980565b8452602084019350602083019250506001810190506128b7565b5050509392505050565b60006129016128fc846134eb565b61349a565b90508281526020810184848401111561291957600080fd5b6129248482856136f2565b509392505050565b60008135905061293b81613e5c565b92915050565b600082601f83011261295257600080fd5b8135612962848260208601612882565b91505092915050565b60008135905061297a81613e73565b92915050565b60008135905061298f81613e8a565b92915050565b6000813590506129a481613ea1565b92915050565b6000815190506129b981613ea1565b92915050565b600082601f8301126129d057600080fd5b81356129e08482602086016128ee565b91505092915050565b6000813590506129f881613eb8565b92915050565b600060208284031215612a1057600080fd5b6000612a1e8482850161292c565b91505092915050565b60008060408385031215612a3a57600080fd5b6000612a488582860161292c565b9250506020612a598582860161292c565b9150509250929050565b600080600060608486031215612a7857600080fd5b6000612a868682870161292c565b9350506020612a978682870161292c565b9250506040612aa8868287016129e9565b9150509250925092565b60008060008060808587031215612ac857600080fd5b6000612ad68782880161292c565b9450506020612ae78782880161292c565b9350506040612af8878288016129e9565b925050606085013567ffffffffffffffff811115612b1557600080fd5b612b21878288016129bf565b91505092959194509250565b60008060408385031215612b4057600080fd5b6000612b4e8582860161292c565b9250506020612b5f8582860161296b565b9150509250929050565b60008060408385031215612b7c57600080fd5b6000612b8a8582860161292c565b9250506020612b9b858286016129e9565b9150509250929050565b600060208284031215612bb757600080fd5b6000612bc584828501612980565b91505092915050565b60008060408385031215612be157600080fd5b6000612bef85828601612980565b925050602083013567ffffffffffffffff811115612c0c57600080fd5b612c1885828601612941565b9150509250929050565b600060208284031215612c3457600080fd5b6000612c4284828501612995565b91505092915050565b600060208284031215612c5d57600080fd5b6000612c6b848285016129aa565b91505092915050565b600060208284031215612c8657600080fd5b6000612c94848285016129e9565b91505092915050565b612ca681613674565b82525050565b612cb581613686565b82525050565b612cc481613692565b82525050565b612cdb612cd682613692565b6137e0565b82525050565b6000612cec8261351c565b612cf68185613532565b9350612d06818560208601613701565b612d0f816138d7565b840191505092915050565b6000612d2582613527565b612d2f8185613543565b9350612d3f818560208601613701565b612d48816138d7565b840191505092915050565b6000612d5e82613527565b612d688185613554565b9350612d78818560208601613701565b80840191505092915050565b6000612d91602583613543565b9150612d9c826138e8565b604082019050919050565b6000612db4603283613543565b9150612dbf82613937565b604082019050919050565b6000612dd7602683613543565b9150612de282613986565b604082019050919050565b6000612dfa602583613543565b9150612e05826139d5565b604082019050919050565b6000612e1d601c83613543565b9150612e2882613a24565b602082019050919050565b6000612e40602483613543565b9150612e4b82613a4d565b604082019050919050565b6000612e63601983613543565b9150612e6e82613a9c565b602082019050919050565b6000612e86602c83613543565b9150612e9182613ac5565b604082019050919050565b6000612ea9602083613543565b9150612eb482613b14565b602082019050919050565b6000612ecc603883613543565b9150612ed782613b3d565b604082019050919050565b6000612eef602a83613543565b9150612efa82613b8c565b604082019050919050565b6000612f12602983613543565b9150612f1d82613bdb565b604082019050919050565b6000612f35602083613543565b9150612f4082613c2a565b602082019050919050565b6000612f58602c83613543565b9150612f6382613c53565b604082019050919050565b6000612f7b600583613554565b9150612f8682613ca2565b600582019050919050565b6000612f9e601483613543565b9150612fa982613ccb565b602082019050919050565b6000612fc1602083613543565b9150612fcc82613cf4565b602082019050919050565b6000612fe4602f83613543565b9150612fef82613d1d565b604082019050919050565b6000613007602183613543565b915061301282613d6c565b604082019050919050565b600061302a601f83613543565b915061303582613dbb565b602082019050919050565b600061304d603183613543565b915061305882613de4565b604082019050919050565b6000613070601883613543565b915061307b82613e33565b602082019050919050565b61308f816136e8565b82525050565b60006130a18285612cca565b6020820191506130b18284612cca565b6020820191508190509392505050565b60006130cd8285612d53565b91506130d98284612d53565b91506130e482612f6e565b91508190509392505050565b60006020820190506131056000830184612c9d565b92915050565b60006080820190506131206000830187612c9d565b61312d6020830186612c9d565b61313a6040830185613086565b818103606083015261314c8184612ce1565b905095945050505050565b600060208201905061316c6000830184612cac565b92915050565b60006020820190506131876000830184612cbb565b92915050565b600060208201905081810360008301526131a78184612d1a565b905092915050565b600060408201905081810360008301526131c98185612d1a565b90506131d86020830184613086565b9392505050565b600060208201905081810360008301526131f881612d84565b9050919050565b6000602082019050818103600083015261321881612da7565b9050919050565b6000602082019050818103600083015261323881612dca565b9050919050565b6000602082019050818103600083015261325881612ded565b9050919050565b6000602082019050818103600083015261327881612e10565b9050919050565b6000602082019050818103600083015261329881612e33565b9050919050565b600060208201905081810360008301526132b881612e56565b9050919050565b600060208201905081810360008301526132d881612e79565b9050919050565b600060208201905081810360008301526132f881612e9c565b9050919050565b6000602082019050818103600083015261331881612ebf565b9050919050565b6000602082019050818103600083015261333881612ee2565b9050919050565b6000602082019050818103600083015261335881612f05565b9050919050565b6000602082019050818103600083015261337881612f28565b9050919050565b6000602082019050818103600083015261339881612f4b565b9050919050565b600060208201905081810360008301526133b881612f91565b9050919050565b600060208201905081810360008301526133d881612fb4565b9050919050565b600060208201905081810360008301526133f881612fd7565b9050919050565b6000602082019050818103600083015261341881612ffa565b9050919050565b600060208201905081810360008301526134388161301d565b9050919050565b6000602082019050818103600083015261345881613040565b9050919050565b6000602082019050818103600083015261347881613063565b9050919050565b60006020820190506134946000830184613086565b92915050565b60006134a46134b5565b90506134b08282613766565b919050565b6000604051905090565b600067ffffffffffffffff8211156134da576134d96138a8565b5b602082029050602081019050919050565b600067ffffffffffffffff821115613506576135056138a8565b5b61350f826138d7565b9050602081019050919050565b600081519050919050565b600081519050919050565b600082825260208201905092915050565b600082825260208201905092915050565b600081905092915050565b600061356a826136e8565b9150613575836136e8565b9250827fffffffffffffffffffffffffffffffffffffffffffffffffffffffffffffffff038211156135aa576135a961381b565b5b828201905092915050565b60006135c0826136e8565b91506135cb836136e8565b9250826135db576135da61384a565b5b828204905092915050565b60006135f1826136e8565b91506135fc836136e8565b9250817fffffffffffffffffffffffffffffffffffffffffffffffffffffffffffffffff04831182151516156136355761363461381b565b5b828202905092915050565b600061364b826136e8565b9150613656836136e8565b9250828210156136695761366861381b565b5b828203905092915050565b600061367f826136c8565b9050919050565b60008115159050919050565b6000819050919050565b60007fffffffff0000000000000000000000000000000000000000000000000000000082169050919050565b600073ffffffffffffffffffffffffffffffffffffffff82169050919050565b6000819050919050565b82818337600083830152505050565b60005b8381101561371f578082015181840152602081019050613704565b8381111561372e576000848401525b50505050565b6000600282049050600182168061374c57607f821691505b602082108114156137605761375f613879565b5b50919050565b61376f826138d7565b810181811067ffffffffffffffff8211171561378e5761378d6138a8565b5b80604052505050565b60006137a2826136e8565b91507fffffffffffffffffffffffffffffffffffffffffffffffffffffffffffffffff8214156137d5576137d461381b565b5b600182019050919050565b6000819050919050565b60006137f5826136e8565b9150613800836136e8565b9250826138105761380f61384a565b5b828206905092915050565b7f4e487b7100000000000000000000000000000000000000000000000000000000600052601160045260246000fd5b7f4e487b7100000000000000000000000000000000000000000000000000000000600052601260045260246000fd5b7f4e487b7100000000000000000000000000000000000000000000000000000000600052602260045260246000fd5b7f4e487b7100000000000000000000000000000000000000000000000000000000600052604160045260246000fd5b6000601f19601f8301169050919050565b7f596f752061726520746f6f206c6174652c2070726573616c652069732066696e60008201527f6973686564000000000000000000000000000000000000000000000000000000602082015250565b7f4552433732313a207472616e7366657220746f206e6f6e20455243373231526560008201527f63656976657220696d706c656d656e7465720000000000000000000000000000602082015250565b7f4f776e61626c653a206e6577206f776e657220697320746865207a65726f206160008201527f6464726573730000000000000000000000000000000000000000000000000000602082015250565b7f4552433732313a207472616e736665722066726f6d20696e636f72726563742060008201527f6f776e6572000000000000000000000000000000000000000000000000000000602082015250565b7f4552433732313a20746f6b656e20616c7265616479206d696e74656400000000600082015250565b7f4552433732313a207472616e7366657220746f20746865207a65726f2061646460008201527f7265737300000000000000000000000000000000000000000000000000000000602082015250565b7f4552433732313a20617070726f766520746f2063616c6c657200000000000000600082015250565b7f4552433732313a206f70657261746f7220717565727920666f72206e6f6e657860008201527f697374656e7420746f6b656e0000000000000000000000000000000000000000602082015250565b7f5468657265206172656e277420656e6f756768206e66747320666f7220796f75600082015250565b7f4552433732313a20617070726f76652063616c6c6572206973206e6f74206f7760008201527f6e6572206e6f7220617070726f76656420666f7220616c6c0000000000000000602082015250565b7f4552433732313a2062616c616e636520717565727920666f7220746865207a6560008201527f726f206164647265737300000000000000000000000000000000000000000000602082015250565b7f4552433732313a206f776e657220717565727920666f72206e6f6e657869737460008201527f656e7420746f6b656e0000000000000000000000000000000000000000000000602082015250565b7f4552433732313a206d696e7420746f20746865207a65726f2061646472657373600082015250565b7f4552433732313a20617070726f76656420717565727920666f72206e6f6e657860008201527f697374656e7420746f6b656e0000000000000000000000000000000000000000602082015250565b7f2e6a736f6e000000000000000000000000000000000000000000000000000000600082015250565b7f4d6f6e6579206973206e6f7420656e6f75676821000000000000000000000000600082015250565b7f4f776e61626c653a2063616c6c6572206973206e6f7420746865206f776e6572600082015250565b7f4552433732314d657461646174613a2055524920717565727920666f72206e6f60008201527f6e6578697374656e7420746f6b656e0000000000000000000000000000000000602082015250565b7f4552433732313a20617070726f76616c20746f2063757272656e74206f776e6560008201527f7200000000000000000000000000000000000000000000000000000000000000602082015250565b7f5075626c6963206d696e74206973206e6f742073746172746564207965742100600082015250565b7f4552433732313a207472616e736665722063616c6c6572206973206e6f74206f60008201527f776e6572206e6f7220617070726f766564000000000000000000000000000000602082015250565b7f50726573616c65206973206e6f7420737570706f746564210000000000000000600082015250565b613e6581613674565b8114613e7057600080fd5b50565b613e7c81613686565b8114613e8757600080fd5b50565b613e9381613692565b8114613e9e57600080fd5b50565b613eaa8161369c565b8114613eb557600080fd5b50565b613ec1816136e8565b8114613ecc57600080fd5b5056fea2646970667358221220e5de742459c36b9752dcfc6f6bc9113f1cddabdb5329346277d53959a6469ab564736f6c63430008040033",
  "linkReferences": {},
  "deployedLinkReferences": {}
}