{
  "_format": "hh-sol-artifact-1",
  "contractName": "AirdropHouses",
  "sourceName": "contracts/AirdropHouses.sol",
  "abi": [
    {
      "inputs": [],
      "stateMutability": "nonpayable",
      "type": "constructor"
    },
    {
      "anonymous": false,
      "inputs": [
        {
          "indexed": true,
          "internalType": "address",
          "name": "owner",
          "type": "address"
        },
        {
          "indexed": true,
          "internalType": "address",
          "name": "approved",
          "type": "address"
        },
        {
          "indexed": true,
          "internalType": "uint256",
          "name": "tokenId",
          "type": "uint256"
        }
      ],
      "name": "Approval",
      "type": "event"
    },
    {
      "anonymous": false,
      "inputs": [
        {
          "indexed": true,
          "internalType": "address",
          "name": "owner",
          "type": "address"
        },
        {
          "indexed": true,
          "internalType": "address",
          "name": "operator",
          "type": "address"
        },
        {
          "indexed": false,
          "internalType": "bool",
          "name": "approved",
          "type": "bool"
        }
      ],
      "name": "ApprovalForAll",
      "type": "event"
    },
    {
      "anonymous": false,
      "inputs": [
        {
          "indexed": false,
          "internalType": "string",
          "name": "newURI",
          "type": "string"
        }
      ],
      "name": "BaseURIChanged",
      "type": "event"
    },
    {
      "anonymous": false,
      "inputs": [
        {
          "indexed": false,
          "internalType": "uint256",
          "name": "_batchDuration",
          "type": "uint256"
        }
      ],
      "name": "BatchDurationChanged",
      "type": "event"
    },
    {
      "anonymous": false,
      "inputs": [
        {
          "indexed": false,
          "internalType": "uint256",
          "name": "_groupNum",
          "type": "uint256"
        },
        {
          "indexed": false,
          "internalType": "bytes32",
          "name": "_merkleRoot",
          "type": "bytes32"
        }
      ],
      "name": "MerkelRootChanged",
      "type": "event"
    },
    {
      "anonymous": false,
      "inputs": [
        {
          "indexed": true,
          "internalType": "address",
          "name": "_to",
          "type": "address"
        },
        {
          "indexed": false,
          "internalType": "uint256",
          "name": "_number",
          "type": "uint256"
        }
      ],
      "name": "MintNFT",
      "type": "event"
    },
    {
      "anonymous": false,
      "inputs": [
        {
          "indexed": true,
          "internalType": "address",
          "name": "previousOwner",
          "type": "address"
        },
        {
          "indexed": true,
          "internalType": "address",
          "name": "newOwner",
          "type": "address"
        }
      ],
      "name": "OwnershipTransferred",
      "type": "event"
    },
    {
      "anonymous": false,
      "inputs": [
        {
          "indexed": false,
          "internalType": "uint256",
          "name": "_risingPrice",
          "type": "uint256"
        }
      ],
      "name": "RisingPriceChanged",
      "type": "event"
    },
    {
      "anonymous": false,
      "inputs": [
        {
          "indexed": false,
          "internalType": "uint256",
          "name": "_saleMode",
          "type": "uint256"
        }
      ],
      "name": "SaleModeChanged",
      "type": "event"
    },
    {
      "anonymous": false,
      "inputs": [
        {
          "indexed": false,
          "internalType": "uint256",
          "name": "_sheetsPerPrice",
          "type": "uint256"
        }
      ],
      "name": "SheetsPerPriceChanged",
      "type": "event"
    },
    {
      "anonymous": false,
      "inputs": [
        {
          "indexed": false,
          "internalType": "uint256",
          "name": "startDate",
          "type": "uint256"
        }
      ],
      "name": "StartDateChanged",
      "type": "event"
    },
    {
      "anonymous": false,
      "inputs": [
        {
          "indexed": true,
          "internalType": "address",
          "name": "from",
          "type": "address"
        },
        {
          "indexed": true,
          "internalType": "address",
          "name": "to",
          "type": "address"
        },
        {
          "indexed": true,
          "internalType": "uint256",
          "name": "tokenId",
          "type": "uint256"
        }
      ],
      "name": "Transfer",
      "type": "event"
    },
    {
      "anonymous": false,
      "inputs": [
        {
          "indexed": false,
          "internalType": "uint256",
          "name": "_publicMintLimit",
          "type": "uint256"
        }
      ],
      "name": "publicMintLimitChanged",
      "type": "event"
    },
    {
      "inputs": [
        {
          "internalType": "address",
          "name": "to",
          "type": "address"
        },
        {
          "internalType": "uint256",
          "name": "tokenId",
          "type": "uint256"
        }
      ],
      "name": "approve",
      "outputs": [],
      "stateMutability": "nonpayable",
      "type": "function"
    },
    {
      "inputs": [
        {
          "internalType": "address",
          "name": "owner",
          "type": "address"
        }
      ],
      "name": "balanceOf",
      "outputs": [
        {
          "internalType": "uint256",
          "name": "",
          "type": "uint256"
        }
      ],
      "stateMutability": "view",
      "type": "function"
    },
    {
      "inputs": [],
      "name": "batchDuration",
      "outputs": [
        {
          "internalType": "uint256",
          "name": "",
          "type": "uint256"
        }
      ],
      "stateMutability": "view",
      "type": "function"
    },
    {
      "inputs": [],
      "name": "count",
      "outputs": [
        {
          "internalType": "uint256",
          "name": "",
          "type": "uint256"
        }
      ],
      "stateMutability": "view",
      "type": "function"
    },
    {
      "inputs": [],
      "name": "fromLastPriceTimeToNow",
      "outputs": [
        {
          "internalType": "uint256",
          "name": "",
          "type": "uint256"
        }
      ],
      "stateMutability": "view",
      "type": "function"
    },
    {
      "inputs": [
        {
          "internalType": "uint256",
          "name": "tokenId",
          "type": "uint256"
        }
      ],
      "name": "getApproved",
      "outputs": [
        {
          "internalType": "address",
          "name": "",
          "type": "address"
        }
      ],
      "stateMutability": "view",
      "type": "function"
    },
    {
      "inputs": [],
      "name": "getBatchNum",
      "outputs": [
        {
          "internalType": "uint256",
          "name": "",
          "type": "uint256"
        }
      ],
      "stateMutability": "view",
      "type": "function"
    },
    {
      "inputs": [],
      "name": "getCurrentTimestamp",
      "outputs": [
        {
          "internalType": "uint256",
          "name": "",
          "type": "uint256"
        }
      ],
      "stateMutability": "view",
      "type": "function"
    },
    {
      "inputs": [],
      "name": "getLeftPresale",
      "outputs": [
        {
          "internalType": "uint256",
          "name": "",
          "type": "uint256"
        }
      ],
      "stateMutability": "view",
      "type": "function"
    },
    {
      "inputs": [],
      "name": "getTimePast",
      "outputs": [
        {
          "internalType": "uint256",
          "name": "",
          "type": "uint256"
        }
      ],
      "stateMutability": "view",
      "type": "function"
    },
    {
      "inputs": [
        {
          "internalType": "address",
          "name": "owner",
          "type": "address"
        },
        {
          "internalType": "address",
          "name": "operator",
          "type": "address"
        }
      ],
      "name": "isApprovedForAll",
      "outputs": [
        {
          "internalType": "bool",
          "name": "",
          "type": "bool"
        }
      ],
      "stateMutability": "view",
      "type": "function"
    },
    {
      "inputs": [],
      "name": "name",
      "outputs": [
        {
          "internalType": "string",
          "name": "",
          "type": "string"
        }
      ],
      "stateMutability": "view",
      "type": "function"
    },
    {
      "inputs": [],
      "name": "owner",
      "outputs": [
        {
          "internalType": "address",
          "name": "",
          "type": "address"
        }
      ],
      "stateMutability": "view",
      "type": "function"
    },
    {
      "inputs": [
        {
          "internalType": "uint256",
          "name": "tokenId",
          "type": "uint256"
        }
      ],
      "name": "ownerOf",
      "outputs": [
        {
          "internalType": "address",
          "name": "",
          "type": "address"
        }
      ],
      "stateMutability": "view",
      "type": "function"
    },
    {
      "inputs": [
        {
          "internalType": "address",
          "name": "recipiant",
          "type": "address"
        },
        {
          "internalType": "uint256",
          "name": "number",
          "type": "uint256"
        }
      ],
      "name": "payToMint",
      "outputs": [],
      "stateMutability": "payable",
      "type": "function"
    },
    {
      "inputs": [
        {
          "internalType": "address",
          "name": "recipiant",
          "type": "address"
        },
        {
          "internalType": "uint256",
          "name": "limit",
          "type": "uint256"
        },
        {
          "internalType": "bytes32[]",
          "name": "proof",
          "type": "bytes32[]"
        },
        {
          "internalType": "uint256",
          "name": "number",
          "type": "uint256"
        }
      ],
      "name": "payToWhiteMint",
      "outputs": [],
      "stateMutability": "payable",
      "type": "function"
    },
    {
      "inputs": [],
      "name": "price",
      "outputs": [
        {
          "internalType": "uint256",
          "name": "",
          "type": "uint256"
        }
      ],
      "stateMutability": "view",
      "type": "function"
    },
    {
      "inputs": [],
      "name": "renounceOwnership",
      "outputs": [],
      "stateMutability": "nonpayable",
      "type": "function"
    },
    {
      "inputs": [
        {
          "internalType": "address",
          "name": "to",
          "type": "address"
        },
        {
          "internalType": "uint256",
          "name": "number",
          "type": "uint256"
        }
      ],
      "name": "safeMint",
      "outputs": [],
      "stateMutability": "nonpayable",
      "type": "function"
    },
    {
      "inputs": [
        {
          "internalType": "address",
          "name": "from",
          "type": "address"
        },
        {
          "internalType": "address",
          "name": "to",
          "type": "address"
        },
        {
          "internalType": "uint256",
          "name": "tokenId",
          "type": "uint256"
        }
      ],
      "name": "safeTransferFrom",
      "outputs": [],
      "stateMutability": "nonpayable",
      "type": "function"
    },
    {
      "inputs": [
        {
          "internalType": "address",
          "name": "from",
          "type": "address"
        },
        {
          "internalType": "address",
          "name": "to",
          "type": "address"
        },
        {
          "internalType": "uint256",
          "name": "tokenId",
          "type": "uint256"
        },
        {
          "internalType": "bytes",
          "name": "_data",
          "type": "bytes"
        }
      ],
      "name": "safeTransferFrom",
      "outputs": [],
      "stateMutability": "nonpayable",
      "type": "function"
    },
    {
      "inputs": [],
      "name": "saleMode",
      "outputs": [
        {
          "internalType": "uint256",
          "name": "",
          "type": "uint256"
        }
      ],
      "stateMutability": "view",
      "type": "function"
    },
    {
      "inputs": [
        {
          "internalType": "address",
          "name": "operator",
          "type": "address"
        },
        {
          "internalType": "bool",
          "name": "approved",
          "type": "bool"
        }
      ],
      "name": "setApprovalForAll",
      "outputs": [],
      "stateMutability": "nonpayable",
      "type": "function"
    },
    {
      "inputs": [
        {
          "internalType": "string",
          "name": "newURI",
          "type": "string"
        }
      ],
      "name": "setBaseURI",
      "outputs": [],
      "stateMutability": "nonpayable",
      "type": "function"
    },
    {
      "inputs": [
        {
          "internalType": "uint256",
          "name": "batchNum",
          "type": "uint256"
        },
        {
          "internalType": "uint256",
          "name": "groupNum",
          "type": "uint256"
        },
        {
          "internalType": "bytes32",
          "name": "merkleRoot",
          "type": "bytes32"
        }
      ],
      "name": "setMerkleRoot",
      "outputs": [],
      "stateMutability": "nonpayable",
      "type": "function"
    },
    {
      "inputs": [
        {
          "internalType": "uint256",
          "name": "publicMintLimit",
          "type": "uint256"
        }
      ],
      "name": "setPublicMintLimit",
      "outputs": [],
      "stateMutability": "nonpayable",
      "type": "function"
    },
    {
      "inputs": [
        {
          "internalType": "uint256",
          "name": "risingPrice",
          "type": "uint256"
        }
      ],
      "name": "setRisingPrice",
      "outputs": [],
      "stateMutability": "nonpayable",
      "type": "function"
    },
    {
      "inputs": [
        {
          "internalType": "uint256",
          "name": "mode",
          "type": "uint256"
        }
      ],
      "name": "setSaleMode",
      "outputs": [],
      "stateMutability": "nonpayable",
      "type": "function"
    },
    {
      "inputs": [
        {
          "internalType": "uint256",
          "name": "sheets",
          "type": "uint256"
        }
      ],
      "name": "setSheetsPerPrice",
      "outputs": [],
      "stateMutability": "nonpayable",
      "type": "function"
    },
    {
      "inputs": [
        {
          "internalType": "uint256",
          "name": "batchDuration",
          "type": "uint256"
        }
      ],
      "name": "setTimePerBatch",
      "outputs": [],
      "stateMutability": "nonpayable",
      "type": "function"
    },
    {
      "inputs": [],
      "name": "sheetsPerPrice",
      "outputs": [
        {
          "internalType": "uint256",
          "name": "",
          "type": "uint256"
        }
      ],
      "stateMutability": "view",
      "type": "function"
    },
    {
      "inputs": [
        {
          "internalType": "bytes4",
          "name": "interfaceId",
          "type": "bytes4"
        }
      ],
      "name": "supportsInterface",
      "outputs": [
        {
          "internalType": "bool",
          "name": "",
          "type": "bool"
        }
      ],
      "stateMutability": "view",
      "type": "function"
    },
    {
      "inputs": [],
      "name": "symbol",
      "outputs": [
        {
          "internalType": "string",
          "name": "",
          "type": "string"
        }
      ],
      "stateMutability": "view",
      "type": "function"
    },
    {
      "inputs": [
        {
          "internalType": "uint256",
          "name": "tokenId",
          "type": "uint256"
        }
      ],
      "name": "tokenURI",
      "outputs": [
        {
          "internalType": "string",
          "name": "",
          "type": "string"
        }
      ],
      "stateMutability": "view",
      "type": "function"
    },
    {
      "inputs": [],
      "name": "totalCount",
      "outputs": [
        {
          "internalType": "uint256",
          "name": "",
          "type": "uint256"
        }
      ],
      "stateMutability": "pure",
      "type": "function"
    },
    {
      "inputs": [
        {
          "internalType": "address",
          "name": "from",
          "type": "address"
        },
        {
          "internalType": "address",
          "name": "to",
          "type": "address"
        },
        {
          "internalType": "uint256",
          "name": "tokenId",
          "type": "uint256"
        }
      ],
      "name": "transferFrom",
      "outputs": [],
      "stateMutability": "nonpayable",
      "type": "function"
    },
    {
      "inputs": [
        {
          "internalType": "address",
          "name": "newOwner",
          "type": "address"
        }
      ],
      "name": "transferOwnership",
      "outputs": [],
      "stateMutability": "nonpayable",
      "type": "function"
    },
    {
      "inputs": [
        {
          "internalType": "uint256",
          "name": "batchNum",
          "type": "uint256"
        },
        {
          "internalType": "bytes32",
          "name": "leaf",
          "type": "bytes32"
        },
        {
          "internalType": "uint256",
          "name": "limit",
          "type": "uint256"
        },
        {
          "internalType": "bytes32[]",
          "name": "proof",
          "type": "bytes32[]"
        }
      ],
      "name": "verifyWhitelist",
      "outputs": [
        {
          "internalType": "bool",
          "name": "",
          "type": "bool"
        }
      ],
      "stateMutability": "view",
      "type": "function"
    },
    {
      "inputs": [],
      "name": "withdraw",
      "outputs": [],
      "stateMutability": "nonpayable",
      "type": "function"
    }
  ],
  "bytecode": "0x60806040526000600855600f600a55601e600b556005600c55600a600e55611c20600f5560056010553480156200003557600080fd5b506040518060400160405280600d81526020017f41697244726f70486f75736573000000000000000000000000000000000000008152506040518060400160405280600381526020017f41444800000000000000000000000000000000000000000000000000000000008152508160009080519060200190620000ba9291906200039e565b508060019080519060200190620000d39291906200039e565b505050620000f6620000ea620002d060201b60201c565b620002d860201b60201c565b7f96acecf251fdbb6eef35fde352b9afa11bdb198444de51d20aa190be3da3498f60001b60096000600181526020019081526020016000206000600a8152602001908152602001600020819055507ff45563d140b2f28102755980ec9e98d1fa35a83720a38bbd0616d4e3016030a460001b6009600060018152602001908152602001600020600060078152602001908152602001600020819055507f86b477c107683bf6bcb4fc7da646b68bbeb71ac92d3e509fac621e0f8179561c60001b6009600060018152602001908152602001600020600060018152602001908152602001600020819055507f76871e49c2fb1d6cbcc657139c829cb7e7187b370ddddeaeb90ef60450f151e160001b6009600060028152602001908152602001600020600060058152602001908152602001600020819055507f7fe1f522b96df4e466cbe9dba168ef6be4722a57ecbb7afb85e4f251a671dc9060001b6009600060028152602001908152602001600020600060068152602001908152602001600020819055507ff7e14cb1df408269baef2f9dac5873cf0df451bd989680601f5b99b97fa5de4b60001b600960006003815260200190815260200160002060006007815260200190815260200160002081905550620004b3565b600033905090565b6000600660009054906101000a900473ffffffffffffffffffffffffffffffffffffffff16905081600660006101000a81548173ffffffffffffffffffffffffffffffffffffffff021916908373ffffffffffffffffffffffffffffffffffffffff1602179055508173ffffffffffffffffffffffffffffffffffffffff168173ffffffffffffffffffffffffffffffffffffffff167f8be0079c531659141344cd1fd0a4f28419497f9722a3daafe3b4186f6b6457e060405160405180910390a35050565b828054620003ac906200044e565b90600052602060002090601f016020900481019282620003d057600085556200041c565b82601f10620003eb57805160ff19168380011785556200041c565b828001600101855582156200041c579182015b828111156200041b578251825591602001919060010190620003fe565b5b5090506200042b91906200042f565b5090565b5b808211156200044a57600081600090555060010162000430565b5090565b600060028204905060018216806200046757607f821691505b602082108114156200047e576200047d62000484565b5b50919050565b7f4e487b7100000000000000000000000000000000000000000000000000000000600052602260045260246000fd5b614b1d80620004c36000396000f3fe6080604052600436106102305760003560e01c806367d509201161012e578063a035b1fe116100ab578063c87b56dd1161006f578063c87b56dd146107e7578063c958518014610824578063e985e9c51461084f578063ef3e067c1461088c578063f2fde38b146108b557610230565b8063a035b1fe14610704578063a14481941461072f578063a22cb46514610758578063b88d4fde14610781578063c8713cc5146107aa57610230565b80638da5cb5b116100f25780638da5cb5b1461062f578063926af55f1461065a57806395d89b41146106855780639b961ceb146106b05780639c9563a2146106d957610230565b806367d509201461055e5780636c9230db1461058757806370a08231146105b2578063715018a6146105ef578063757415a41461060657610230565b80631c82e523116101bc5780633ccfd60b116101805780633ccfd60b1461049c57806342842e0e146104b357806355f804b3146104dc5780635d0e2206146105055780636352211e1461052157610230565b80631c82e523146103c957806323b872dd146103f457806334eafb111461041d57806339b516aa146104485780633b31526a1461047157610230565b8063081812fc11610203578063081812fc146102f1578063095ea7b31461032e5780630deed6a61461035757806312da217b146103825780631aa6fa0b146103ad57610230565b806301ffc9a71461023557806306661abd1461027257806306fdde031461029d5780630745e9ac146102c8575b600080fd5b34801561024157600080fd5b5061025c600480360381019061025791906133e3565b6108de565b6040516102699190613b04565b60405180910390f35b34801561027e57600080fd5b506102876109c0565b6040516102949190613e81565b60405180910390f35b3480156102a957600080fd5b506102b26109d1565b6040516102bf9190613b1f565b60405180910390f35b3480156102d457600080fd5b506102ef60048036038101906102ea9190613476565b610a63565b005b3480156102fd57600080fd5b5061031860048036038101906103139190613476565b610b3c565b6040516103259190613a9d565b60405180910390f35b34801561033a57600080fd5b506103556004803603810190610350919061332c565b610bc1565b005b34801561036357600080fd5b5061036c610cd9565b6040516103799190613e81565b60405180910390f35b34801561038e57600080fd5b50610397610ce3565b6040516103a49190613e81565b60405180910390f35b6103c760048036038101906103c2919061332c565b610d21565b005b3480156103d557600080fd5b506103de610f03565b6040516103eb9190613e81565b60405180910390f35b34801561040057600080fd5b5061041b60048036038101906104169190613226565b610f18565b005b34801561042957600080fd5b50610432610f78565b60405161043f9190613e81565b60405180910390f35b34801561045457600080fd5b5061046f600480360381019061046a9190613476565b610f82565b005b34801561047d57600080fd5b5061048661103f565b6040516104939190613e81565b60405180910390f35b3480156104a857600080fd5b506104b1611091565b005b3480156104bf57600080fd5b506104da60048036038101906104d59190613226565b611156565b005b3480156104e857600080fd5b5061050360048036038101906104fe9190613435565b611176565b005b61051f600480360381019061051a9190613368565b611243565b005b34801561052d57600080fd5b5061054860048036038101906105439190613476565b61153c565b6040516105559190613a9d565b60405180910390f35b34801561056a57600080fd5b506105856004803603810190610580919061351a565b6115ee565b005b34801561059357600080fd5b5061059c6116d1565b6040516105a99190613e81565b60405180910390f35b3480156105be57600080fd5b506105d960048036038101906105d491906131c1565b6116d9565b6040516105e69190613e81565b60405180910390f35b3480156105fb57600080fd5b50610604611791565b005b34801561061257600080fd5b5061062d60048036038101906106289190613476565b611819565b005b34801561063b57600080fd5b506106446118d6565b6040516106519190613a9d565b60405180910390f35b34801561066657600080fd5b5061066f611900565b60405161067c9190613e81565b60405180910390f35b34801561069157600080fd5b5061069a61190a565b6040516106a79190613b1f565b60405180910390f35b3480156106bc57600080fd5b506106d760048036038101906106d29190613476565b61199c565b005b3480156106e557600080fd5b506106ee611a59565b6040516106fb9190613e81565b60405180910390f35b34801561071057600080fd5b50610719611a63565b6040516107269190613e81565b60405180910390f35b34801561073b57600080fd5b506107566004803603810190610751919061332c565b611b0a565b005b34801561076457600080fd5b5061077f600480360381019061077a91906132f0565b611c1a565b005b34801561078d57600080fd5b506107a860048036038101906107a39190613275565b611c30565b005b3480156107b657600080fd5b506107d160048036038101906107cc919061349f565b611c92565b6040516107de9190613b04565b60405180910390f35b3480156107f357600080fd5b5061080e60048036038101906108099190613476565b611dc9565b60405161081b9190613b1f565b60405180910390f35b34801561083057600080fd5b50610839611e7c565b6040516108469190613e81565b60405180910390f35b34801561085b57600080fd5b50610876600480360381019061087191906131ea565b611e91565b6040516108839190613b04565b60405180910390f35b34801561089857600080fd5b506108b360048036038101906108ae9190613476565b611f25565b005b3480156108c157600080fd5b506108dc60048036038101906108d791906131c1565b611fe2565b005b60007f80ac58cd000000000000000000000000000000000000000000000000000000007bffffffffffffffffffffffffffffffffffffffffffffffffffffffff1916827bffffffffffffffffffffffffffffffffffffffffffffffffffffffff191614806109a957507f5b5e139f000000000000000000000000000000000000000000000000000000007bffffffffffffffffffffffffffffffffffffffffffffffffffffffff1916827bffffffffffffffffffffffffffffffffffffffffffffffffffffffff1916145b806109b957506109b8826120da565b5b9050919050565b60006109cc6007612144565b905090565b6060600080546109e090614190565b80601f0160208091040260200160405190810160405280929190818152602001828054610a0c90614190565b8015610a595780601f10610a2e57610100808354040283529160200191610a59565b820191906000526020600020905b815481529060010190602001808311610a3c57829003601f168201915b5050505050905090565b610a6b612152565b73ffffffffffffffffffffffffffffffffffffffff16610a896118d6565b73ffffffffffffffffffffffffffffffffffffffff1614610adf576040517f08c379a0000000000000000000000000000000000000000000000000000000008152600401610ad690613d41565b60405180910390fd5b806008819055506001811415610b0257610af84261215a565b610b014261219b565b5b7fcab9c58670efd675f37069fb32cc379dbb18f1376b4f1d1a2d01404c55bf748281604051610b319190613e81565b60405180910390a150565b6000610b47826121a5565b610b86576040517f08c379a0000000000000000000000000000000000000000000000000000000008152600401610b7d90613d01565b60405180910390fd5b6004600083815260200190815260200160002060009054906101000a900473ffffffffffffffffffffffffffffffffffffffff169050919050565b6000610bcc8261153c565b90508073ffffffffffffffffffffffffffffffffffffffff168373ffffffffffffffffffffffffffffffffffffffff161415610c3d576040517f08c379a0000000000000000000000000000000000000000000000000000000008152600401610c3490613da1565b60405180910390fd5b8073ffffffffffffffffffffffffffffffffffffffff16610c5c612152565b73ffffffffffffffffffffffffffffffffffffffff161480610c8b5750610c8a81610c85612152565b611e91565b5b610cca576040517f08c379a0000000000000000000000000000000000000000000000000000000008152600401610cc190613c81565b60405180910390fd5b610cd48383612211565b505050565b6000600854905090565b6000806001600f54610cf3610f03565b610cfd9190614011565b610d079190613fbb565b90506003811015610d185780610d1b565b60035b91505090565b600260085414610d66576040517f08c379a0000000000000000000000000000000000000000000000000000000008152600401610d5d90613dc1565b60405180910390fd5b80610d6f611a63565b610d799190614042565b341015610dbb576040517f08c379a0000000000000000000000000000000000000000000000000000000008152600401610db290613d21565b60405180910390fd5b610dc36109c0565b610dcb610f78565b610dd5919061409c565b811115610e17576040517f08c379a0000000000000000000000000000000000000000000000000000000008152600401610e0e90613be1565b60405180910390fd5b60105481610e24846116d9565b610e2e9190613fbb565b1115610e6f576040517f08c379a0000000000000000000000000000000000000000000000000000000008152600401610e6690613c61565b60405180910390fd5b60005b81811015610eb0576000610e866007612144565b9050610e9260076122ca565b610e9c84826122e0565b508080610ea8906141f3565b915050610e72565b508173ffffffffffffffffffffffffffffffffffffffff167f1f89f147a58d1673945cf416187db98efc8208408c011b91887acd59fd8523c382604051610ef79190613e81565b60405180910390a25050565b600060115442610f13919061409c565b905090565b610f29610f23612152565b826124ba565b610f68576040517f08c379a0000000000000000000000000000000000000000000000000000000008152600401610f5f90613e01565b60405180910390fd5b610f73838383612598565b505050565b60006107d0905090565b610f8a612152565b73ffffffffffffffffffffffffffffffffffffffff16610fa86118d6565b73ffffffffffffffffffffffffffffffffffffffff1614610ffe576040517f08c379a0000000000000000000000000000000000000000000000000000000008152600401610ff590613d41565b60405180910390fd5b80600c819055507f8495ad6bb8245e65bb8dce76e79f1fdc7908dddbd23453171745fbd6ad48e186816040516110349190613e81565b60405180910390a150565b60006003600e546110509190614042565b61105a6007612144565b101561108957600e5461106d6007612144565b611077919061426a565b600e54611084919061409c565b61108c565b60005b905090565b611099612152565b73ffffffffffffffffffffffffffffffffffffffff166110b76118d6565b73ffffffffffffffffffffffffffffffffffffffff161461110d576040517f08c379a000000000000000000000000000000000000000000000000000000000815260040161110490613d41565b60405180910390fd5b3373ffffffffffffffffffffffffffffffffffffffff166108fc479081150290604051600060405180830381858888f19350505050158015611153573d6000803e3d6000fd5b50565b61117183838360405180602001604052806000815250611c30565b505050565b61117e612152565b73ffffffffffffffffffffffffffffffffffffffff1661119c6118d6565b73ffffffffffffffffffffffffffffffffffffffff16146111f2576040517f08c379a00000000000000000000000000000000000000000000000000000000081526004016111e990613d41565b60405180910390fd5b8060129080519060200190611208929190612f3a565b507f5411e8ebf1636d9e83d5fc4900bf80cbac82e8790da2a4c94db4895e889eedf6816040516112389190613b1f565b60405180910390a150565b600160085414611288576040517f08c379a000000000000000000000000000000000000000000000000000000000815260040161127f90613e21565b60405180910390fd5b6003600e546112979190614042565b6112a16007612144565b106112e1576040517f08c379a00000000000000000000000000000000000000000000000000000000081526004016112d890613de1565b60405180910390fd5b600f54600a6112f09190614042565b6112f8610f03565b10611338576040517f08c379a000000000000000000000000000000000000000000000000000000000815260040161132f90613b41565b60405180910390fd5b80611341611a63565b61134b9190614042565b34101561138d576040517f08c379a000000000000000000000000000000000000000000000000000000000815260040161138490613d21565b60405180910390fd5b8281611398866116d9565b6113a29190613fbb565b11156113e3576040517f08c379a00000000000000000000000000000000000000000000000000000000081526004016113da90613d61565b60405180910390fd5b806113ec61103f565b101561142d576040517f08c379a000000000000000000000000000000000000000000000000000000000815260040161142490613e61565b60405180910390fd5b600061144a61143a610ce3565b611443876127ff565b8686611c92565b90508061148c576040517f08c379a000000000000000000000000000000000000000000000000000000000815260040161148390613d81565b60405180910390fd5b8161149561103f565b14156114a5576114a44261219b565b5b60005b828110156114e65760006114bc6007612144565b90506114c860076122ca565b6114d287826122e0565b5080806114de906141f3565b9150506114a8565b508473ffffffffffffffffffffffffffffffffffffffff167f1f89f147a58d1673945cf416187db98efc8208408c011b91887acd59fd8523c38360405161152d9190613e81565b60405180910390a25050505050565b6000806002600084815260200190815260200160002060009054906101000a900473ffffffffffffffffffffffffffffffffffffffff169050600073ffffffffffffffffffffffffffffffffffffffff168173ffffffffffffffffffffffffffffffffffffffff1614156115e5576040517f08c379a00000000000000000000000000000000000000000000000000000000081526004016115dc90613cc1565b60405180910390fd5b80915050919050565b6115f6612152565b73ffffffffffffffffffffffffffffffffffffffff166116146118d6565b73ffffffffffffffffffffffffffffffffffffffff161461166a576040517f08c379a000000000000000000000000000000000000000000000000000000000815260040161166190613d41565b60405180910390fd5b80600960008581526020019081526020016000206000848152602001908152602001600020819055507f326c4fb4b40f17ba7e065a70f4368691128199363ab7a9a7e9677f50b2b5b13082826040516116c4929190613e9c565b60405180910390a1505050565b600042905090565b60008073ffffffffffffffffffffffffffffffffffffffff168273ffffffffffffffffffffffffffffffffffffffff16141561174a576040517f08c379a000000000000000000000000000000000000000000000000000000000815260040161174190613ca1565b60405180910390fd5b600360008373ffffffffffffffffffffffffffffffffffffffff1673ffffffffffffffffffffffffffffffffffffffff168152602001908152602001600020549050919050565b611799612152565b73ffffffffffffffffffffffffffffffffffffffff166117b76118d6565b73ffffffffffffffffffffffffffffffffffffffff161461180d576040517f08c379a000000000000000000000000000000000000000000000000000000000815260040161180490613d41565b60405180910390fd5b611817600061282f565b565b611821612152565b73ffffffffffffffffffffffffffffffffffffffff1661183f6118d6565b73ffffffffffffffffffffffffffffffffffffffff1614611895576040517f08c379a000000000000000000000000000000000000000000000000000000000815260040161188c90613d41565b60405180910390fd5b80600f819055507fe7d683309f8964a9b4e2b4fb63bea677e04453be654e25ed55ec6a458348f040816040516118cb9190613e81565b60405180910390a150565b6000600660009054906101000a900473ffffffffffffffffffffffffffffffffffffffff16905090565b6000600e54905090565b60606001805461191990614190565b80601f016020809104026020016040519081016040528092919081815260200182805461194590614190565b80156119925780601f1061196757610100808354040283529160200191611992565b820191906000526020600020905b81548152906001019060200180831161197557829003601f168201915b5050505050905090565b6119a4612152565b73ffffffffffffffffffffffffffffffffffffffff166119c26118d6565b73ffffffffffffffffffffffffffffffffffffffff1614611a18576040517f08c379a0000000000000000000000000000000000000000000000000000000008152600401611a0f90613d41565b60405180910390fd5b80600e819055507f6bee2141d443a3d4859763efbb7f2c38181cf9d5dac82476eedf037736ca748681604051611a4e9190613e81565b60405180910390a150565b6000600f54905090565b6000806008541415611a7957600a549050611b07565b60026008541415611a8e57600b549050611b07565b6000600e54611a9d6007612144565b611aa79190614011565b90506000600f54611ab6610f03565b611ac09190614011565b90506000818311611ad15781611ad3565b825b9050600c546002821015611ae75781611aea565b60025b611af49190614042565b600a54611b019190613fbb565b93505050505b90565b611b12612152565b73ffffffffffffffffffffffffffffffffffffffff16611b306118d6565b73ffffffffffffffffffffffffffffffffffffffff1614611b86576040517f08c379a0000000000000000000000000000000000000000000000000000000008152600401611b7d90613d41565b60405180910390fd5b60005b81811015611bc7576000611b9d6007612144565b9050611ba960076122ca565b611bb384826128f5565b508080611bbf906141f3565b915050611b89565b508173ffffffffffffffffffffffffffffffffffffffff167f1f89f147a58d1673945cf416187db98efc8208408c011b91887acd59fd8523c382604051611c0e9190613e81565b60405180910390a25050565b611c2c611c25612152565b8383612913565b5050565b611c41611c3b612152565b836124ba565b611c80576040517f08c379a0000000000000000000000000000000000000000000000000000000008152600401611c7790613e01565b60405180910390fd5b611c8c84848484612a80565b50505050565b60008084905060005b8351811015611d61576000848281518110611cdf577f4e487b7100000000000000000000000000000000000000000000000000000000600052603260045260246000fd5b6020026020010151905080831015611d21578281604051602001611d04929190613a42565b604051602081830303815290604052805190602001209250611d4d565b8083604051602001611d34929190613a42565b6040516020818303038152906040528051906020012092505b508080611d59906141f3565b915050611c9b565b506000600190505b868111611dba5781600960008381526020019081526020016000206000878152602001908152602001600020541415611da757600192505050611dc1565b8080611db2906141f3565b915050611d69565b5060009150505b949350505050565b6060611dd4826121a5565b611e13576040517f08c379a0000000000000000000000000000000000000000000000000000000008152600401611e0a90613e41565b60405180910390fd5b6000611e1d612adc565b90506000815111611e3d5760405180602001604052806000815250611e74565b80611e53600185611e4e9190613fbb565b612b6e565b604051602001611e64929190613a6e565b6040516020818303038152906040525b915050919050565b6000600d5442611e8c919061409c565b905090565b6000600560008473ffffffffffffffffffffffffffffffffffffffff1673ffffffffffffffffffffffffffffffffffffffff16815260200190815260200160002060008373ffffffffffffffffffffffffffffffffffffffff1673ffffffffffffffffffffffffffffffffffffffff16815260200190815260200160002060009054906101000a900460ff16905092915050565b611f2d612152565b73ffffffffffffffffffffffffffffffffffffffff16611f4b6118d6565b73ffffffffffffffffffffffffffffffffffffffff1614611fa1576040517f08c379a0000000000000000000000000000000000000000000000000000000008152600401611f9890613d41565b60405180910390fd5b806010819055507f925f0509f81489238c7d12ec8acec9e0cc410642391ee2a6ca38b3197637f89a81604051611fd79190613e81565b60405180910390a150565b611fea612152565b73ffffffffffffffffffffffffffffffffffffffff166120086118d6565b73ffffffffffffffffffffffffffffffffffffffff161461205e576040517f08c379a000000000000000000000000000000000000000000000000000000000815260040161205590613d41565b60405180910390fd5b600073ffffffffffffffffffffffffffffffffffffffff168173ffffffffffffffffffffffffffffffffffffffff1614156120ce576040517f08c379a00000000000000000000000000000000000000000000000000000000081526004016120c590613b81565b60405180910390fd5b6120d78161282f565b50565b60007f01ffc9a7000000000000000000000000000000000000000000000000000000007bffffffffffffffffffffffffffffffffffffffffffffffffffffffff1916827bffffffffffffffffffffffffffffffffffffffffffffffffffffffff1916149050919050565b600081600001549050919050565b600033905090565b806011819055507f340656eb96ec8f1ab4ba468e243fe2191f09ec5e2a832f96985750414221a7a5816040516121909190613e81565b60405180910390a150565b80600d8190555050565b60008073ffffffffffffffffffffffffffffffffffffffff166002600084815260200190815260200160002060009054906101000a900473ffffffffffffffffffffffffffffffffffffffff1673ffffffffffffffffffffffffffffffffffffffff1614159050919050565b816004600083815260200190815260200160002060006101000a81548173ffffffffffffffffffffffffffffffffffffffff021916908373ffffffffffffffffffffffffffffffffffffffff160217905550808273ffffffffffffffffffffffffffffffffffffffff166122848361153c565b73ffffffffffffffffffffffffffffffffffffffff167f8c5be1e5ebec7d5bd14f71427d1e84f3dd0314c0f7b2291e5b200ac8c7c3b92560405160405180910390a45050565b6001816000016000828254019250508190555050565b600073ffffffffffffffffffffffffffffffffffffffff168273ffffffffffffffffffffffffffffffffffffffff161415612350576040517f08c379a000000000000000000000000000000000000000000000000000000000815260040161234790613ce1565b60405180910390fd5b612359816121a5565b15612399576040517f08c379a000000000000000000000000000000000000000000000000000000000815260040161239090613bc1565b60405180910390fd5b6123a560008383612d1b565b6001600360008473ffffffffffffffffffffffffffffffffffffffff1673ffffffffffffffffffffffffffffffffffffffff16815260200190815260200160002060008282546123f59190613fbb565b92505081905550816002600083815260200190815260200160002060006101000a81548173ffffffffffffffffffffffffffffffffffffffff021916908373ffffffffffffffffffffffffffffffffffffffff160217905550808273ffffffffffffffffffffffffffffffffffffffff16600073ffffffffffffffffffffffffffffffffffffffff167fddf252ad1be2c89b69c2b068fc378daa952ba7f163c4a11628f55a4df523b3ef60405160405180910390a46124b660008383612d20565b5050565b60006124c5826121a5565b612504576040517f08c379a00000000000000000000000000000000000000000000000000000000081526004016124fb90613c41565b60405180910390fd5b600061250f8361153c565b90508073ffffffffffffffffffffffffffffffffffffffff168473ffffffffffffffffffffffffffffffffffffffff16148061257e57508373ffffffffffffffffffffffffffffffffffffffff1661256684610b3c565b73ffffffffffffffffffffffffffffffffffffffff16145b8061258f575061258e8185611e91565b5b91505092915050565b8273ffffffffffffffffffffffffffffffffffffffff166125b88261153c565b73ffffffffffffffffffffffffffffffffffffffff161461260e576040517f08c379a000000000000000000000000000000000000000000000000000000000815260040161260590613ba1565b60405180910390fd5b600073ffffffffffffffffffffffffffffffffffffffff168273ffffffffffffffffffffffffffffffffffffffff16141561267e576040517f08c379a000000000000000000000000000000000000000000000000000000000815260040161267590613c01565b60405180910390fd5b612689838383612d1b565b612694600082612211565b6001600360008573ffffffffffffffffffffffffffffffffffffffff1673ffffffffffffffffffffffffffffffffffffffff16815260200190815260200160002060008282546126e4919061409c565b925050819055506001600360008473ffffffffffffffffffffffffffffffffffffffff1673ffffffffffffffffffffffffffffffffffffffff168152602001908152602001600020600082825461273b9190613fbb565b92505081905550816002600083815260200190815260200160002060006101000a81548173ffffffffffffffffffffffffffffffffffffffff021916908373ffffffffffffffffffffffffffffffffffffffff160217905550808273ffffffffffffffffffffffffffffffffffffffff168473ffffffffffffffffffffffffffffffffffffffff167fddf252ad1be2c89b69c2b068fc378daa952ba7f163c4a11628f55a4df523b3ef60405160405180910390a46127fa838383612d20565b505050565b6000816040516020016128129190613a27565b604051602081830303815290604052805190602001209050919050565b6000600660009054906101000a900473ffffffffffffffffffffffffffffffffffffffff16905081600660006101000a81548173ffffffffffffffffffffffffffffffffffffffff021916908373ffffffffffffffffffffffffffffffffffffffff1602179055508173ffffffffffffffffffffffffffffffffffffffff168173ffffffffffffffffffffffffffffffffffffffff167f8be0079c531659141344cd1fd0a4f28419497f9722a3daafe3b4186f6b6457e060405160405180910390a35050565b61290f828260405180602001604052806000815250612d25565b5050565b8173ffffffffffffffffffffffffffffffffffffffff168373ffffffffffffffffffffffffffffffffffffffff161415612982576040517f08c379a000000000000000000000000000000000000000000000000000000000815260040161297990613c21565b60405180910390fd5b80600560008573ffffffffffffffffffffffffffffffffffffffff1673ffffffffffffffffffffffffffffffffffffffff16815260200190815260200160002060008473ffffffffffffffffffffffffffffffffffffffff1673ffffffffffffffffffffffffffffffffffffffff16815260200190815260200160002060006101000a81548160ff0219169083151502179055508173ffffffffffffffffffffffffffffffffffffffff168373ffffffffffffffffffffffffffffffffffffffff167f17307eab39ab6107e8899845ad3d59bd9653f200f220920489ca2b5937696c3183604051612a739190613b04565b60405180910390a3505050565b612a8b848484612598565b612a9784848484612d80565b612ad6576040517f08c379a0000000000000000000000000000000000000000000000000000000008152600401612acd90613b61565b60405180910390fd5b50505050565b606060128054612aeb90614190565b80601f0160208091040260200160405190810160405280929190818152602001828054612b1790614190565b8015612b645780601f10612b3957610100808354040283529160200191612b64565b820191906000526020600020905b815481529060010190602001808311612b4757829003601f168201915b5050505050905090565b60606000821415612bb6576040518060400160405280600181526020017f30000000000000000000000000000000000000000000000000000000000000008152509050612d16565b600082905060005b60008214612be8578080612bd1906141f3565b915050600a82612be19190614011565b9150612bbe565b60008167ffffffffffffffff811115612c2a577f4e487b7100000000000000000000000000000000000000000000000000000000600052604160045260246000fd5b6040519080825280601f01601f191660200182016040528015612c5c5781602001600182028036833780820191505090505b5090505b60008514612d0f57600182612c75919061409c565b9150600a85612c84919061426a565b6030612c909190613fbb565b60f81b818381518110612ccc577f4e487b7100000000000000000000000000000000000000000000000000000000600052603260045260246000fd5b60200101907effffffffffffffffffffffffffffffffffffffffffffffffffffffffffffff1916908160001a905350600a85612d089190614011565b9450612c60565b8093505050505b919050565b505050565b505050565b612d2f83836122e0565b612d3c6000848484612d80565b612d7b576040517f08c379a0000000000000000000000000000000000000000000000000000000008152600401612d7290613b61565b60405180910390fd5b505050565b6000612da18473ffffffffffffffffffffffffffffffffffffffff16612f17565b15612f0a578373ffffffffffffffffffffffffffffffffffffffff1663150b7a02612dca612152565b8786866040518563ffffffff1660e01b8152600401612dec9493929190613ab8565b602060405180830381600087803b158015612e0657600080fd5b505af1925050508015612e3757506040513d601f19601f82011682018060405250810190612e34919061340c565b60015b612eba573d8060008114612e67576040519150601f19603f3d011682016040523d82523d6000602084013e612e6c565b606091505b50600081511415612eb2576040517f08c379a0000000000000000000000000000000000000000000000000000000008152600401612ea990613b61565b60405180910390fd5b805181602001fd5b63150b7a0260e01b7bffffffffffffffffffffffffffffffffffffffffffffffffffffffff1916817bffffffffffffffffffffffffffffffffffffffffffffffffffffffff191614915050612f0f565b600190505b949350505050565b6000808273ffffffffffffffffffffffffffffffffffffffff163b119050919050565b828054612f4690614190565b90600052602060002090601f016020900481019282612f685760008555612faf565b82601f10612f8157805160ff1916838001178555612faf565b82800160010185558215612faf579182015b82811115612fae578251825591602001919060010190612f93565b5b509050612fbc9190612fc0565b5090565b5b80821115612fd9576000816000905550600101612fc1565b5090565b6000612ff0612feb84613eea565b613ec5565b9050808382526020820190508285602086028201111561300f57600080fd5b60005b8581101561303f57816130258882613119565b845260208401935060208301925050600181019050613012565b5050509392505050565b600061305c61305784613f16565b613ec5565b90508281526020810184848401111561307457600080fd5b61307f84828561414e565b509392505050565b600061309a61309584613f47565b613ec5565b9050828152602081018484840111156130b257600080fd5b6130bd84828561414e565b509392505050565b6000813590506130d481614a74565b92915050565b600082601f8301126130eb57600080fd5b81356130fb848260208601612fdd565b91505092915050565b60008135905061311381614a8b565b92915050565b60008135905061312881614aa2565b92915050565b60008135905061313d81614ab9565b92915050565b60008151905061315281614ab9565b92915050565b600082601f83011261316957600080fd5b8135613179848260208601613049565b91505092915050565b600082601f83011261319357600080fd5b81356131a3848260208601613087565b91505092915050565b6000813590506131bb81614ad0565b92915050565b6000602082840312156131d357600080fd5b60006131e1848285016130c5565b91505092915050565b600080604083850312156131fd57600080fd5b600061320b858286016130c5565b925050602061321c858286016130c5565b9150509250929050565b60008060006060848603121561323b57600080fd5b6000613249868287016130c5565b935050602061325a868287016130c5565b925050604061326b868287016131ac565b9150509250925092565b6000806000806080858703121561328b57600080fd5b6000613299878288016130c5565b94505060206132aa878288016130c5565b93505060406132bb878288016131ac565b925050606085013567ffffffffffffffff8111156132d857600080fd5b6132e487828801613158565b91505092959194509250565b6000806040838503121561330357600080fd5b6000613311858286016130c5565b925050602061332285828601613104565b9150509250929050565b6000806040838503121561333f57600080fd5b600061334d858286016130c5565b925050602061335e858286016131ac565b9150509250929050565b6000806000806080858703121561337e57600080fd5b600061338c878288016130c5565b945050602061339d878288016131ac565b935050604085013567ffffffffffffffff8111156133ba57600080fd5b6133c6878288016130da565b92505060606133d7878288016131ac565b91505092959194509250565b6000602082840312156133f557600080fd5b60006134038482850161312e565b91505092915050565b60006020828403121561341e57600080fd5b600061342c84828501613143565b91505092915050565b60006020828403121561344757600080fd5b600082013567ffffffffffffffff81111561346157600080fd5b61346d84828501613182565b91505092915050565b60006020828403121561348857600080fd5b6000613496848285016131ac565b91505092915050565b600080600080608085870312156134b557600080fd5b60006134c3878288016131ac565b94505060206134d487828801613119565b93505060406134e5878288016131ac565b925050606085013567ffffffffffffffff81111561350257600080fd5b61350e878288016130da565b91505092959194509250565b60008060006060848603121561352f57600080fd5b600061353d868287016131ac565b935050602061354e868287016131ac565b925050604061355f86828701613119565b9150509250925092565b613572816140d0565b82525050565b613589613584826140d0565b61423c565b82525050565b613598816140e2565b82525050565b6135a7816140ee565b82525050565b6135be6135b9826140ee565b61424e565b82525050565b60006135cf82613f78565b6135d98185613f8e565b93506135e981856020860161415d565b6135f281614357565b840191505092915050565b600061360882613f83565b6136128185613f9f565b935061362281856020860161415d565b61362b81614357565b840191505092915050565b600061364182613f83565b61364b8185613fb0565b935061365b81856020860161415d565b80840191505092915050565b6000613674602583613f9f565b915061367f82614375565b604082019050919050565b6000613697603283613f9f565b91506136a2826143c4565b604082019050919050565b60006136ba602683613f9f565b91506136c582614413565b604082019050919050565b60006136dd602583613f9f565b91506136e882614462565b604082019050919050565b6000613700601c83613f9f565b915061370b826144b1565b602082019050919050565b6000613723602983613f9f565b915061372e826144da565b604082019050919050565b6000613746602483613f9f565b915061375182614529565b604082019050919050565b6000613769601983613f9f565b915061377482614578565b602082019050919050565b600061378c602c83613f9f565b9150613797826145a1565b604082019050919050565b60006137af603283613f9f565b91506137ba826145f0565b604082019050919050565b60006137d2603883613f9f565b91506137dd8261463f565b604082019050919050565b60006137f5602a83613f9f565b91506138008261468e565b604082019050919050565b6000613818602983613f9f565b9150613823826146dd565b604082019050919050565b600061383b602083613f9f565b91506138468261472c565b602082019050919050565b600061385e602c83613f9f565b915061386982614755565b604082019050919050565b6000613881600583613fb0565b915061388c826147a4565b600582019050919050565b60006138a4601483613f9f565b91506138af826147cd565b602082019050919050565b60006138c7602083613f9f565b91506138d2826147f6565b602082019050919050565b60006138ea601783613f9f565b91506138f58261481f565b602082019050919050565b600061390d602683613f9f565b915061391882614848565b604082019050919050565b6000613930602183613f9f565b915061393b82614897565b604082019050919050565b6000613953601f83613f9f565b915061395e826148e6565b602082019050919050565b6000613976602783613f9f565b91506139818261490f565b604082019050919050565b6000613999603183613f9f565b91506139a48261495e565b604082019050919050565b60006139bc601883613f9f565b91506139c7826149ad565b602082019050919050565b60006139df603083613f9f565b91506139ea826149d6565b604082019050919050565b6000613a02602f83613f9f565b9150613a0d82614a25565b604082019050919050565b613a2181614144565b82525050565b6000613a338284613578565b60148201915081905092915050565b6000613a4e82856135ad565b602082019150613a5e82846135ad565b6020820191508190509392505050565b6000613a7a8285613636565b9150613a868284613636565b9150613a9182613874565b91508190509392505050565b6000602082019050613ab26000830184613569565b92915050565b6000608082019050613acd6000830187613569565b613ada6020830186613569565b613ae76040830185613a18565b8181036060830152613af981846135c4565b905095945050505050565b6000602082019050613b19600083018461358f565b92915050565b60006020820190508181036000830152613b3981846135fd565b905092915050565b60006020820190508181036000830152613b5a81613667565b9050919050565b60006020820190508181036000830152613b7a8161368a565b9050919050565b60006020820190508181036000830152613b9a816136ad565b9050919050565b60006020820190508181036000830152613bba816136d0565b9050919050565b60006020820190508181036000830152613bda816136f3565b9050919050565b60006020820190508181036000830152613bfa81613716565b9050919050565b60006020820190508181036000830152613c1a81613739565b9050919050565b60006020820190508181036000830152613c3a8161375c565b9050919050565b60006020820190508181036000830152613c5a8161377f565b9050919050565b60006020820190508181036000830152613c7a816137a2565b9050919050565b60006020820190508181036000830152613c9a816137c5565b9050919050565b60006020820190508181036000830152613cba816137e8565b9050919050565b60006020820190508181036000830152613cda8161380b565b9050919050565b60006020820190508181036000830152613cfa8161382e565b9050919050565b60006020820190508181036000830152613d1a81613851565b9050919050565b60006020820190508181036000830152613d3a81613897565b9050919050565b60006020820190508181036000830152613d5a816138ba565b9050919050565b60006020820190508181036000830152613d7a816138dd565b9050919050565b60006020820190508181036000830152613d9a81613900565b9050919050565b60006020820190508181036000830152613dba81613923565b9050919050565b60006020820190508181036000830152613dda81613946565b9050919050565b60006020820190508181036000830152613dfa81613969565b9050919050565b60006020820190508181036000830152613e1a8161398c565b9050919050565b60006020820190508181036000830152613e3a816139af565b9050919050565b60006020820190508181036000830152613e5a816139d2565b9050919050565b60006020820190508181036000830152613e7a816139f5565b9050919050565b6000602082019050613e966000830184613a18565b92915050565b6000604082019050613eb16000830185613a18565b613ebe602083018461359e565b9392505050565b6000613ecf613ee0565b9050613edb82826141c2565b919050565b6000604051905090565b600067ffffffffffffffff821115613f0557613f04614328565b5b602082029050602081019050919050565b600067ffffffffffffffff821115613f3157613f30614328565b5b613f3a82614357565b9050602081019050919050565b600067ffffffffffffffff821115613f6257613f61614328565b5b613f6b82614357565b9050602081019050919050565b600081519050919050565b600081519050919050565b600082825260208201905092915050565b600082825260208201905092915050565b600081905092915050565b6000613fc682614144565b9150613fd183614144565b9250827fffffffffffffffffffffffffffffffffffffffffffffffffffffffffffffffff038211156140065761400561429b565b5b828201905092915050565b600061401c82614144565b915061402783614144565b925082614037576140366142ca565b5b828204905092915050565b600061404d82614144565b915061405883614144565b9250817fffffffffffffffffffffffffffffffffffffffffffffffffffffffffffffffff04831182151516156140915761409061429b565b5b828202905092915050565b60006140a782614144565b91506140b283614144565b9250828210156140c5576140c461429b565b5b828203905092915050565b60006140db82614124565b9050919050565b60008115159050919050565b6000819050919050565b60007fffffffff0000000000000000000000000000000000000000000000000000000082169050919050565b600073ffffffffffffffffffffffffffffffffffffffff82169050919050565b6000819050919050565b82818337600083830152505050565b60005b8381101561417b578082015181840152602081019050614160565b8381111561418a576000848401525b50505050565b600060028204905060018216806141a857607f821691505b602082108114156141bc576141bb6142f9565b5b50919050565b6141cb82614357565b810181811067ffffffffffffffff821117156141ea576141e9614328565b5b80604052505050565b60006141fe82614144565b91507fffffffffffffffffffffffffffffffffffffffffffffffffffffffffffffffff8214156142315761423061429b565b5b600182019050919050565b600061424782614258565b9050919050565b6000819050919050565b600061426382614368565b9050919050565b600061427582614144565b915061428083614144565b9250826142905761428f6142ca565b5b828206905092915050565b7f4e487b7100000000000000000000000000000000000000000000000000000000600052601160045260246000fd5b7f4e487b7100000000000000000000000000000000000000000000000000000000600052601260045260246000fd5b7f4e487b7100000000000000000000000000000000000000000000000000000000600052602260045260246000fd5b7f4e487b7100000000000000000000000000000000000000000000000000000000600052604160045260246000fd5b6000601f19601f8301169050919050565b60008160601b9050919050565b7f596f752061726520746f6f206c6174652c2070726573616c652069732066696e60008201527f6973686564000000000000000000000000000000000000000000000000000000602082015250565b7f4552433732313a207472616e7366657220746f206e6f6e20455243373231526560008201527f63656976657220696d706c656d656e7465720000000000000000000000000000602082015250565b7f4f776e61626c653a206e6577206f776e657220697320746865207a65726f206160008201527f6464726573730000000000000000000000000000000000000000000000000000602082015250565b7f4552433732313a207472616e736665722066726f6d20696e636f72726563742060008201527f6f776e6572000000000000000000000000000000000000000000000000000000602082015250565b7f4552433732313a20746f6b656e20616c7265616479206d696e74656400000000600082015250565b7f546865726520617265206c65737320736865657473206c656674207468616e2060008201527f796f752077616e74210000000000000000000000000000000000000000000000602082015250565b7f4552433732313a207472616e7366657220746f20746865207a65726f2061646460008201527f7265737300000000000000000000000000000000000000000000000000000000602082015250565b7f4552433732313a20617070726f766520746f2063616c6c657200000000000000600082015250565b7f4552433732313a206f70657261746f7220717565727920666f72206e6f6e657860008201527f697374656e7420746f6b656e0000000000000000000000000000000000000000602082015250565b7f596f752063616e204e4f5420627579206d6f7265207468616e205f7075626c6960008201527f634d696e744c696d697420736865657473210000000000000000000000000000602082015250565b7f4552433732313a20617070726f76652063616c6c6572206973206e6f74206f7760008201527f6e6572206e6f7220617070726f76656420666f7220616c6c0000000000000000602082015250565b7f4552433732313a2062616c616e636520717565727920666f7220746865207a6560008201527f726f206164647265737300000000000000000000000000000000000000000000602082015250565b7f4552433732313a206f776e657220717565727920666f72206e6f6e657869737460008201527f656e7420746f6b656e0000000000000000000000000000000000000000000000602082015250565b7f4552433732313a206d696e7420746f20746865207a65726f2061646472657373600082015250565b7f4552433732313a20617070726f76656420717565727920666f72206e6f6e657860008201527f697374656e7420746f6b656e0000000000000000000000000000000000000000602082015250565b7f2e6a736f6e000000000000000000000000000000000000000000000000000000600082015250565b7f4d6f6e6579206973206e6f7420656e6f75676821000000000000000000000000600082015250565b7f4f776e61626c653a2063616c6c6572206973206e6f7420746865206f776e6572600082015250565b7f4d696e7420616d6f756e74206c696d69746174696f6e21000000000000000000600082015250565b7f536f7272792c20596f7520617265206e6f7420612077686974656c697374206d60008201527f656d6265722e0000000000000000000000000000000000000000000000000000602082015250565b7f4552433732313a20617070726f76616c20746f2063757272656e74206f776e6560008201527f7200000000000000000000000000000000000000000000000000000000000000602082015250565b7f5075626c6963206d696e74206973206e6f742073746172746564207965742100600082015250565b7f546f6f206c6174652c20616c6c2070726573616c65204e46547320617265207360008201527f6f6c64206f757400000000000000000000000000000000000000000000000000602082015250565b7f4552433732313a207472616e736665722063616c6c6572206973206e6f74206f60008201527f776e6572206e6f7220617070726f766564000000000000000000000000000000602082015250565b7f50726573616c65206973206e6f7420737570706f746564210000000000000000600082015250565b7f4552433732314d657461646174613a2055524920717565727920666f72206e6f60008201527f6e2d6578697374656e7420746f6b656e00000000000000000000000000000000602082015250565b7f5468657265206172656e277420656e6f756768206e66747320666f7220796f7560008201527f20696e2074686973206261746368210000000000000000000000000000000000602082015250565b614a7d816140d0565b8114614a8857600080fd5b50565b614a94816140e2565b8114614a9f57600080fd5b50565b614aab816140ee565b8114614ab657600080fd5b50565b614ac2816140f8565b8114614acd57600080fd5b50565b614ad981614144565b8114614ae457600080fd5b5056fea26469706673582212202ff4831a13fa43fd0ec199d2253b7987b7c9d1ccd8f3c0e0ec661e8a2f9d373964736f6c63430008040033",
  "linkReferences": {},
  "deployedLinkReferences": {}
}